{
  "contractName": "MyToken",
  "abi": [
    {
      "inputs": [],
      "stateMutability": "nonpayable",
      "type": "constructor"
    },
    {
      "anonymous": false,
      "inputs": [
        {
          "indexed": true,
          "internalType": "address",
          "name": "owner",
          "type": "address"
        },
        {
          "indexed": true,
          "internalType": "address",
          "name": "approved",
          "type": "address"
        },
        {
          "indexed": true,
          "internalType": "uint256",
          "name": "tokenId",
          "type": "uint256"
        }
      ],
      "name": "Approval",
      "type": "event"
    },
    {
      "anonymous": false,
      "inputs": [
        {
          "indexed": true,
          "internalType": "address",
          "name": "owner",
          "type": "address"
        },
        {
          "indexed": true,
          "internalType": "address",
          "name": "operator",
          "type": "address"
        },
        {
          "indexed": false,
          "internalType": "bool",
          "name": "approved",
          "type": "bool"
        }
      ],
      "name": "ApprovalForAll",
      "type": "event"
    },
    {
      "anonymous": false,
      "inputs": [
        {
          "indexed": false,
          "internalType": "address",
          "name": "to",
          "type": "address"
        },
        {
          "indexed": false,
          "internalType": "uint256[]",
          "name": "tokenIds",
          "type": "uint256[]"
        },
        {
          "indexed": false,
          "internalType": "uint256",
          "name": "totalPrice",
          "type": "uint256"
        }
      ],
      "name": "KlayBatchNftSale",
      "type": "event"
    },
    {
      "anonymous": false,
      "inputs": [
        {
          "indexed": false,
          "internalType": "address",
          "name": "to",
          "type": "address"
        },
        {
          "indexed": false,
          "internalType": "uint256",
          "name": "tokenIds",
          "type": "uint256"
        },
        {
          "indexed": false,
          "internalType": "uint256",
          "name": "price",
          "type": "uint256"
        }
      ],
      "name": "KlayNftSale",
      "type": "event"
    },
    {
      "anonymous": false,
      "inputs": [
        {
          "indexed": false,
          "internalType": "address",
          "name": "to",
          "type": "address"
        },
        {
          "indexed": false,
          "internalType": "uint256[]",
          "name": "tokenIds",
          "type": "uint256[]"
        }
      ],
      "name": "NftSale",
      "type": "event"
    },
    {
      "anonymous": false,
      "inputs": [
        {
          "indexed": true,
          "internalType": "address",
          "name": "previousOwner",
          "type": "address"
        },
        {
          "indexed": true,
          "internalType": "address",
          "name": "newOwner",
          "type": "address"
        }
      ],
      "name": "OwnershipTransferred",
      "type": "event"
    },
    {
      "anonymous": false,
      "inputs": [
        {
          "indexed": false,
          "internalType": "uint256",
          "name": "royaltyFee",
          "type": "uint256"
        },
        {
          "indexed": false,
          "internalType": "uint256",
          "name": "royaltyPrice",
          "type": "uint256"
        }
      ],
      "name": "RoyaltValues",
      "type": "event"
    },
    {
      "anonymous": false,
      "inputs": [
        {
          "indexed": true,
          "internalType": "address",
          "name": "from",
          "type": "address"
        },
        {
          "indexed": true,
          "internalType": "address",
          "name": "to",
          "type": "address"
        },
        {
          "indexed": true,
          "internalType": "uint256",
          "name": "tokenId",
          "type": "uint256"
        }
      ],
      "name": "Transfer",
      "type": "event"
    },
    {
      "inputs": [],
      "name": "allFee",
      "outputs": [
        {
          "internalType": "uint256",
          "name": "",
          "type": "uint256"
        }
      ],
      "stateMutability": "view",
      "type": "function",
      "constant": true
    },
    {
      "inputs": [
        {
          "internalType": "address",
          "name": "to",
          "type": "address"
        },
        {
          "internalType": "uint256",
          "name": "tokenId",
          "type": "uint256"
        }
      ],
      "name": "approve",
      "outputs": [],
      "stateMutability": "nonpayable",
      "type": "function"
    },
    {
      "inputs": [
        {
          "internalType": "address",
          "name": "owner",
          "type": "address"
        }
      ],
      "name": "balanceOf",
      "outputs": [
        {
          "internalType": "uint256",
          "name": "",
          "type": "uint256"
        }
      ],
      "stateMutability": "view",
      "type": "function",
      "constant": true
    },
    {
      "inputs": [],
      "name": "fileExtention",
      "outputs": [
        {
          "internalType": "string",
          "name": "",
          "type": "string"
        }
      ],
      "stateMutability": "view",
      "type": "function",
      "constant": true
    },
    {
      "inputs": [
        {
          "internalType": "uint256",
          "name": "tokenId",
          "type": "uint256"
        }
      ],
      "name": "getApproved",
      "outputs": [
        {
          "internalType": "address",
          "name": "",
          "type": "address"
        }
      ],
      "stateMutability": "view",
      "type": "function",
      "constant": true
    },
    {
      "inputs": [
        {
          "internalType": "address",
          "name": "owner",
          "type": "address"
        },
        {
          "internalType": "address",
          "name": "operator",
          "type": "address"
        }
      ],
      "name": "isApprovedForAll",
      "outputs": [
        {
          "internalType": "bool",
          "name": "",
          "type": "bool"
        }
      ],
      "stateMutability": "view",
      "type": "function",
      "constant": true
    },
    {
      "inputs": [],
      "name": "name",
      "outputs": [
        {
          "internalType": "string",
          "name": "",
          "type": "string"
        }
      ],
      "stateMutability": "view",
      "type": "function",
      "constant": true
    },
    {
      "inputs": [
        {
          "internalType": "address",
          "name": "",
          "type": "address"
        },
        {
          "internalType": "address",
          "name": "",
          "type": "address"
        },
        {
          "internalType": "uint256",
          "name": "",
          "type": "uint256"
        },
        {
          "internalType": "bytes",
          "name": "",
          "type": "bytes"
        }
      ],
      "name": "onERC721Received",
      "outputs": [
        {
          "internalType": "bytes4",
          "name": "",
          "type": "bytes4"
        }
      ],
      "stateMutability": "nonpayable",
      "type": "function"
    },
    {
      "inputs": [],
      "name": "owner",
      "outputs": [
        {
          "internalType": "address",
          "name": "",
          "type": "address"
        }
      ],
      "stateMutability": "view",
      "type": "function",
      "constant": true
    },
    {
      "inputs": [
        {
          "internalType": "uint256",
          "name": "tokenId",
          "type": "uint256"
        }
      ],
      "name": "ownerOf",
      "outputs": [
        {
          "internalType": "address",
          "name": "",
          "type": "address"
        }
      ],
      "stateMutability": "view",
      "type": "function",
      "constant": true
    },
    {
      "inputs": [],
      "name": "renounceOwnership",
      "outputs": [],
      "stateMutability": "nonpayable",
      "type": "function"
    },
    {
      "inputs": [
        {
          "internalType": "uint256",
          "name": "tokenId",
          "type": "uint256"
        },
        {
          "internalType": "uint256",
          "name": "value",
          "type": "uint256"
        }
      ],
      "name": "royaltyInfo",
      "outputs": [
        {
          "internalType": "address",
          "name": "receiver",
          "type": "address"
        },
        {
          "internalType": "uint256",
          "name": "royaltyAmount",
          "type": "uint256"
        }
      ],
      "stateMutability": "view",
      "type": "function",
      "constant": true
    },
    {
      "inputs": [
        {
          "internalType": "address",
          "name": "from",
          "type": "address"
        },
        {
          "internalType": "address",
          "name": "to",
          "type": "address"
        },
        {
          "internalType": "uint256",
          "name": "tokenId",
          "type": "uint256"
        }
      ],
      "name": "safeTransferFrom",
      "outputs": [],
      "stateMutability": "nonpayable",
      "type": "function"
    },
    {
      "inputs": [
        {
          "internalType": "address",
          "name": "from",
          "type": "address"
        },
        {
          "internalType": "address",
          "name": "to",
          "type": "address"
        },
        {
          "internalType": "uint256",
          "name": "tokenId",
          "type": "uint256"
        },
        {
          "internalType": "bytes",
          "name": "data",
          "type": "bytes"
        }
      ],
      "name": "safeTransferFrom",
      "outputs": [],
      "stateMutability": "nonpayable",
      "type": "function"
    },
    {
      "inputs": [
        {
          "internalType": "uint256",
          "name": "",
          "type": "uint256"
        }
      ],
      "name": "sallerOwner",
      "outputs": [
        {
          "internalType": "address",
          "name": "owner",
          "type": "address"
        },
        {
          "internalType": "uint256",
          "name": "price",
          "type": "uint256"
        }
      ],
      "stateMutability": "view",
      "type": "function",
      "constant": true
    },
    {
      "inputs": [
        {
          "internalType": "address",
          "name": "operator",
          "type": "address"
        },
        {
          "internalType": "bool",
          "name": "approved",
          "type": "bool"
        }
      ],
      "name": "setApprovalForAll",
      "outputs": [],
      "stateMutability": "nonpayable",
      "type": "function"
    },
    {
      "inputs": [],
      "name": "symbol",
      "outputs": [
        {
          "internalType": "string",
          "name": "",
          "type": "string"
        }
      ],
      "stateMutability": "view",
      "type": "function",
      "constant": true
    },
    {
      "inputs": [
        {
          "internalType": "address",
          "name": "from",
          "type": "address"
        },
        {
          "internalType": "address",
          "name": "to",
          "type": "address"
        },
        {
          "internalType": "uint256",
          "name": "tokenId",
          "type": "uint256"
        }
      ],
      "name": "transferFrom",
      "outputs": [],
      "stateMutability": "nonpayable",
      "type": "function"
    },
    {
      "inputs": [
        {
          "internalType": "address",
          "name": "newOwner",
          "type": "address"
        }
      ],
      "name": "transferOwnership",
      "outputs": [],
      "stateMutability": "nonpayable",
      "type": "function"
    },
    {
      "inputs": [
        {
          "internalType": "bytes4",
          "name": "interfaceId",
          "type": "bytes4"
        }
      ],
      "name": "supportsInterface",
      "outputs": [
        {
          "internalType": "bool",
          "name": "",
          "type": "bool"
        }
      ],
      "stateMutability": "view",
      "type": "function",
      "constant": true
    },
    {
      "inputs": [
        {
          "internalType": "string",
          "name": "_batchUri",
          "type": "string"
        }
      ],
      "name": "setTokenURI",
      "outputs": [],
      "stateMutability": "nonpayable",
      "type": "function"
    },
    {
      "inputs": [],
      "name": "setBatchUri",
      "outputs": [
        {
          "internalType": "string",
          "name": "",
          "type": "string"
        }
      ],
      "stateMutability": "view",
      "type": "function",
      "constant": true
    },
    {
      "inputs": [
        {
          "internalType": "address",
          "name": "to",
          "type": "address"
        }
      ],
      "name": "safeMint",
      "outputs": [],
      "stateMutability": "nonpayable",
      "type": "function"
    },
    {
      "inputs": [
        {
          "internalType": "address",
          "name": "to",
          "type": "address"
        },
        {
          "internalType": "uint256",
          "name": "price",
          "type": "uint256"
        },
        {
          "internalType": "address",
          "name": "royaltyRecipients",
          "type": "address"
        },
        {
          "internalType": "uint256",
          "name": "royaltyValues",
          "type": "uint256"
        }
      ],
      "name": "ETHRoyaltySafeMint",
      "outputs": [],
      "stateMutability": "nonpayable",
      "type": "function"
    },
    {
      "inputs": [
        {
          "internalType": "uint256",
          "name": "_tokenId",
          "type": "uint256"
        }
      ],
      "name": "tokenURI",
      "outputs": [
        {
          "internalType": "string",
          "name": "",
          "type": "string"
        }
      ],
      "stateMutability": "view",
      "type": "function",
      "constant": true
    },
    {
      "inputs": [
        {
          "internalType": "address",
          "name": "to",
          "type": "address"
        },
        {
          "internalType": "uint256",
          "name": "amount",
          "type": "uint256"
        }
      ],
      "name": "batchMint",
      "outputs": [],
      "stateMutability": "nonpayable",
      "type": "function"
    },
    {
      "inputs": [
        {
          "internalType": "address",
          "name": "_to",
          "type": "address"
        },
        {
          "internalType": "uint256[]",
          "name": "_tokenIds",
          "type": "uint256[]"
        },
        {
          "internalType": "uint256[]",
          "name": "_rePrices",
          "type": "uint256[]"
        }
      ],
      "name": "changePrice",
      "outputs": [],
      "stateMutability": "nonpayable",
      "type": "function"
    },
    {
      "inputs": [
        {
          "internalType": "address",
          "name": "from",
          "type": "address"
        },
        {
          "internalType": "address",
          "name": "to",
          "type": "address"
        },
        {
          "internalType": "uint256[]",
          "name": "ids",
          "type": "uint256[]"
        }
      ],
      "name": "ownerBatchTransferFrom",
      "outputs": [],
      "stateMutability": "nonpayable",
      "type": "function"
    },
    {
      "inputs": [
        {
          "internalType": "address",
          "name": "_from",
          "type": "address"
        },
        {
          "internalType": "address",
          "name": "_to",
          "type": "address"
        },
        {
          "internalType": "uint256[]",
          "name": "_tokenIds",
          "type": "uint256[]"
        }
      ],
      "name": "tradeBatchTransferFrom",
      "outputs": [],
      "stateMutability": "nonpayable",
      "type": "function"
    },
    {
      "inputs": [
        {
          "internalType": "address",
          "name": "to",
          "type": "address"
        },
        {
          "internalType": "uint256",
          "name": "amount",
          "type": "uint256"
        },
        {
          "internalType": "address[]",
          "name": "royaltyRecipients",
          "type": "address[]"
        },
        {
          "internalType": "uint256[]",
          "name": "royaltyValues",
          "type": "uint256[]"
        },
        {
          "internalType": "uint256[]",
          "name": "price",
          "type": "uint256[]"
        }
      ],
      "name": "ETHBatchMint",
      "outputs": [],
      "stateMutability": "nonpayable",
      "type": "function"
    },
    {
      "inputs": [
        {
          "internalType": "address",
          "name": "from",
          "type": "address"
        },
        {
          "internalType": "address",
          "name": "to",
          "type": "address"
        },
        {
          "internalType": "uint256[]",
          "name": "ids",
          "type": "uint256[]"
        }
      ],
      "name": "ETHBatchTransferFrom",
      "outputs": [],
      "stateMutability": "payable",
      "type": "function",
      "payable": true
    },
    {
      "inputs": [
        {
          "internalType": "address",
          "name": "_from",
          "type": "address"
        },
        {
          "internalType": "uint256[]",
          "name": "_tokenIds",
          "type": "uint256[]"
        }
      ],
      "name": "ETHTradeBatchTransferFrom",
      "outputs": [],
      "stateMutability": "payable",
      "type": "function",
      "payable": true
    },
    {
      "inputs": [],
      "name": "getToken",
      "outputs": [
        {
          "internalType": "uint256",
          "name": "",
          "type": "uint256"
        }
      ],
      "stateMutability": "view",
      "type": "function",
      "constant": true
    },
    {
      "inputs": [],
      "name": "recentTokenId",
      "outputs": [
        {
          "internalType": "uint256",
          "name": "",
          "type": "uint256"
        }
      ],
      "stateMutability": "view",
      "type": "function",
      "constant": true
    },
    {
      "inputs": [
        {
          "internalType": "address",
          "name": "operator",
          "type": "address"
        }
      ],
      "name": "checkApproval",
      "outputs": [
        {
          "internalType": "bool",
          "name": "",
          "type": "bool"
        }
      ],
      "stateMutability": "view",
      "type": "function",
      "constant": true
    },
    {
      "inputs": [
        {
          "internalType": "uint256",
          "name": "fee",
          "type": "uint256"
        }
      ],
      "name": "setFee",
      "outputs": [],
      "stateMutability": "nonpayable",
      "type": "function"
    }
  ],
  "bytecode": "0x60806040526040518060400160405280600581526020017f2e6a736f6e000000000000000000000000000000000000000000000000000000815250600990805190602001906200005192919062000411565b503480156200005f57600080fd5b506040518060400160405280600781526020017f4d79546f6b656e000000000000000000000000000000000000000000000000008152506040518060400160405280600381526020017f4d544b0000000000000000000000000000000000000000000000000000000000815250620000ec620000e0620001ad60201b60201c565b620001b560201b60201c565b81600290805190602001906200010492919062000411565b5080600390805190602001906200011d92919062000411565b505050600b6000908060018154018082558091505060019003906000526020600020016000909190919091505533600d60006101000a81548173ffffffffffffffffffffffffffffffffffffffff021916908373ffffffffffffffffffffffffffffffffffffffff1602179055506103e8600f81905550620001a73060016200027960201b60201c565b620005e3565b600033905090565b60008060009054906101000a900473ffffffffffffffffffffffffffffffffffffffff169050816000806101000a81548173ffffffffffffffffffffffffffffffffffffffff021916908373ffffffffffffffffffffffffffffffffffffffff1602179055508173ffffffffffffffffffffffffffffffffffffffff168173ffffffffffffffffffffffffffffffffffffffff167f8be0079c531659141344cd1fd0a4f28419497f9722a3daafe3b4186f6b6457e060405160405180910390a35050565b6200029b6200028d620001ad60201b60201c565b83836200029f60201b60201c565b5050565b8173ffffffffffffffffffffffffffffffffffffffff168373ffffffffffffffffffffffffffffffffffffffff16141562000311576040517f08c379a0000000000000000000000000000000000000000000000000000000008152600401620003089062000516565b60405180910390fd5b80600760008573ffffffffffffffffffffffffffffffffffffffff1673ffffffffffffffffffffffffffffffffffffffff16815260200190815260200160002060008473ffffffffffffffffffffffffffffffffffffffff1673ffffffffffffffffffffffffffffffffffffffff16815260200190815260200160002060006101000a81548160ff0219169083151502179055508173ffffffffffffffffffffffffffffffffffffffff168373ffffffffffffffffffffffffffffffffffffffff167f17307eab39ab6107e8899845ad3d59bd9653f200f220920489ca2b5937696c3183604051620004049190620004f9565b60405180910390a3505050565b8280546200041f9062000555565b90600052602060002090601f0160209004810192826200044357600085556200048f565b82601f106200045e57805160ff19168380011785556200048f565b828001600101855582156200048f579182015b828111156200048e57825182559160200191906001019062000471565b5b5090506200049e9190620004a2565b5090565b5b80821115620004bd576000816000905550600101620004a3565b5090565b620004cc8162000549565b82525050565b6000620004e160198362000538565b9150620004ee82620005ba565b602082019050919050565b6000602082019050620005106000830184620004c1565b92915050565b600060208201905081810360008301526200053181620004d2565b9050919050565b600082825260208201905092915050565b60008115159050919050565b600060028204905060018216806200056e57607f821691505b602082108114156200058557620005846200058b565b5b50919050565b7f4e487b7100000000000000000000000000000000000000000000000000000000600052602260045260246000fd5b7f4552433732313a20617070726f766520746f2063616c6c657200000000000000600082015250565b61560e80620005f36000396000f3fe60806040526004361061020f5760003560e01c80638d716b2211610118578063b88d4fde116100a0578063e985e9c51161006f578063e985e9c51461078f578063ec29e26c146107cc578063f2fde38b14610809578063f83b7a2214610832578063fd7c4e101461085b5761020f565b8063b88d4fde146106d7578063c87b56dd14610700578063da5b58001461073d578063e0df5b6f146107665761020f565b806395d89b41116100e757806395d89b4114610600578063a22cb4651461062b578063a5f77aec14610654578063a5fed13b1461067d578063b3a03616146106bb5761020f565b80638d716b22146105635780638da5cb5b1461058e578063901a7967146105b9578063916bcca1146105e45761020f565b8063379f72071161019b5780635f5e2c031161016a5780635f5e2c03146104805780636352211e146104a957806369fe0e2d146104e657806370a082311461050f578063715018a61461054c5761020f565b8063379f7207146103da57806340d097c31461040557806342842e0e1461042e57806343508b05146104575761020f565b8063150b7a02116101e2578063150b7a02146102e257806321df0da71461031f57806323b872dd1461034a57806325e5481e146103735780632a55205a1461039c5761020f565b806301ffc9a71461021457806306fdde0314610251578063081812fc1461027c578063095ea7b3146102b9575b600080fd5b34801561022057600080fd5b5061023b60048036038101906102369190613e4f565b610886565b6040516102489190614651565b60405180910390f35b34801561025d57600080fd5b50610266610898565b6040516102739190614687565b60405180910390f35b34801561028857600080fd5b506102a3600480360381019061029e9190613ee2565b61092a565b6040516102b09190614553565b60405180910390f35b3480156102c557600080fd5b506102e060048036038101906102db9190613cf1565b610970565b005b3480156102ee57600080fd5b5061030960048036038101906103049190613b67565b610a88565b604051610316919061466c565b60405180910390f35b34801561032b57600080fd5b50610334610a9c565b6040516103419190614a32565b60405180910390f35b34801561035657600080fd5b50610371600480360381019061036c9190613b18565b610ab5565b005b34801561037f57600080fd5b5061039a60048036038101906103959190613d90565b610b15565b005b3480156103a857600080fd5b506103c360048036038101906103be9190613f0b565b610ca1565b6040516103d1929190614628565b60405180910390f35b3480156103e657600080fd5b506103ef610d72565b6040516103fc9190614a32565b60405180910390f35b34801561041157600080fd5b5061042c60048036038101906104279190613a4c565b610d78565b005b34801561043a57600080fd5b5061045560048036038101906104509190613b18565b610dc5565b005b34801561046357600080fd5b5061047e60048036038101906104799190613cf1565b610de5565b005b34801561048c57600080fd5b506104a760048036038101906104a29190613c36565b610e19565b005b3480156104b557600080fd5b506104d060048036038101906104cb9190613ee2565b611004565b6040516104dd9190614553565b60405180910390f35b3480156104f257600080fd5b5061050d60048036038101906105089190613ee2565b6110b6565b005b34801561051b57600080fd5b5061053660048036038101906105319190613a4c565b6110c8565b6040516105439190614a32565b60405180910390f35b34801561055857600080fd5b50610561611180565b005b34801561056f57600080fd5b50610578611194565b6040516105859190614687565b60405180910390f35b34801561059a57600080fd5b506105a3611222565b6040516105b09190614553565b60405180910390f35b3480156105c557600080fd5b506105ce61124b565b6040516105db9190614687565b60405180910390f35b6105fe60048036038101906105f99190613ab1565b6112dd565b005b34801561060c57600080fd5b50610615611b1d565b6040516106229190614687565b60405180910390f35b34801561063757600080fd5b50610652600480360381019061064d9190613cb5565b611baf565b005b34801561066057600080fd5b5061067b60048036038101906106769190613ab1565b611bc5565b005b34801561068957600080fd5b506106a4600480360381019061069f9190613ee2565b611cfe565b6040516106b2929190614628565b60405180910390f35b6106d560048036038101906106d09190613be2565b611d42565b005b3480156106e357600080fd5b506106fe60048036038101906106f99190613b67565b611efe565b005b34801561070c57600080fd5b5061072760048036038101906107229190613ee2565b611f60565b6040516107349190614687565b60405180910390f35b34801561074957600080fd5b50610764600480360381019061075f9190613ab1565b61200a565b005b34801561077257600080fd5b5061078d60048036038101906107889190613ea1565b6120aa565b005b34801561079b57600080fd5b506107b660048036038101906107b19190613a75565b6120cc565b6040516107c39190614651565b60405180910390f35b3480156107d857600080fd5b506107f360048036038101906107ee9190613a4c565b612160565b6040516108009190614651565b60405180910390f35b34801561081557600080fd5b50610830600480360381019061082b9190613a4c565b61219a565b005b34801561083e57600080fd5b5061085960048036038101906108549190613d2d565b61221e565b005b34801561086757600080fd5b5061087061235b565b60405161087d9190614a32565b60405180910390f35b600061089182612469565b9050919050565b6060600280546108a790614db4565b80601f01602080910402602001604051908101604052809291908181526020018280546108d390614db4565b80156109205780601f106108f557610100808354040283529160200191610920565b820191906000526020600020905b81548152906001019060200180831161090357829003601f168201915b5050505050905090565b60006109358261254b565b6006600083815260200190815260200160002060009054906101000a900473ffffffffffffffffffffffffffffffffffffffff169050919050565b600061097b82611004565b90508073ffffffffffffffffffffffffffffffffffffffff168373ffffffffffffffffffffffffffffffffffffffff1614156109ec576040517f08c379a00000000000000000000000000000000000000000000000000000000081526004016109e390614989565b60405180910390fd5b8073ffffffffffffffffffffffffffffffffffffffff16610a0b612596565b73ffffffffffffffffffffffffffffffffffffffff161480610a3a5750610a3981610a34612596565b6120cc565b5b610a79576040517f08c379a0000000000000000000000000000000000000000000000000000000008152600401610a7090614849565b60405180910390fd5b610a83838361259e565b505050565b600063150b7a0260e01b9050949350505050565b60006001600b80549050610ab09190614ca9565b905090565b610ac6610ac0612596565b82612657565b610b05576040517f08c379a0000000000000000000000000000000000000000000000000000000008152600401610afc906149e9565b60405180910390fd5b610b108383836126ec565b505050565b610b1d612953565b83815114610b60576040517f08c379a0000000000000000000000000000000000000000000000000000000008152600401610b57906148a9565b60405180910390fd5b825184148015610b705750815184145b610baf576040517f08c379a0000000000000000000000000000000000000000000000000000000008152600401610ba6906148a9565b60405180910390fd5b60005b84811015610c9957610c8686838381518110610bf7577f4e487b7100000000000000000000000000000000000000000000000000000000600052603260045260246000fd5b6020026020010151868481518110610c38577f4e487b7100000000000000000000000000000000000000000000000000000000600052603260045260246000fd5b6020026020010151868581518110610c79577f4e487b7100000000000000000000000000000000000000000000000000000000600052603260045260246000fd5b602002602001015161221e565b8080610c9190614e17565b915050610bb2565b505050505050565b6000806000600160008681526020019081526020016000206040518060400160405290816000820160009054906101000a900473ffffffffffffffffffffffffffffffffffffffff1673ffffffffffffffffffffffffffffffffffffffff1673ffffffffffffffffffffffffffffffffffffffff1681526020016000820160149054906101000a900462ffffff1662ffffff1662ffffff1681525050905080600001519250612710816020015162ffffff1685610d5e9190614c4f565b610d689190614c1e565b9150509250929050565b600f5481565b610d80612953565b610d8a60116129d1565b600e81905550610d9a60116129df565b610da681600e546129f5565b6000610db3600e54611f60565b9050610dc1600e5482612a13565b5050565b610de083838360405180602001604052806000815250611efe565b505050565b610ded612953565b60005b81811015610e1457610e0183610d78565b8080610e0c90614e17565b915050610df0565b505050565b818360005b8251811015610ef0578173ffffffffffffffffffffffffffffffffffffffff16610e87848381518110610e7a577f4e487b7100000000000000000000000000000000000000000000000000000000600052603260045260246000fd5b6020026020010151611004565b73ffffffffffffffffffffffffffffffffffffffff1614610edd576040517f08c379a0000000000000000000000000000000000000000000000000000000008152600401610ed4906149c9565b60405180910390fd5b8080610ee890614e17565b915050610e1e565b50610ef9612953565b60005b8351811015610ffc57600060106000878481518110610f44577f4e487b7100000000000000000000000000000000000000000000000000000000600052603260045260246000fd5b602002602001015181526020019081526020016000209050848281518110610f95577f4e487b7100000000000000000000000000000000000000000000000000000000600052603260045260246000fd5b60200260200101518160010181905550868160000160006101000a81548173ffffffffffffffffffffffffffffffffffffffff021916908373ffffffffffffffffffffffffffffffffffffffff160217905550508080610ff490614e17565b915050610efc565b505050505050565b6000806004600084815260200190815260200160002060009054906101000a900473ffffffffffffffffffffffffffffffffffffffff169050600073ffffffffffffffffffffffffffffffffffffffff168173ffffffffffffffffffffffffffffffffffffffff1614156110ad576040517f08c379a00000000000000000000000000000000000000000000000000000000081526004016110a490614969565b60405180910390fd5b80915050919050565b6110be612953565b80600f8190555050565b60008073ffffffffffffffffffffffffffffffffffffffff168273ffffffffffffffffffffffffffffffffffffffff161415611139576040517f08c379a0000000000000000000000000000000000000000000000000000000008152600401611130906147e9565b60405180910390fd5b600560008373ffffffffffffffffffffffffffffffffffffffff1673ffffffffffffffffffffffffffffffffffffffff168152602001908152602001600020549050919050565b611188612953565b6111926000612a87565b565b600980546111a190614db4565b80601f01602080910402602001604051908101604052809291908181526020018280546111cd90614db4565b801561121a5780601f106111ef5761010080835404028352916020019161121a565b820191906000526020600020905b8154815290600101906020018083116111fd57829003601f168201915b505050505081565b60008060009054906101000a900473ffffffffffffffffffffffffffffffffffffffff16905090565b6060600a805461125a90614db4565b80601f016020809104026020016040519081016040528092919081815260200182805461128690614db4565b80156112d35780601f106112a8576101008083540402835291602001916112d3565b820191906000526020600020905b8154815290600101906020018083116112b657829003601f168201915b5050505050905090565b60006112e7613714565b60005b83518110156114ce5760106000858381518110611330577f4e487b7100000000000000000000000000000000000000000000000000000000600052603260045260246000fd5b602002602001015181526020019081526020016000206040518060400160405290816000820160009054906101000a900473ffffffffffffffffffffffffffffffffffffffff1673ffffffffffffffffffffffffffffffffffffffff1673ffffffffffffffffffffffffffffffffffffffff1681526020016001820154815250509150612710600f5483602001516113c89190614c4f565b6113d29190614c1e565b82602001516113e19190614bc8565b9250600d60009054906101000a900473ffffffffffffffffffffffffffffffffffffffff1673ffffffffffffffffffffffffffffffffffffffff16611465858381518110611458577f4e487b7100000000000000000000000000000000000000000000000000000000600052603260045260246000fd5b6020026020010151611004565b73ffffffffffffffffffffffffffffffffffffffff16146114bb576040517f08c379a00000000000000000000000000000000000000000000000000000000081526004016114b290614789565b60405180910390fd5b80806114c690614e17565b9150506112ea565b50813414611511576040517f08c379a0000000000000000000000000000000000000000000000000000000008152600401611508906149a9565b60405180910390fd5b60005b8351811015611ada57611566848281518110611559577f4e487b7100000000000000000000000000000000000000000000000000000000600052603260045260246000fd5b6020026020010151612b4b565b6115a5576040517f08c379a000000000000000000000000000000000000000000000000000000000815260040161159c906146c9565b60405180910390fd5b601060008583815181106115e2577f4e487b7100000000000000000000000000000000000000000000000000000000600052603260045260246000fd5b602002602001015181526020019081526020016000206040518060400160405290816000820160009054906101000a900473ffffffffffffffffffffffffffffffffffffffff1673ffffffffffffffffffffffffffffffffffffffff1673ffffffffffffffffffffffffffffffffffffffff16815260200160018201548152505091506000600160008684815181106116a4577f4e487b7100000000000000000000000000000000000000000000000000000000600052603260045260246000fd5b602002602001015181526020019081526020016000206040518060400160405290816000820160009054906101000a900473ffffffffffffffffffffffffffffffffffffffff1673ffffffffffffffffffffffffffffffffffffffff1673ffffffffffffffffffffffffffffffffffffffff1681526020016000820160149054906101000a900462ffffff1662ffffff1662ffffff168152505090506000806000612710600f54876020015161175a9190614c4f565b6117649190614c1e565b90506117b48886815181106117a2577f4e487b7100000000000000000000000000000000000000000000000000000000600052603260045260246000fd5b60200260200101518760200151612bb7565b809350819450505060008287602001516117ce9190614ca9565b905060008b73ffffffffffffffffffffffffffffffffffffffff16846040516117f69061453e565b60006040518083038185875af1925050503d8060008114611833576040519150601f19603f3d011682016040523d82523d6000602084013e611838565b606091505b505090508061187c576040517f08c379a000000000000000000000000000000000000000000000000000000000815260040161187390614889565b60405180910390fd5b6000886000015173ffffffffffffffffffffffffffffffffffffffff16836040516118a69061453e565b60006040518083038185875af1925050503d80600081146118e3576040519150601f19603f3d011682016040523d82523d6000602084013e6118e8565b606091505b505090508061192c576040517f08c379a000000000000000000000000000000000000000000000000000000000815260040161192390614829565b60405180910390fd5b6000600d60009054906101000a900473ffffffffffffffffffffffffffffffffffffffff1673ffffffffffffffffffffffffffffffffffffffff16856040516119749061453e565b60006040518083038185875af1925050503d80600081146119b1576040519150601f19603f3d011682016040523d82523d6000602084013e6119b6565b606091505b50509050806119fa576040517f08c379a00000000000000000000000000000000000000000000000000000000081526004016119f190614949565b60405180910390fd5b7fc07b0f261ae5bc9c19f30e25aad9af37d9487b5f4e06447f1e18047ce25562e6886020015187604051611a2f929190614a09565b60405180910390a1611a828e8e8e8c81518110611a75577f4e487b7100000000000000000000000000000000000000000000000000000000600052603260045260246000fd5b6020026020010151610dc5565b7fc07b0f261ae5bc9c19f30e25aad9af37d9487b5f4e06447f1e18047ce25562e6886020015187604051611ab7929190614a09565b60405180910390a150505050505050508080611ad290614e17565b915050611514565b507f818af4c544b28ba5751ea93e544b1d6694c4c5d7d397aac48113902649340a0c848484604051611b0e939291906145ea565b60405180910390a15050505050565b606060038054611b2c90614db4565b80601f0160208091040260200160405190810160405280929190818152602001828054611b5890614db4565b8015611ba55780601f10611b7a57610100808354040283529160200191611ba5565b820191906000526020600020905b815481529060010190602001808311611b8857829003601f168201915b5050505050905090565b611bc1611bba612596565b8383612c94565b5050565b611bcd612953565b60005b8151811015611cbf57611c22828281518110611c15577f4e487b7100000000000000000000000000000000000000000000000000000000600052603260045260246000fd5b6020026020010151612b4b565b611c61576040517f08c379a0000000000000000000000000000000000000000000000000000000008152600401611c58906146a9565b60405180910390fd5b611cac8484848481518110611c9f577f4e487b7100000000000000000000000000000000000000000000000000000000600052603260045260246000fd5b6020026020010151610dc5565b8080611cb790614e17565b915050611bd0565b507fb347ba4075364fc4a28f09aa270ea3df88cdf4b1b8bab71fd4f0ec55ccdfcbc78282604051611cf19291906145ba565b60405180910390a1505050565b60106020528060005260406000206000915090508060000160009054906101000a900473ffffffffffffffffffffffffffffffffffffffff16908060010154905082565b6000611d4c613714565b60005b8351811015611e5b5760106000858381518110611d95577f4e487b7100000000000000000000000000000000000000000000000000000000600052603260045260246000fd5b602002602001015181526020019081526020016000206040518060400160405290816000820160009054906101000a900473ffffffffffffffffffffffffffffffffffffffff1673ffffffffffffffffffffffffffffffffffffffff1673ffffffffffffffffffffffffffffffffffffffff1681526020016001820154815250509150612710600f548360200151611e2d9190614c4f565b611e379190614c1e565b8260200151611e469190614bc8565b92508080611e5390614e17565b915050611d4f565b50813414611e9e576040517f08c379a0000000000000000000000000000000000000000000000000000000008152600401611e9590614929565b60405180910390fd5b611ecb84600d60009054906101000a900473ffffffffffffffffffffffffffffffffffffffff1685612e01565b611ef8600d60009054906101000a900473ffffffffffffffffffffffffffffffffffffffff1633856112dd565b50505050565b611f0f611f09612596565b83612657565b611f4e576040517f08c379a0000000000000000000000000000000000000000000000000000000008152600401611f45906149e9565b60405180910390fd5b611f5a84848484612f32565b50505050565b6060611f6b82612b4b565b611faa576040517f08c379a0000000000000000000000000000000000000000000000000000000008152600401611fa1906148e9565b60405180910390fd5b6000611fb461124b565b90506000815111611fd45760405180602001604052806000815250612002565b80611fde84612f8e565b6009604051602001611ff29392919061450d565b6040516020818303038152906040525b915050919050565b612012612953565b61203f83600d60009054906101000a900473ffffffffffffffffffffffffffffffffffffffff1683612e01565b61206c600d60009054906101000a900473ffffffffffffffffffffffffffffffffffffffff168383612e01565b7fb347ba4075364fc4a28f09aa270ea3df88cdf4b1b8bab71fd4f0ec55ccdfcbc7838260405161209d9291906145ba565b60405180910390a1505050565b6120b2612953565b80600a90805190602001906120c8929190613744565b5050565b6000600760008473ffffffffffffffffffffffffffffffffffffffff1673ffffffffffffffffffffffffffffffffffffffff16815260200190815260200160002060008373ffffffffffffffffffffffffffffffffffffffff1673ffffffffffffffffffffffffffffffffffffffff16815260200190815260200160002060009054906101000a900460ff16905092915050565b60008061218f600d60009054906101000a900473ffffffffffffffffffffffffffffffffffffffff16846120cc565b905080915050919050565b6121a2612953565b600073ffffffffffffffffffffffffffffffffffffffff168173ffffffffffffffffffffffffffffffffffffffff161415612212576040517f08c379a000000000000000000000000000000000000000000000000000000000815260040161220990614729565b60405180910390fd5b61221b81612a87565b50565b612226612953565b61223060116129d1565b600e8190555061224060116129df565b61224c84600e546129f5565b6000612259600e54611f60565b9050612267600e5482612a13565b600b600e54908060018154018082558091505060019003906000526020600020016000909190919091505561229f600e54848461313b565b6122a7613714565b33816000019073ffffffffffffffffffffffffffffffffffffffff16908173ffffffffffffffffffffffffffffffffffffffff1681525050848160200181815250508060106000600e54815260200190815260200160002060008201518160000160006101000a81548173ffffffffffffffffffffffffffffffffffffffff021916908373ffffffffffffffffffffffffffffffffffffffff16021790555060208201518160010155905050505050505050565b600080600b600081548110612399577f4e487b7100000000000000000000000000000000000000000000000000000000600052603260045260246000fd5b906000526020600020015490506000600190505b600b805490508110156124615781600b82815481106123f5577f4e487b7100000000000000000000000000000000000000000000000000000000600052603260045260246000fd5b9060005260206000200154111561244e57600b8181548110612440577f4e487b7100000000000000000000000000000000000000000000000000000000600052603260045260246000fd5b906000526020600020015491505b808061245990614e17565b9150506123ad565b508091505090565b60007f80ac58cd000000000000000000000000000000000000000000000000000000007bffffffffffffffffffffffffffffffffffffffffffffffffffffffff1916827bffffffffffffffffffffffffffffffffffffffffffffffffffffffff1916148061253457507f5b5e139f000000000000000000000000000000000000000000000000000000007bffffffffffffffffffffffffffffffffffffffffffffffffffffffff1916827bffffffffffffffffffffffffffffffffffffffffffffffffffffffff1916145b80612544575061254382613237565b5b9050919050565b61255481612b4b565b612593576040517f08c379a000000000000000000000000000000000000000000000000000000000815260040161258a90614969565b60405180910390fd5b50565b600033905090565b816006600083815260200190815260200160002060006101000a81548173ffffffffffffffffffffffffffffffffffffffff021916908373ffffffffffffffffffffffffffffffffffffffff160217905550808273ffffffffffffffffffffffffffffffffffffffff1661261183611004565b73ffffffffffffffffffffffffffffffffffffffff167f8c5be1e5ebec7d5bd14f71427d1e84f3dd0314c0f7b2291e5b200ac8c7c3b92560405160405180910390a45050565b60008061266383611004565b90508073ffffffffffffffffffffffffffffffffffffffff168473ffffffffffffffffffffffffffffffffffffffff1614806126a557506126a481856120cc565b5b806126e357508373ffffffffffffffffffffffffffffffffffffffff166126cb8461092a565b73ffffffffffffffffffffffffffffffffffffffff16145b91505092915050565b8273ffffffffffffffffffffffffffffffffffffffff1661270c82611004565b73ffffffffffffffffffffffffffffffffffffffff1614612762576040517f08c379a000000000000000000000000000000000000000000000000000000000815260040161275990614749565b60405180910390fd5b600073ffffffffffffffffffffffffffffffffffffffff168273ffffffffffffffffffffffffffffffffffffffff1614156127d2576040517f08c379a00000000000000000000000000000000000000000000000000000000081526004016127c9906147a9565b60405180910390fd5b6127dd8383836132b1565b6127e860008261259e565b6001600560008573ffffffffffffffffffffffffffffffffffffffff1673ffffffffffffffffffffffffffffffffffffffff16815260200190815260200160002060008282546128389190614ca9565b925050819055506001600560008473ffffffffffffffffffffffffffffffffffffffff1673ffffffffffffffffffffffffffffffffffffffff168152602001908152602001600020600082825461288f9190614bc8565b92505081905550816004600083815260200190815260200160002060006101000a81548173ffffffffffffffffffffffffffffffffffffffff021916908373ffffffffffffffffffffffffffffffffffffffff160217905550808273ffffffffffffffffffffffffffffffffffffffff168473ffffffffffffffffffffffffffffffffffffffff167fddf252ad1be2c89b69c2b068fc378daa952ba7f163c4a11628f55a4df523b3ef60405160405180910390a461294e8383836132b6565b505050565b61295b612596565b73ffffffffffffffffffffffffffffffffffffffff16612979611222565b73ffffffffffffffffffffffffffffffffffffffff16146129cf576040517f08c379a00000000000000000000000000000000000000000000000000000000081526004016129c6906148c9565b60405180910390fd5b565b600081600001549050919050565b6001816000016000828254019250508190555050565b612a0f8282604051806020016040528060008152506132bb565b5050565b612a1c82612b4b565b612a5b576040517f08c379a0000000000000000000000000000000000000000000000000000000008152600401612a5290614809565b60405180910390fd5b80600860008481526020019081526020016000209080519060200190612a82929190613744565b505050565b60008060009054906101000a900473ffffffffffffffffffffffffffffffffffffffff169050816000806101000a81548173ffffffffffffffffffffffffffffffffffffffff021916908373ffffffffffffffffffffffffffffffffffffffff1602179055508173ffffffffffffffffffffffffffffffffffffffff168173ffffffffffffffffffffffffffffffffffffffff167f8be0079c531659141344cd1fd0a4f28419497f9722a3daafe3b4186f6b6457e060405160405180910390a35050565b60008073ffffffffffffffffffffffffffffffffffffffff166004600084815260200190815260200160002060009054906101000a900473ffffffffffffffffffffffffffffffffffffffff1673ffffffffffffffffffffffffffffffffffffffff1614159050919050565b6000806000600160008681526020019081526020016000206040518060400160405290816000820160009054906101000a900473ffffffffffffffffffffffffffffffffffffffff1673ffffffffffffffffffffffffffffffffffffffff1673ffffffffffffffffffffffffffffffffffffffff1681526020016000820160149054906101000a900462ffffff1662ffffff1662ffffff168152505090506000816000015190506000612710836020015162ffffff1687612c789190614c4f565b612c829190614c1e565b90508181945094505050509250929050565b8173ffffffffffffffffffffffffffffffffffffffff168373ffffffffffffffffffffffffffffffffffffffff161415612d03576040517f08c379a0000000000000000000000000000000000000000000000000000000008152600401612cfa906147c9565b60405180910390fd5b80600760008573ffffffffffffffffffffffffffffffffffffffff1673ffffffffffffffffffffffffffffffffffffffff16815260200190815260200160002060008473ffffffffffffffffffffffffffffffffffffffff1673ffffffffffffffffffffffffffffffffffffffff16815260200190815260200160002060006101000a81548160ff0219169083151502179055508173ffffffffffffffffffffffffffffffffffffffff168373ffffffffffffffffffffffffffffffffffffffff167f17307eab39ab6107e8899845ad3d59bd9653f200f220920489ca2b5937696c3183604051612df49190614651565b60405180910390a3505050565b60005b8151811015612ef357612e56828281518110612e49577f4e487b7100000000000000000000000000000000000000000000000000000000600052603260045260246000fd5b6020026020010151612b4b565b612e95576040517f08c379a0000000000000000000000000000000000000000000000000000000008152600401612e8c90614909565b60405180910390fd5b612ee08484848481518110612ed3577f4e487b7100000000000000000000000000000000000000000000000000000000600052603260045260246000fd5b6020026020010151610dc5565b8080612eeb90614e17565b915050612e04565b507fb347ba4075364fc4a28f09aa270ea3df88cdf4b1b8bab71fd4f0ec55ccdfcbc78282604051612f259291906145ba565b60405180910390a1505050565b612f3d8484846126ec565b612f4984848484613316565b612f88576040517f08c379a0000000000000000000000000000000000000000000000000000000008152600401612f7f90614709565b60405180910390fd5b50505050565b60606000821415612fd6576040518060400160405280600181526020017f30000000000000000000000000000000000000000000000000000000000000008152509050613136565b600082905060005b60008214613008578080612ff190614e17565b915050600a826130019190614c1e565b9150612fde565b60008167ffffffffffffffff81111561304a577f4e487b7100000000000000000000000000000000000000000000000000000000600052604160045260246000fd5b6040519080825280601f01601f19166020018201604052801561307c5781602001600182028036833780820191505090505b5090505b6000851461312f576001826130959190614ca9565b9150600a856130a49190614e60565b60306130b09190614bc8565b60f81b8183815181106130ec577f4e487b7100000000000000000000000000000000000000000000000000000000600052603260045260246000fd5b60200101907effffffffffffffffffffffffffffffffffffffffffffffffffffffffffffff1916908160001a905350600a856131289190614c1e565b9450613080565b8093505050505b919050565b612710811115613180576040517f08c379a0000000000000000000000000000000000000000000000000000000008152600401613177906146e9565b60405180910390fd5b60405180604001604052808373ffffffffffffffffffffffffffffffffffffffff1681526020018262ffffff168152506001600085815260200190815260200160002060008201518160000160006101000a81548173ffffffffffffffffffffffffffffffffffffffff021916908373ffffffffffffffffffffffffffffffffffffffff16021790555060208201518160000160146101000a81548162ffffff021916908362ffffff160217905550905050505050565b60007f2a55205a000000000000000000000000000000000000000000000000000000007bffffffffffffffffffffffffffffffffffffffffffffffffffffffff1916827bffffffffffffffffffffffffffffffffffffffffffffffffffffffff191614806132aa57506132a9826134ad565b5b9050919050565b505050565b505050565b6132c58383613517565b6132d26000848484613316565b613311576040517f08c379a000000000000000000000000000000000000000000000000000000000815260040161330890614709565b60405180910390fd5b505050565b60006133378473ffffffffffffffffffffffffffffffffffffffff166136f1565b156134a0578373ffffffffffffffffffffffffffffffffffffffff1663150b7a02613360612596565b8786866040518563ffffffff1660e01b8152600401613382949392919061456e565b602060405180830381600087803b15801561339c57600080fd5b505af19250505080156133cd57506040513d601f19601f820116820180604052508101906133ca9190613e78565b60015b613450573d80600081146133fd576040519150601f19603f3d011682016040523d82523d6000602084013e613402565b606091505b50600081511415613448576040517f08c379a000000000000000000000000000000000000000000000000000000000815260040161343f90614709565b60405180910390fd5b805181602001fd5b63150b7a0260e01b7bffffffffffffffffffffffffffffffffffffffffffffffffffffffff1916817bffffffffffffffffffffffffffffffffffffffffffffffffffffffff1916149150506134a5565b600190505b949350505050565b60007f01ffc9a7000000000000000000000000000000000000000000000000000000007bffffffffffffffffffffffffffffffffffffffffffffffffffffffff1916827bffffffffffffffffffffffffffffffffffffffffffffffffffffffff1916149050919050565b600073ffffffffffffffffffffffffffffffffffffffff168273ffffffffffffffffffffffffffffffffffffffff161415613587576040517f08c379a000000000000000000000000000000000000000000000000000000000815260040161357e90614869565b60405180910390fd5b61359081612b4b565b156135d0576040517f08c379a00000000000000000000000000000000000000000000000000000000081526004016135c790614769565b60405180910390fd5b6135dc600083836132b1565b6001600560008473ffffffffffffffffffffffffffffffffffffffff1673ffffffffffffffffffffffffffffffffffffffff168152602001908152602001600020600082825461362c9190614bc8565b92505081905550816004600083815260200190815260200160002060006101000a81548173ffffffffffffffffffffffffffffffffffffffff021916908373ffffffffffffffffffffffffffffffffffffffff160217905550808273ffffffffffffffffffffffffffffffffffffffff16600073ffffffffffffffffffffffffffffffffffffffff167fddf252ad1be2c89b69c2b068fc378daa952ba7f163c4a11628f55a4df523b3ef60405160405180910390a46136ed600083836132b6565b5050565b6000808273ffffffffffffffffffffffffffffffffffffffff163b119050919050565b6040518060400160405280600073ffffffffffffffffffffffffffffffffffffffff168152602001600081525090565b82805461375090614db4565b90600052602060002090601f01602090048101928261377257600085556137b9565b82601f1061378b57805160ff19168380011785556137b9565b828001600101855582156137b9579182015b828111156137b857825182559160200191906001019061379d565b5b5090506137c691906137ca565b5090565b5b808211156137e35760008160009055506001016137cb565b5090565b60006137fa6137f584614a72565b614a4d565b9050808382526020820190508285602086028201111561381957600080fd5b60005b85811015613849578161382f888261393b565b84526020840193506020830192505060018101905061381c565b5050509392505050565b600061386661386184614a9e565b614a4d565b9050808382526020820190508285602086028201111561388557600080fd5b60005b858110156138b5578161389b8882613a37565b845260208401935060208301925050600181019050613888565b5050509392505050565b60006138d26138cd84614aca565b614a4d565b9050828152602081018484840111156138ea57600080fd5b6138f5848285614d72565b509392505050565b600061391061390b84614afb565b614a4d565b90508281526020810184848401111561392857600080fd5b613933848285614d72565b509392505050565b60008135905061394a8161557c565b92915050565b600082601f83011261396157600080fd5b81356139718482602086016137e7565b91505092915050565b600082601f83011261398b57600080fd5b813561399b848260208601613853565b91505092915050565b6000813590506139b381615593565b92915050565b6000813590506139c8816155aa565b92915050565b6000815190506139dd816155aa565b92915050565b600082601f8301126139f457600080fd5b8135613a048482602086016138bf565b91505092915050565b600082601f830112613a1e57600080fd5b8135613a2e8482602086016138fd565b91505092915050565b600081359050613a46816155c1565b92915050565b600060208284031215613a5e57600080fd5b6000613a6c8482850161393b565b91505092915050565b60008060408385031215613a8857600080fd5b6000613a968582860161393b565b9250506020613aa78582860161393b565b9150509250929050565b600080600060608486031215613ac657600080fd5b6000613ad48682870161393b565b9350506020613ae58682870161393b565b925050604084013567ffffffffffffffff811115613b0257600080fd5b613b0e8682870161397a565b9150509250925092565b600080600060608486031215613b2d57600080fd5b6000613b3b8682870161393b565b9350506020613b4c8682870161393b565b9250506040613b5d86828701613a37565b9150509250925092565b60008060008060808587031215613b7d57600080fd5b6000613b8b8782880161393b565b9450506020613b9c8782880161393b565b9350506040613bad87828801613a37565b925050606085013567ffffffffffffffff811115613bca57600080fd5b613bd6878288016139e3565b91505092959194509250565b60008060408385031215613bf557600080fd5b6000613c038582860161393b565b925050602083013567ffffffffffffffff811115613c2057600080fd5b613c2c8582860161397a565b9150509250929050565b600080600060608486031215613c4b57600080fd5b6000613c598682870161393b565b935050602084013567ffffffffffffffff811115613c7657600080fd5b613c828682870161397a565b925050604084013567ffffffffffffffff811115613c9f57600080fd5b613cab8682870161397a565b9150509250925092565b60008060408385031215613cc857600080fd5b6000613cd68582860161393b565b9250506020613ce7858286016139a4565b9150509250929050565b60008060408385031215613d0457600080fd5b6000613d128582860161393b565b9250506020613d2385828601613a37565b9150509250929050565b60008060008060808587031215613d4357600080fd5b6000613d518782880161393b565b9450506020613d6287828801613a37565b9350506040613d738782880161393b565b9250506060613d8487828801613a37565b91505092959194509250565b600080600080600060a08688031215613da857600080fd5b6000613db68882890161393b565b9550506020613dc788828901613a37565b945050604086013567ffffffffffffffff811115613de457600080fd5b613df088828901613950565b935050606086013567ffffffffffffffff811115613e0d57600080fd5b613e198882890161397a565b925050608086013567ffffffffffffffff811115613e3657600080fd5b613e428882890161397a565b9150509295509295909350565b600060208284031215613e6157600080fd5b6000613e6f848285016139b9565b91505092915050565b600060208284031215613e8a57600080fd5b6000613e98848285016139ce565b91505092915050565b600060208284031215613eb357600080fd5b600082013567ffffffffffffffff811115613ecd57600080fd5b613ed984828501613a0d565b91505092915050565b600060208284031215613ef457600080fd5b6000613f0284828501613a37565b91505092915050565b60008060408385031215613f1e57600080fd5b6000613f2c85828601613a37565b9250506020613f3d85828601613a37565b9150509250929050565b6000613f5383836144ef565b60208301905092915050565b613f6881614cdd565b82525050565b6000613f7982614b51565b613f838185614b7f565b9350613f8e83614b2c565b8060005b83811015613fbf578151613fa68882613f47565b9750613fb183614b72565b925050600181019050613f92565b5085935050505092915050565b613fd581614cef565b82525050565b613fe481614cfb565b82525050565b6000613ff582614b5c565b613fff8185614b90565b935061400f818560208601614d81565b61401881614f4d565b840191505092915050565b600061402e82614b67565b6140388185614bac565b9350614048818560208601614d81565b61405181614f4d565b840191505092915050565b600061406782614b67565b6140718185614bbd565b9350614081818560208601614d81565b80840191505092915050565b6000815461409a81614db4565b6140a48186614bbd565b945060018216600081146140bf57600181146140d057614103565b60ff19831686528186019350614103565b6140d985614b3c565b60005b838110156140fb578154818901526001820191506020810190506140dc565b838801955050505b50505092915050565b6000614119601883614bac565b915061412482614f5e565b602082019050919050565b600061413c601e83614bac565b915061414782614f87565b602082019050919050565b600061415f601a83614bac565b915061416a82614fb0565b602082019050919050565b6000614182603283614bac565b915061418d82614fd9565b604082019050919050565b60006141a5602683614bac565b91506141b082615028565b604082019050919050565b60006141c8602583614bac565b91506141d382615077565b604082019050919050565b60006141eb601c83614bac565b91506141f6826150c6565b602082019050919050565b600061420e602e83614bac565b9150614219826150ef565b604082019050919050565b6000614231602483614bac565b915061423c8261513e565b604082019050919050565b6000614254601983614bac565b915061425f8261518d565b602082019050919050565b6000614277602983614bac565b9150614282826151b6565b604082019050919050565b600061429a602e83614bac565b91506142a582615205565b604082019050919050565b60006142bd601d83614bac565b91506142c882615254565b602082019050919050565b60006142e0603e83614bac565b91506142eb8261527d565b604082019050919050565b6000614303602083614bac565b915061430e826152cc565b602082019050919050565b6000614326601e83614bac565b9150614331826152f5565b602082019050919050565b6000614349601e83614bac565b91506143548261531e565b602082019050919050565b600061436c602083614bac565b915061437782615347565b602082019050919050565b600061438f602f83614bac565b915061439a82615370565b604082019050919050565b60006143b2601983614bac565b91506143bd826153bf565b602082019050919050565b60006143d5601e83614bac565b91506143e0826153e8565b602082019050919050565b60006143f8601783614bac565b915061440382615411565b602082019050919050565b600061441b601883614bac565b91506144268261543a565b602082019050919050565b600061443e602183614bac565b915061444982615463565b604082019050919050565b6000614461601e83614bac565b915061446c826154b2565b602082019050919050565b6000614484602683614bac565b915061448f826154db565b604082019050919050565b60006144a7600083614ba1565b91506144b28261552a565b600082019050919050565b60006144ca602e83614bac565b91506144d58261552d565b604082019050919050565b6144e981614d60565b82525050565b6144f881614d56565b82525050565b61450781614d56565b82525050565b6000614519828661405c565b9150614525828561405c565b9150614531828461408d565b9150819050949350505050565b60006145498261449a565b9150819050919050565b60006020820190506145686000830184613f5f565b92915050565b60006080820190506145836000830187613f5f565b6145906020830186613f5f565b61459d60408301856144fe565b81810360608301526145af8184613fea565b905095945050505050565b60006040820190506145cf6000830185613f5f565b81810360208301526145e18184613f6e565b90509392505050565b60006060820190506145ff6000830186613f5f565b81810360208301526146118185613f6e565b905061462060408301846144fe565b949350505050565b600060408201905061463d6000830185613f5f565b61464a60208301846144fe565b9392505050565b60006020820190506146666000830184613fcc565b92915050565b60006020820190506146816000830184613fdb565b92915050565b600060208201905081810360008301526146a18184614023565b905092915050565b600060208201905081810360008301526146c28161410c565b9050919050565b600060208201905081810360008301526146e28161412f565b9050919050565b6000602082019050818103600083015261470281614152565b9050919050565b6000602082019050818103600083015261472281614175565b9050919050565b6000602082019050818103600083015261474281614198565b9050919050565b60006020820190508181036000830152614762816141bb565b9050919050565b60006020820190508181036000830152614782816141de565b9050919050565b600060208201905081810360008301526147a281614201565b9050919050565b600060208201905081810360008301526147c281614224565b9050919050565b600060208201905081810360008301526147e281614247565b9050919050565b600060208201905081810360008301526148028161426a565b9050919050565b600060208201905081810360008301526148228161428d565b9050919050565b60006020820190508181036000830152614842816142b0565b9050919050565b60006020820190508181036000830152614862816142d3565b9050919050565b60006020820190508181036000830152614882816142f6565b9050919050565b600060208201905081810360008301526148a281614319565b9050919050565b600060208201905081810360008301526148c28161433c565b9050919050565b600060208201905081810360008301526148e28161435f565b9050919050565b6000602082019050818103600083015261490281614382565b9050919050565b60006020820190508181036000830152614922816143a5565b9050919050565b60006020820190508181036000830152614942816143c8565b9050919050565b60006020820190508181036000830152614962816143eb565b9050919050565b600060208201905081810360008301526149828161440e565b9050919050565b600060208201905081810360008301526149a281614431565b9050919050565b600060208201905081810360008301526149c281614454565b9050919050565b600060208201905081810360008301526149e281614477565b9050919050565b60006020820190508181036000830152614a02816144bd565b9050919050565b6000604082019050614a1e60008301856144e0565b614a2b60208301846144fe565b9392505050565b6000602082019050614a4760008301846144fe565b92915050565b6000614a57614a68565b9050614a638282614de6565b919050565b6000604051905090565b600067ffffffffffffffff821115614a8d57614a8c614f1e565b5b602082029050602081019050919050565b600067ffffffffffffffff821115614ab957614ab8614f1e565b5b602082029050602081019050919050565b600067ffffffffffffffff821115614ae557614ae4614f1e565b5b614aee82614f4d565b9050602081019050919050565b600067ffffffffffffffff821115614b1657614b15614f1e565b5b614b1f82614f4d565b9050602081019050919050565b6000819050602082019050919050565b60008190508160005260206000209050919050565b600081519050919050565b600081519050919050565b600081519050919050565b6000602082019050919050565b600082825260208201905092915050565b600082825260208201905092915050565b600081905092915050565b600082825260208201905092915050565b600081905092915050565b6000614bd382614d56565b9150614bde83614d56565b9250827fffffffffffffffffffffffffffffffffffffffffffffffffffffffffffffffff03821115614c1357614c12614e91565b5b828201905092915050565b6000614c2982614d56565b9150614c3483614d56565b925082614c4457614c43614ec0565b5b828204905092915050565b6000614c5a82614d56565b9150614c6583614d56565b9250817fffffffffffffffffffffffffffffffffffffffffffffffffffffffffffffffff0483118215151615614c9e57614c9d614e91565b5b828202905092915050565b6000614cb482614d56565b9150614cbf83614d56565b925082821015614cd257614cd1614e91565b5b828203905092915050565b6000614ce882614d27565b9050919050565b60008115159050919050565b60007fffffffff0000000000000000000000000000000000000000000000000000000082169050919050565b600073ffffffffffffffffffffffffffffffffffffffff82169050919050565b600062ffffff82169050919050565b6000819050919050565b6000614d6b82614d47565b9050919050565b82818337600083830152505050565b60005b83811015614d9f578082015181840152602081019050614d84565b83811115614dae576000848401525b50505050565b60006002820490506001821680614dcc57607f821691505b60208210811415614de057614ddf614eef565b5b50919050565b614def82614f4d565b810181811067ffffffffffffffff82111715614e0e57614e0d614f1e565b5b80604052505050565b6000614e2282614d56565b91507fffffffffffffffffffffffffffffffffffffffffffffffffffffffffffffffff821415614e5557614e54614e91565b5b600182019050919050565b6000614e6b82614d56565b9150614e7683614d56565b925082614e8657614e85614ec0565b5b828206905092915050565b7f4e487b7100000000000000000000000000000000000000000000000000000000600052601160045260246000fd5b7f4e487b7100000000000000000000000000000000000000000000000000000000600052601260045260246000fd5b7f4e487b7100000000000000000000000000000000000000000000000000000000600052602260045260246000fd5b7f4e487b7100000000000000000000000000000000000000000000000000000000600052604160045260246000fd5b6000601f19601f8301169050919050565b7f4b495031373a206e6f6e6578697374656e7420746f6b656e0000000000000000600082015250565b7f416e64547265654d6574613a206e6f6e6578697374656e7420746f6b656e0000600082015250565b7f45524332393831526f79616c746965733a20546f6f2068696768000000000000600082015250565b7f4552433732313a207472616e7366657220746f206e6f6e20455243373231526560008201527f63656976657220696d706c656d656e7465720000000000000000000000000000602082015250565b7f4f776e61626c653a206e6577206f776e657220697320746865207a65726f206160008201527f6464726573730000000000000000000000000000000000000000000000000000602082015250565b7f4552433732313a207472616e736665722066726f6d20696e636f72726563742060008201527f6f776e6572000000000000000000000000000000000000000000000000000000602082015250565b7f4552433732313a20746f6b656e20616c7265616479206d696e74656400000000600082015250565b7f416e64547265654d6574613a205468697320697320616e204e4654207468617460008201527f20686173206265656e20736f6c64000000000000000000000000000000000000602082015250565b7f4552433732313a207472616e7366657220746f20746865207a65726f2061646460008201527f7265737300000000000000000000000000000000000000000000000000000000602082015250565b7f4552433732313a20617070726f766520746f2063616c6c657200000000000000600082015250565b7f4552433732313a2061646472657373207a65726f206973206e6f74206120766160008201527f6c6964206f776e65720000000000000000000000000000000000000000000000602082015250565b7f45524337323155524953746f726167653a2055524920736574206f66206e6f6e60008201527f6578697374656e7420746f6b656e000000000000000000000000000000000000602082015250565b7f4554482073616c655072696365207472616e73666572206661696c6564000000600082015250565b7f4552433732313a20617070726f76652063616c6c6572206973206e6f7420746f60008201527f6b656e206f776e6572206e6f7220617070726f76656420666f7220616c6c0000602082015250565b7f4552433732313a206d696e7420746f20746865207a65726f2061646472657373600082015250565b7f45544820726f79616c7479466565207472616e73666572206661696c65640000600082015250565b7f4552433732313a20417272617973206c656e677468206d69736d617463680000600082015250565b7f4f776e61626c653a2063616c6c6572206973206e6f7420746865206f776e6572600082015250565b7f4552433732314d657461646174613a2055524920717565727920666f72206e6f60008201527f6e6578697374656e7420746f6b656e0000000000000000000000000000000000602082015250565b7f4552433732313a206e6f6e6578697374656e7420746f6b656e00000000000000600082015250565b7f416e64547265654d6574613a206e6f7420656e6f756768206d6f6e6579320000600082015250565b7f45544820666565207472616e73666572206661696c6564000000000000000000600082015250565b7f4552433732313a20696e76616c696420746f6b656e2049440000000000000000600082015250565b7f4552433732313a20617070726f76616c20746f2063757272656e74206f776e6560008201527f7200000000000000000000000000000000000000000000000000000000000000602082015250565b7f416e64547265654d6574613a206e6f7420656e6f756768206d6f6e6579310000600082015250565b7f4f6e6c7920746865206f776e65722063616e207472616e73666572207468697360008201527f20746f6b656e0000000000000000000000000000000000000000000000000000602082015250565b50565b7f4552433732313a2063616c6c6572206973206e6f7420746f6b656e206f776e6560008201527f72206e6f7220617070726f766564000000000000000000000000000000000000602082015250565b61558581614cdd565b811461559057600080fd5b50565b61559c81614cef565b81146155a757600080fd5b50565b6155b381614cfb565b81146155be57600080fd5b50565b6155ca81614d56565b81146155d557600080fd5b5056fea264697066735822122050c0df8f40de6781a7b2837e8bd0aa4cdcb7c1161a5af1ba34e8daaa36a3192a64736f6c63430008040033",
  "immutableReferences": {},
  "source": "// SPDX-License-Identifier: MIT\npragma solidity ^0.8.4;\n\nimport \"@openzeppelin/contracts/token/ERC721/ERC721.sol\";\nimport \"@openzeppelin/contracts/access/Ownable.sol\";\nimport \"@openzeppelin/contracts/utils/Counters.sol\";\nimport \"@openzeppelin/contracts/token/ERC721/utils/ERC721Holder.sol\";\nimport \"@openzeppelin/contracts/token/ERC721/extensions/ERC721URIStorage.sol\";\nimport \"../EIP2981-implementation-main/contracts/ERC2981PerTokenRoyalties.sol\";\nimport \"../EIP2981-implementation-main/contracts/mocks/ERC1155WithRoyalties.sol\";\n\n\ncontract MyToken is Ownable, ERC2981PerTokenRoyalties,ERC721URIStorage, ERC721Holder {\n    using Counters for Counters.Counter;\n    string public fileExtention = \".json\";\n    using Strings for uint256;\n    string private tokenURL;\n    uint256[] private tokenIds;\n    address[] private royaltyFrom;\n    address private compeny;\n    uint256 tokenId;\n    uint256 public allFee; // 10% == 10, 20% == 5 \n\n    struct SallerInfo{\n        address owner;\n        uint256 price;\n    }\n\n    mapping(uint256 => SallerInfo) public sallerOwner;\n\n    Counters.Counter private _tokenIdCounter;\n\n    event NftSale(address to, uint256[] tokenIds);\n    event KlayNftSale(address to, uint256 tokenIds, uint256 price);\n    event KlayBatchNftSale(address to, uint256[] tokenIds, uint256 totalPrice);\n    event RoyaltValues(uint256 royaltyFee, uint256 royaltyPrice);\n\n    constructor() ERC721(\"MyToken\", \"MTK\") {\n        tokenIds.push(0);\n        compeny = msg.sender;\n        allFee = 1000;\n        setApprovalForAll(address(this),true);\n    }\n\n    modifier isNftOwner(\n        uint256[] memory _tokenIds,\n        address _from\n    ) \n    {\n        for (uint i = 0; i < _tokenIds.length; i++) {\n            require(\n                ownerOf(_tokenIds[i]) == _from,\n                \"Only the owner can transfer this token\"\n            );\n        }\n        _;\n    }\n\n    function supportsInterface(bytes4 interfaceId) public view virtual override(ERC721, ERC2981Base) returns (bool) {\n        return super.supportsInterface(interfaceId);\n    }\n\n    function setTokenURI(string memory _batchUri) public onlyOwner{\n        tokenURL = _batchUri;\n    }\n\n    function setBatchUri() public view returns(string memory){\n        return tokenURL;\n    }\n\n    // Check Writer Royalty\n    function royalty(uint256 tokenid, uint256 price) private view returns(address to,uint256 ro){\n        RoyaltyInfo memory royalties = _royalties[tokenid];\n        address receiver = royalties.recipient;\n        uint256 royaltyAmount = (price * royalties.amount) / 10000;\n        return (receiver,royaltyAmount);\n    }\n\n    function safeMint(address to) public onlyOwner {\n        tokenId = _tokenIdCounter.current();\n        _tokenIdCounter.increment();\n        _safeMint(to, tokenId);\n        string memory tokenURIs = tokenURI(tokenId);\n        _setTokenURI(tokenId, tokenURIs);\n        \n    }\n\n    function ETHRoyaltySafeMint(address to, uint256 price, address royaltyRecipients, uint256 royaltyValues) public onlyOwner {\n        tokenId = _tokenIdCounter.current();\n        _tokenIdCounter.increment();\n        _safeMint(to, tokenId);\n        string memory tokenURIs = tokenURI(tokenId);\n        _setTokenURI(tokenId, tokenURIs);\n        tokenIds.push(tokenId);\n        _setTokenRoyalty\n        (\n            tokenId,\n            royaltyRecipients,\n            royaltyValues\n        );\n        SallerInfo memory saller;\n        saller.owner = msg.sender;\n        saller.price = price;\n        sallerOwner[tokenId] = saller;\n    }\n\n      function tokenURI(uint256 _tokenId) public view virtual override returns (string memory) {\n        require(_exists(_tokenId), \"ERC721Metadata: URI query for nonexistent token\");\n        string memory baseURI = setBatchUri();\n        return bytes(baseURI).length > 0 ? string(abi.encodePacked(baseURI, _tokenId.toString(), fileExtention)) : \"\";\n    }\n\n    function batchMint(address to, uint amount) public onlyOwner{\n        for (uint i = 0; i < amount; i++) {\n            safeMint(to);\n        }\n    }\n\n    function changePrice(\n        address _to,\n        uint256[] memory _tokenIds,\n        uint256[] memory _rePrices\n    )\n    isNftOwner(_tokenIds,_to)\n    public\n    onlyOwner\n    {\n        for (uint i = 0; i < _rePrices.length; i++) {\n            SallerInfo storage saller = sallerOwner[_tokenIds[i]];\n            saller.price = _rePrices[i];\n            saller.owner = _to;\n        }\n    }\n\n    function batchTransferFrom(address from, address to, uint256[] memory ids) private {\n        for (uint i = 0; i < ids.length; i++){\n            require(_exists(ids[i]), \"ERC721: nonexistent token\");\n            safeTransferFrom(from,to,ids[i]);\n        }\n        emit NftSale(to, ids);\n    }\n\n    function ownerBatchTransferFrom(address from, address to, uint256[] memory ids) public onlyOwner {\n        for (uint i = 0; i < ids.length; i++){\n            require(_exists(ids[i]), \"KIP17: nonexistent token\");\n            safeTransferFrom(from,to,ids[i]);\n        }\n        emit NftSale(to, ids);\n    }\n\n    function tradeBatchTransferFrom(address _from, address _to, uint256[] memory _tokenIds) public onlyOwner{\n        batchTransferFrom(_from, compeny, _tokenIds);\n        batchTransferFrom(compeny, _to, _tokenIds);\n        emit NftSale(_from, _tokenIds);\n    }\n\n    function ETHBatchMint(address to, uint amount, address[] memory royaltyRecipients, uint256[] memory royaltyValues, uint256[] memory price) public onlyOwner{\n        \n        require(price.length == amount , \"ERC721: Arrays length mismatch\");\n\n        require(amount == royaltyRecipients.length &&\n                amount == royaltyValues.length,\n                'ERC721: Arrays length mismatch');\n        \n        for (uint i = 0; i < amount; i++) {\n            ETHRoyaltySafeMint(to,price[i],royaltyRecipients[i],royaltyValues[i]);\n        }\n\n    }\n\n    function ETHBatchTransferFrom(address from, address to, uint256[] memory ids) public payable {\n        uint256 checkPrice;\n        SallerInfo memory saller;\n        \n        for(uint256 j; j<ids.length; j++){\n            saller = sallerOwner[ids[j]];\n            checkPrice = saller.price + (saller.price * allFee / 10000);\n            require(ownerOf(ids[j]) == compeny,\"AndTreeMeta: This is an NFT that has been sold\");\n        }\n\n        require(msg.value == checkPrice, \"AndTreeMeta: not enough money1\");\n        \n        for (uint i = 0; i < ids.length; i++){\n\n            require(_exists(ids[i]), \"AndTreeMeta: nonexistent token\");\n            saller = sallerOwner[ids[i]];\n            RoyaltyInfo memory royalties = _royalties[ids[i]];\n            address writerFrom;\n            uint256 price; \n            uint256 fee = saller.price * allFee / 10000;\n            (writerFrom,price) = royalty(ids[i],saller.price);\n            uint256 salePrices = saller.price - price;\n\n            // Writer\n            (bool Writercheck ,) = payable(from).call{value : price}(\"\");\n            require(Writercheck,\"ETH royaltyFee transfer failed\");\n            // saller\n            (bool sallerCheck ,) = payable(saller.owner).call{value : salePrices}(\"\");\n            require(sallerCheck,\"ETH salePrice transfer failed\");\n            // compeny\n            (bool compenyCheck ,) = payable(compeny).call{value : fee}(\"\");\n            require(compenyCheck,\"ETH fee transfer failed\");\n            emit RoyaltValues(royalties.amount, price);\n\n            safeTransferFrom(from,to,ids[i]);\n            emit RoyaltValues(royalties.amount, price);\n        }\n        emit KlayBatchNftSale(to,ids,checkPrice);\n    }\n\n    function ETHTradeBatchTransferFrom(address _from, uint256[] memory _tokenIds) public payable{\n        uint256 checkPrice;\n        SallerInfo memory saller;\n        \n        for(uint256 j; j<_tokenIds.length; j++){\n            saller = sallerOwner[_tokenIds[j]];\n            checkPrice = saller.price + (saller.price * allFee / 10000);\n        }\n\n        require(msg.value == checkPrice, \"AndTreeMeta: not enough money2\");\n        \n        batchTransferFrom(_from, compeny, _tokenIds);\n        ETHBatchTransferFrom(compeny, msg.sender, _tokenIds);\n    }\n\n    function getToken() public view returns(uint256){\n        return tokenIds.length - 1;\n    }\n\n    function recentTokenId() public view returns(uint256){\n        uint256 max = tokenIds[0];\n        for(uint256 i=1; i<tokenIds.length; i++){\n                if(tokenIds[i] > max)\n                    max = tokenIds[i];\n        }\n        return max;\n    }\n\n    function checkApproval(address operator) public view returns(bool){\n        bool check = isApprovedForAll(compeny,operator);\n        return check;\n\n    }\n\n    function setFee(uint256 fee) public onlyOwner {\n        allFee = fee;\n    }\n}",
  "sourcePath": "/Users/minmac/Documents/work/solidity/contracts/createNft.sol",
  "compiler": {
    "name": "solc",
    "version": "0.8.4+commit.c7e474f2.Emscripten.clang"
  },
  "schemaVersion": "3.4.8",
  "updatedAt": "2022-07-06T07:45:44.731Z",
  "networkType": "ethereum",
  "devdoc": {
    "kind": "dev",
    "methods": {
      "approve(address,uint256)": {
        "details": "See {IERC721-approve}."
      },
      "balanceOf(address)": {
        "details": "See {IERC721-balanceOf}."
      },
      "getApproved(uint256)": {
        "details": "See {IERC721-getApproved}."
      },
      "isApprovedForAll(address,address)": {
        "details": "See {IERC721-isApprovedForAll}."
      },
      "name()": {
        "details": "See {IERC721Metadata-name}."
      },
      "onERC721Received(address,address,uint256,bytes)": {
        "details": "See {IERC721Receiver-onERC721Received}. Always returns `IERC721Receiver.onERC721Received.selector`."
      },
      "owner()": {
        "details": "Returns the address of the current owner."
      },
      "ownerOf(uint256)": {
        "details": "See {IERC721-ownerOf}."
      },
      "renounceOwnership()": {
        "details": "Leaves the contract without owner. It will not be possible to call `onlyOwner` functions anymore. Can only be called by the current owner. NOTE: Renouncing ownership will leave the contract without an owner, thereby removing any functionality that is only available to the owner."
      },
      "royaltyInfo(uint256,uint256)": {
        "params": {
          "_tokenId": "- the NFT asset queried for royalty information",
          "_value": "- the sale price of the NFT asset specified by _tokenId"
        },
        "returns": {
          "receiver": "- address of who should be sent the royalty payment",
          "royaltyAmount": "- the royalty payment amount for value sale price"
        }
      },
      "safeTransferFrom(address,address,uint256)": {
        "details": "See {IERC721-safeTransferFrom}."
      },
      "safeTransferFrom(address,address,uint256,bytes)": {
        "details": "See {IERC721-safeTransferFrom}."
      },
      "setApprovalForAll(address,bool)": {
        "details": "See {IERC721-setApprovalForAll}."
      },
      "symbol()": {
        "details": "See {IERC721Metadata-symbol}."
      },
      "transferFrom(address,address,uint256)": {
        "details": "See {IERC721-transferFrom}."
      },
      "transferOwnership(address)": {
        "details": "Transfers ownership of the contract to a new account (`newOwner`). Can only be called by the current owner."
      }
    },
    "version": 1
  },
  "userdoc": {
    "kind": "user",
    "methods": {},
    "version": 1
  }
}