{
  "contractName": "MyToken",
  "abi": [
    {
      "inputs": [],
      "stateMutability": "nonpayable",
      "type": "constructor"
    },
    {
      "anonymous": false,
      "inputs": [
        {
          "indexed": true,
          "internalType": "address",
          "name": "owner",
          "type": "address"
        },
        {
          "indexed": true,
          "internalType": "address",
          "name": "approved",
          "type": "address"
        },
        {
          "indexed": true,
          "internalType": "uint256",
          "name": "tokenId",
          "type": "uint256"
        }
      ],
      "name": "Approval",
      "type": "event"
    },
    {
      "anonymous": false,
      "inputs": [
        {
          "indexed": true,
          "internalType": "address",
          "name": "owner",
          "type": "address"
        },
        {
          "indexed": true,
          "internalType": "address",
          "name": "operator",
          "type": "address"
        },
        {
          "indexed": false,
          "internalType": "bool",
          "name": "approved",
          "type": "bool"
        }
      ],
      "name": "ApprovalForAll",
      "type": "event"
    },
    {
      "anonymous": false,
      "inputs": [
        {
          "indexed": false,
          "internalType": "address",
          "name": "to",
          "type": "address"
        },
        {
          "indexed": false,
          "internalType": "uint256[]",
          "name": "tokenIds",
          "type": "uint256[]"
        },
        {
          "indexed": false,
          "internalType": "uint256",
          "name": "totalPrice",
          "type": "uint256"
        }
      ],
      "name": "KlayBatchNftSale",
      "type": "event"
    },
    {
      "anonymous": false,
      "inputs": [
        {
          "indexed": false,
          "internalType": "address",
          "name": "to",
          "type": "address"
        },
        {
          "indexed": false,
          "internalType": "uint256",
          "name": "tokenIds",
          "type": "uint256"
        },
        {
          "indexed": false,
          "internalType": "uint256",
          "name": "price",
          "type": "uint256"
        }
      ],
      "name": "KlayNftSale",
      "type": "event"
    },
    {
      "anonymous": false,
      "inputs": [
        {
          "indexed": false,
          "internalType": "address",
          "name": "to",
          "type": "address"
        },
        {
          "indexed": false,
          "internalType": "uint256[]",
          "name": "tokenIds",
          "type": "uint256[]"
        }
      ],
      "name": "NftSale",
      "type": "event"
    },
    {
      "anonymous": false,
      "inputs": [
        {
          "indexed": true,
          "internalType": "address",
          "name": "previousOwner",
          "type": "address"
        },
        {
          "indexed": true,
          "internalType": "address",
          "name": "newOwner",
          "type": "address"
        }
      ],
      "name": "OwnershipTransferred",
      "type": "event"
    },
    {
      "anonymous": false,
      "inputs": [
        {
          "indexed": false,
          "internalType": "uint256",
          "name": "royaltyFee",
          "type": "uint256"
        },
        {
          "indexed": false,
          "internalType": "uint256",
          "name": "royaltyPrice",
          "type": "uint256"
        }
      ],
      "name": "RoyaltValues",
      "type": "event"
    },
    {
      "anonymous": false,
      "inputs": [
        {
          "indexed": true,
          "internalType": "address",
          "name": "from",
          "type": "address"
        },
        {
          "indexed": true,
          "internalType": "address",
          "name": "to",
          "type": "address"
        },
        {
          "indexed": true,
          "internalType": "uint256",
          "name": "tokenId",
          "type": "uint256"
        }
      ],
      "name": "Transfer",
      "type": "event"
    },
    {
      "inputs": [],
      "name": "allFee",
      "outputs": [
        {
          "internalType": "uint256",
          "name": "",
          "type": "uint256"
        }
      ],
      "stateMutability": "view",
      "type": "function"
    },
    {
      "inputs": [
        {
          "internalType": "address",
          "name": "to",
          "type": "address"
        },
        {
          "internalType": "uint256",
          "name": "tokenId",
          "type": "uint256"
        }
      ],
      "name": "approve",
      "outputs": [],
      "stateMutability": "nonpayable",
      "type": "function"
    },
    {
      "inputs": [
        {
          "internalType": "address",
          "name": "owner",
          "type": "address"
        }
      ],
      "name": "balanceOf",
      "outputs": [
        {
          "internalType": "uint256",
          "name": "",
          "type": "uint256"
        }
      ],
      "stateMutability": "view",
      "type": "function"
    },
    {
      "inputs": [],
      "name": "fileExtention",
      "outputs": [
        {
          "internalType": "string",
          "name": "",
          "type": "string"
        }
      ],
      "stateMutability": "view",
      "type": "function"
    },
    {
      "inputs": [
        {
          "internalType": "uint256",
          "name": "tokenId",
          "type": "uint256"
        }
      ],
      "name": "getApproved",
      "outputs": [
        {
          "internalType": "address",
          "name": "",
          "type": "address"
        }
      ],
      "stateMutability": "view",
      "type": "function"
    },
    {
      "inputs": [
        {
          "internalType": "address",
          "name": "owner",
          "type": "address"
        },
        {
          "internalType": "address",
          "name": "operator",
          "type": "address"
        }
      ],
      "name": "isApprovedForAll",
      "outputs": [
        {
          "internalType": "bool",
          "name": "",
          "type": "bool"
        }
      ],
      "stateMutability": "view",
      "type": "function"
    },
    {
      "inputs": [],
      "name": "name",
      "outputs": [
        {
          "internalType": "string",
          "name": "",
          "type": "string"
        }
      ],
      "stateMutability": "view",
      "type": "function"
    },
    {
      "inputs": [
        {
          "internalType": "address",
          "name": "",
          "type": "address"
        },
        {
          "internalType": "address",
          "name": "",
          "type": "address"
        },
        {
          "internalType": "uint256",
          "name": "",
          "type": "uint256"
        },
        {
          "internalType": "bytes",
          "name": "",
          "type": "bytes"
        }
      ],
      "name": "onERC721Received",
      "outputs": [
        {
          "internalType": "bytes4",
          "name": "",
          "type": "bytes4"
        }
      ],
      "stateMutability": "nonpayable",
      "type": "function"
    },
    {
      "inputs": [],
      "name": "owner",
      "outputs": [
        {
          "internalType": "address",
          "name": "",
          "type": "address"
        }
      ],
      "stateMutability": "view",
      "type": "function"
    },
    {
      "inputs": [
        {
          "internalType": "uint256",
          "name": "tokenId",
          "type": "uint256"
        }
      ],
      "name": "ownerOf",
      "outputs": [
        {
          "internalType": "address",
          "name": "",
          "type": "address"
        }
      ],
      "stateMutability": "view",
      "type": "function"
    },
    {
      "inputs": [],
      "name": "renounceOwnership",
      "outputs": [],
      "stateMutability": "nonpayable",
      "type": "function"
    },
    {
      "inputs": [
        {
          "internalType": "uint256",
          "name": "tokenId",
          "type": "uint256"
        },
        {
          "internalType": "uint256",
          "name": "value",
          "type": "uint256"
        }
      ],
      "name": "royaltyInfo",
      "outputs": [
        {
          "internalType": "address",
          "name": "receiver",
          "type": "address"
        },
        {
          "internalType": "uint256",
          "name": "royaltyAmount",
          "type": "uint256"
        }
      ],
      "stateMutability": "view",
      "type": "function"
    },
    {
      "inputs": [
        {
          "internalType": "address",
          "name": "from",
          "type": "address"
        },
        {
          "internalType": "address",
          "name": "to",
          "type": "address"
        },
        {
          "internalType": "uint256",
          "name": "tokenId",
          "type": "uint256"
        }
      ],
      "name": "safeTransferFrom",
      "outputs": [],
      "stateMutability": "nonpayable",
      "type": "function"
    },
    {
      "inputs": [
        {
          "internalType": "address",
          "name": "from",
          "type": "address"
        },
        {
          "internalType": "address",
          "name": "to",
          "type": "address"
        },
        {
          "internalType": "uint256",
          "name": "tokenId",
          "type": "uint256"
        },
        {
          "internalType": "bytes",
          "name": "data",
          "type": "bytes"
        }
      ],
      "name": "safeTransferFrom",
      "outputs": [],
      "stateMutability": "nonpayable",
      "type": "function"
    },
    {
      "inputs": [
        {
          "internalType": "uint256",
          "name": "",
          "type": "uint256"
        }
      ],
      "name": "sallerOwner",
      "outputs": [
        {
          "internalType": "address",
          "name": "owner",
          "type": "address"
        },
        {
          "internalType": "uint256",
          "name": "price",
          "type": "uint256"
        }
      ],
      "stateMutability": "view",
      "type": "function"
    },
    {
      "inputs": [
        {
          "internalType": "address",
          "name": "operator",
          "type": "address"
        },
        {
          "internalType": "bool",
          "name": "approved",
          "type": "bool"
        }
      ],
      "name": "setApprovalForAll",
      "outputs": [],
      "stateMutability": "nonpayable",
      "type": "function"
    },
    {
      "inputs": [],
      "name": "symbol",
      "outputs": [
        {
          "internalType": "string",
          "name": "",
          "type": "string"
        }
      ],
      "stateMutability": "view",
      "type": "function"
    },
    {
      "inputs": [
        {
          "internalType": "address",
          "name": "from",
          "type": "address"
        },
        {
          "internalType": "address",
          "name": "to",
          "type": "address"
        },
        {
          "internalType": "uint256",
          "name": "tokenId",
          "type": "uint256"
        }
      ],
      "name": "transferFrom",
      "outputs": [],
      "stateMutability": "nonpayable",
      "type": "function"
    },
    {
      "inputs": [
        {
          "internalType": "address",
          "name": "newOwner",
          "type": "address"
        }
      ],
      "name": "transferOwnership",
      "outputs": [],
      "stateMutability": "nonpayable",
      "type": "function"
    },
    {
      "inputs": [
        {
          "internalType": "bytes4",
          "name": "interfaceId",
          "type": "bytes4"
        }
      ],
      "name": "supportsInterface",
      "outputs": [
        {
          "internalType": "bool",
          "name": "",
          "type": "bool"
        }
      ],
      "stateMutability": "view",
      "type": "function"
    },
    {
      "inputs": [
        {
          "internalType": "string",
          "name": "_batchUri",
          "type": "string"
        }
      ],
      "name": "setTokenURI",
      "outputs": [],
      "stateMutability": "nonpayable",
      "type": "function"
    },
    {
      "inputs": [],
      "name": "setBatchUri",
      "outputs": [
        {
          "internalType": "string",
          "name": "",
          "type": "string"
        }
      ],
      "stateMutability": "view",
      "type": "function"
    },
    {
      "inputs": [
        {
          "internalType": "address",
          "name": "to",
          "type": "address"
        }
      ],
      "name": "safeMint",
      "outputs": [],
      "stateMutability": "nonpayable",
      "type": "function"
    },
    {
      "inputs": [
        {
          "internalType": "address",
          "name": "to",
          "type": "address"
        },
        {
          "internalType": "uint256",
          "name": "price",
          "type": "uint256"
        },
        {
          "internalType": "address",
          "name": "royaltyRecipients",
          "type": "address"
        },
        {
          "internalType": "uint256",
          "name": "royaltyValues",
          "type": "uint256"
        }
      ],
      "name": "ETHRoyaltySafeMint",
      "outputs": [],
      "stateMutability": "nonpayable",
      "type": "function"
    },
    {
      "inputs": [
        {
          "internalType": "uint256",
          "name": "_tokenId",
          "type": "uint256"
        }
      ],
      "name": "tokenURI",
      "outputs": [
        {
          "internalType": "string",
          "name": "",
          "type": "string"
        }
      ],
      "stateMutability": "view",
      "type": "function"
    },
    {
      "inputs": [
        {
          "internalType": "address",
          "name": "to",
          "type": "address"
        },
        {
          "internalType": "uint256",
          "name": "amount",
          "type": "uint256"
        }
      ],
      "name": "batchMint",
      "outputs": [],
      "stateMutability": "nonpayable",
      "type": "function"
    },
    {
      "inputs": [
        {
          "internalType": "address",
          "name": "_to",
          "type": "address"
        },
        {
          "internalType": "uint256[]",
          "name": "_tokenIds",
          "type": "uint256[]"
        },
        {
          "internalType": "uint256[]",
          "name": "_rePrices",
          "type": "uint256[]"
        }
      ],
      "name": "changePrice",
      "outputs": [],
      "stateMutability": "nonpayable",
      "type": "function"
    },
    {
      "inputs": [
        {
          "internalType": "address",
          "name": "from",
          "type": "address"
        },
        {
          "internalType": "address",
          "name": "to",
          "type": "address"
        },
        {
          "internalType": "uint256[]",
          "name": "ids",
          "type": "uint256[]"
        }
      ],
      "name": "ownerBatchTransferFrom",
      "outputs": [],
      "stateMutability": "nonpayable",
      "type": "function"
    },
    {
      "inputs": [
        {
          "internalType": "address",
          "name": "_from",
          "type": "address"
        },
        {
          "internalType": "address",
          "name": "_to",
          "type": "address"
        },
        {
          "internalType": "uint256[]",
          "name": "_tokenIds",
          "type": "uint256[]"
        }
      ],
      "name": "tradeBatchTransferFrom",
      "outputs": [],
      "stateMutability": "nonpayable",
      "type": "function"
    },
    {
      "inputs": [
        {
          "internalType": "address",
          "name": "to",
          "type": "address"
        },
        {
          "internalType": "uint256",
          "name": "amount",
          "type": "uint256"
        },
        {
          "internalType": "address[]",
          "name": "royaltyRecipients",
          "type": "address[]"
        },
        {
          "internalType": "uint256[]",
          "name": "royaltyValues",
          "type": "uint256[]"
        },
        {
          "internalType": "uint256[]",
          "name": "price",
          "type": "uint256[]"
        }
      ],
      "name": "ETHBatchMint",
      "outputs": [],
      "stateMutability": "nonpayable",
      "type": "function"
    },
    {
      "inputs": [
        {
          "internalType": "address",
          "name": "from",
          "type": "address"
        },
        {
          "internalType": "address",
          "name": "to",
          "type": "address"
        },
        {
          "internalType": "uint256[]",
          "name": "ids",
          "type": "uint256[]"
        }
      ],
      "name": "ETHBatchTransferFrom",
      "outputs": [],
      "stateMutability": "payable",
      "type": "function"
    },
    {
      "inputs": [
        {
          "internalType": "address",
          "name": "_from",
          "type": "address"
        },
        {
          "internalType": "uint256[]",
          "name": "_tokenIds",
          "type": "uint256[]"
        }
      ],
      "name": "ETHTradeBatchTransferFrom",
      "outputs": [],
      "stateMutability": "payable",
      "type": "function"
    },
    {
      "inputs": [],
      "name": "getToken",
      "outputs": [
        {
          "internalType": "uint256",
          "name": "",
          "type": "uint256"
        }
      ],
      "stateMutability": "view",
      "type": "function"
    },
    {
      "inputs": [],
      "name": "totalSupply",
      "outputs": [
        {
          "internalType": "uint256",
          "name": "",
          "type": "uint256"
        }
      ],
      "stateMutability": "view",
      "type": "function"
    },
    {
      "inputs": [
        {
          "internalType": "address",
          "name": "operator",
          "type": "address"
        }
      ],
      "name": "checkApproval",
      "outputs": [
        {
          "internalType": "bool",
          "name": "",
          "type": "bool"
        }
      ],
      "stateMutability": "view",
      "type": "function"
    },
    {
      "inputs": [
        {
          "internalType": "uint256",
          "name": "fee",
          "type": "uint256"
        }
      ],
      "name": "setFee",
      "outputs": [],
      "stateMutability": "nonpayable",
      "type": "function"
    }
  ],
  "bytecode": "0x60806040526040518060400160405280600581526020017f2e6a736f6e000000000000000000000000000000000000000000000000000000815250600990805190602001906200005192919062000411565b503480156200005f57600080fd5b506040518060400160405280600781526020017f4d79546f6b656e000000000000000000000000000000000000000000000000008152506040518060400160405280600381526020017f4d544b0000000000000000000000000000000000000000000000000000000000815250620000ec620000e0620001ad60201b60201c565b620001b560201b60201c565b81600290805190602001906200010492919062000411565b5080600390805190602001906200011d92919062000411565b505050600b6000908060018154018082558091505060019003906000526020600020016000909190919091505533600d60006101000a81548173ffffffffffffffffffffffffffffffffffffffff021916908373ffffffffffffffffffffffffffffffffffffffff1602179055506103e8600f81905550620001a73060016200027960201b60201c565b620005e3565b600033905090565b60008060009054906101000a900473ffffffffffffffffffffffffffffffffffffffff169050816000806101000a81548173ffffffffffffffffffffffffffffffffffffffff021916908373ffffffffffffffffffffffffffffffffffffffff1602179055508173ffffffffffffffffffffffffffffffffffffffff168173ffffffffffffffffffffffffffffffffffffffff167f8be0079c531659141344cd1fd0a4f28419497f9722a3daafe3b4186f6b6457e060405160405180910390a35050565b6200029b6200028d620001ad60201b60201c565b83836200029f60201b60201c565b5050565b8173ffffffffffffffffffffffffffffffffffffffff168373ffffffffffffffffffffffffffffffffffffffff16141562000311576040517f08c379a0000000000000000000000000000000000000000000000000000000008152600401620003089062000516565b60405180910390fd5b80600760008573ffffffffffffffffffffffffffffffffffffffff1673ffffffffffffffffffffffffffffffffffffffff16815260200190815260200160002060008473ffffffffffffffffffffffffffffffffffffffff1673ffffffffffffffffffffffffffffffffffffffff16815260200190815260200160002060006101000a81548160ff0219169083151502179055508173ffffffffffffffffffffffffffffffffffffffff168373ffffffffffffffffffffffffffffffffffffffff167f17307eab39ab6107e8899845ad3d59bd9653f200f220920489ca2b5937696c3183604051620004049190620004f9565b60405180910390a3505050565b8280546200041f9062000555565b90600052602060002090601f0160209004810192826200044357600085556200048f565b82601f106200045e57805160ff19168380011785556200048f565b828001600101855582156200048f579182015b828111156200048e57825182559160200191906001019062000471565b5b5090506200049e9190620004a2565b5090565b5b80821115620004bd576000816000905550600101620004a3565b5090565b620004cc8162000549565b82525050565b6000620004e160198362000538565b9150620004ee82620005ba565b602082019050919050565b6000602082019050620005106000830184620004c1565b92915050565b600060208201905081810360008301526200053181620004d2565b9050919050565b600082825260208201905092915050565b60008115159050919050565b600060028204905060018216806200056e57607f821691505b602082108114156200058557620005846200058b565b5b50919050565b7f4e487b7100000000000000000000000000000000000000000000000000000000600052602260045260246000fd5b7f4552433732313a20617070726f766520746f2063616c6c657200000000000000600082015250565b6155fa80620005f36000396000f3fe60806040526004361061020f5760003560e01c8063715018a611610118578063b3a03616116100a0578063e0df5b6f1161006f578063e0df5b6f14610791578063e985e9c5146107ba578063ec29e26c146107f7578063f2fde38b14610834578063f83b7a221461085d5761020f565b8063b3a03616146106e6578063b88d4fde14610702578063c87b56dd1461072b578063da5b5800146107685761020f565b8063916bcca1116100e7578063916bcca11461060f57806395d89b411461062b578063a22cb46514610656578063a5f77aec1461067f578063a5fed13b146106a85761020f565b8063715018a6146105775780638d716b221461058e5780638da5cb5b146105b9578063901a7967146105e45761020f565b80632a55205a1161019b57806343508b051161016a57806343508b05146104825780635f5e2c03146104ab5780636352211e146104d457806369fe0e2d1461051157806370a082311461053a5761020f565b80632a55205a146103c7578063379f72071461040557806340d097c31461043057806342842e0e146104595761020f565b8063150b7a02116101e2578063150b7a02146102e257806318160ddd1461031f57806321df0da71461034a57806323b872dd1461037557806325e5481e1461039e5761020f565b806301ffc9a71461021457806306fdde0314610251578063081812fc1461027c578063095ea7b3146102b9575b600080fd5b34801561022057600080fd5b5061023b60048036038101906102369190613e3b565b610886565b604051610248919061463d565b60405180910390f35b34801561025d57600080fd5b50610266610898565b6040516102739190614673565b60405180910390f35b34801561028857600080fd5b506102a3600480360381019061029e9190613ece565b61092a565b6040516102b0919061453f565b60405180910390f35b3480156102c557600080fd5b506102e060048036038101906102db9190613cdd565b610970565b005b3480156102ee57600080fd5b5061030960048036038101906103049190613b53565b610a88565b6040516103169190614658565b60405180910390f35b34801561032b57600080fd5b50610334610a9c565b6040516103419190614a1e565b60405180910390f35b34801561035657600080fd5b5061035f610baa565b60405161036c9190614a1e565b60405180910390f35b34801561038157600080fd5b5061039c60048036038101906103979190613b04565b610bc3565b005b3480156103aa57600080fd5b506103c560048036038101906103c09190613d7c565b610c23565b005b3480156103d357600080fd5b506103ee60048036038101906103e99190613ef7565b610daf565b6040516103fc929190614614565b60405180910390f35b34801561041157600080fd5b5061041a610e80565b6040516104279190614a1e565b60405180910390f35b34801561043c57600080fd5b5061045760048036038101906104529190613a38565b610e86565b005b34801561046557600080fd5b50610480600480360381019061047b9190613b04565b610ed3565b005b34801561048e57600080fd5b506104a960048036038101906104a49190613cdd565b610ef3565b005b3480156104b757600080fd5b506104d260048036038101906104cd9190613c22565b610f27565b005b3480156104e057600080fd5b506104fb60048036038101906104f69190613ece565b611177565b604051610508919061453f565b60405180910390f35b34801561051d57600080fd5b5061053860048036038101906105339190613ece565b611229565b005b34801561054657600080fd5b50610561600480360381019061055c9190613a38565b61123b565b60405161056e9190614a1e565b60405180910390f35b34801561058357600080fd5b5061058c6112f3565b005b34801561059a57600080fd5b506105a3611307565b6040516105b09190614673565b60405180910390f35b3480156105c557600080fd5b506105ce611395565b6040516105db919061453f565b60405180910390f35b3480156105f057600080fd5b506105f96113be565b6040516106069190614673565b60405180910390f35b61062960048036038101906106249190613a9d565b611450565b005b34801561063757600080fd5b50610640611c90565b60405161064d9190614673565b60405180910390f35b34801561066257600080fd5b5061067d60048036038101906106789190613ca1565b611d22565b005b34801561068b57600080fd5b506106a660048036038101906106a19190613a9d565b611d38565b005b3480156106b457600080fd5b506106cf60048036038101906106ca9190613ece565b611e71565b6040516106dd929190614614565b60405180910390f35b61070060048036038101906106fb9190613bce565b611eb5565b005b34801561070e57600080fd5b5061072960048036038101906107249190613b53565b612071565b005b34801561073757600080fd5b50610752600480360381019061074d9190613ece565b6120d3565b60405161075f9190614673565b60405180910390f35b34801561077457600080fd5b5061078f600480360381019061078a9190613a9d565b61217d565b005b34801561079d57600080fd5b506107b860048036038101906107b39190613e8d565b61221d565b005b3480156107c657600080fd5b506107e160048036038101906107dc9190613a61565b61223f565b6040516107ee919061463d565b60405180910390f35b34801561080357600080fd5b5061081e60048036038101906108199190613a38565b6122d3565b60405161082b919061463d565b60405180910390f35b34801561084057600080fd5b5061085b60048036038101906108569190613a38565b61230d565b005b34801561086957600080fd5b50610884600480360381019061087f9190613d19565b612391565b005b6000610891826124ce565b9050919050565b6060600280546108a790614da0565b80601f01602080910402602001604051908101604052809291908181526020018280546108d390614da0565b80156109205780601f106108f557610100808354040283529160200191610920565b820191906000526020600020905b81548152906001019060200180831161090357829003601f168201915b5050505050905090565b6000610935826125b0565b6006600083815260200190815260200160002060009054906101000a900473ffffffffffffffffffffffffffffffffffffffff169050919050565b600061097b82611177565b90508073ffffffffffffffffffffffffffffffffffffffff168373ffffffffffffffffffffffffffffffffffffffff1614156109ec576040517f08c379a00000000000000000000000000000000000000000000000000000000081526004016109e390614975565b60405180910390fd5b8073ffffffffffffffffffffffffffffffffffffffff16610a0b6125fb565b73ffffffffffffffffffffffffffffffffffffffff161480610a3a5750610a3981610a346125fb565b61223f565b5b610a79576040517f08c379a0000000000000000000000000000000000000000000000000000000008152600401610a7090614855565b60405180910390fd5b610a838383612603565b505050565b600063150b7a0260e01b9050949350505050565b600080600b600081548110610ada577f4e487b7100000000000000000000000000000000000000000000000000000000600052603260045260246000fd5b906000526020600020015490506000600190505b600b80549050811015610ba25781600b8281548110610b36577f4e487b7100000000000000000000000000000000000000000000000000000000600052603260045260246000fd5b90600052602060002001541115610b8f57600b8181548110610b81577f4e487b7100000000000000000000000000000000000000000000000000000000600052603260045260246000fd5b906000526020600020015491505b8080610b9a90614e03565b915050610aee565b508091505090565b60006001600b80549050610bbe9190614c95565b905090565b610bd4610bce6125fb565b826126bc565b610c13576040517f08c379a0000000000000000000000000000000000000000000000000000000008152600401610c0a906149d5565b60405180910390fd5b610c1e838383612751565b505050565b610c2b6129b8565b83815114610c6e576040517f08c379a0000000000000000000000000000000000000000000000000000000008152600401610c65906148b5565b60405180910390fd5b825184148015610c7e5750815184145b610cbd576040517f08c379a0000000000000000000000000000000000000000000000000000000008152600401610cb4906148b5565b60405180910390fd5b60005b84811015610da757610d9486838381518110610d05577f4e487b7100000000000000000000000000000000000000000000000000000000600052603260045260246000fd5b6020026020010151868481518110610d46577f4e487b7100000000000000000000000000000000000000000000000000000000600052603260045260246000fd5b6020026020010151868581518110610d87577f4e487b7100000000000000000000000000000000000000000000000000000000600052603260045260246000fd5b6020026020010151612391565b8080610d9f90614e03565b915050610cc0565b505050505050565b6000806000600160008681526020019081526020016000206040518060400160405290816000820160009054906101000a900473ffffffffffffffffffffffffffffffffffffffff1673ffffffffffffffffffffffffffffffffffffffff1673ffffffffffffffffffffffffffffffffffffffff1681526020016000820160149054906101000a900462ffffff1662ffffff1662ffffff1681525050905080600001519250612710816020015162ffffff1685610e6c9190614c3b565b610e769190614c0a565b9150509250929050565b600f5481565b610e8e6129b8565b610e986011612a36565b600e81905550610ea86011612a44565b610eb481600e54612a5a565b6000610ec1600e546120d3565b9050610ecf600e5482612c34565b5050565b610eee83838360405180602001604052806000815250612071565b505050565b610efb6129b8565b60005b81811015610f2257610f0f83610e86565b8080610f1a90614e03565b915050610efe565b505050565b818360005b8251811015610ffe578173ffffffffffffffffffffffffffffffffffffffff16610f95848381518110610f88577f4e487b7100000000000000000000000000000000000000000000000000000000600052603260045260246000fd5b6020026020010151611177565b73ffffffffffffffffffffffffffffffffffffffff1614610feb576040517f08c379a0000000000000000000000000000000000000000000000000000000008152600401610fe2906149b5565b60405180910390fd5b8080610ff690614e03565b915050610f2c565b5060005b835181101561116f5760006010600087848151811061104a577f4e487b7100000000000000000000000000000000000000000000000000000000600052603260045260246000fd5b60200260200101518152602001908152602001600020905084828151811061109b577f4e487b7100000000000000000000000000000000000000000000000000000000600052603260045260246000fd5b60200260200101518160010181905550868160000160006101000a81548173ffffffffffffffffffffffffffffffffffffffff021916908373ffffffffffffffffffffffffffffffffffffffff16021790555061115b33600d60009054906101000a900473ffffffffffffffffffffffffffffffffffffffff1688858151811061114e577f4e487b7100000000000000000000000000000000000000000000000000000000600052603260045260246000fd5b6020026020010151610ed3565b50808061116790614e03565b915050611002565b505050505050565b6000806004600084815260200190815260200160002060009054906101000a900473ffffffffffffffffffffffffffffffffffffffff169050600073ffffffffffffffffffffffffffffffffffffffff168173ffffffffffffffffffffffffffffffffffffffff161415611220576040517f08c379a000000000000000000000000000000000000000000000000000000000815260040161121790614955565b60405180910390fd5b80915050919050565b6112316129b8565b80600f8190555050565b60008073ffffffffffffffffffffffffffffffffffffffff168273ffffffffffffffffffffffffffffffffffffffff1614156112ac576040517f08c379a00000000000000000000000000000000000000000000000000000000081526004016112a3906147f5565b60405180910390fd5b600560008373ffffffffffffffffffffffffffffffffffffffff1673ffffffffffffffffffffffffffffffffffffffff168152602001908152602001600020549050919050565b6112fb6129b8565b6113056000612ca8565b565b6009805461131490614da0565b80601f016020809104026020016040519081016040528092919081815260200182805461134090614da0565b801561138d5780601f106113625761010080835404028352916020019161138d565b820191906000526020600020905b81548152906001019060200180831161137057829003601f168201915b505050505081565b60008060009054906101000a900473ffffffffffffffffffffffffffffffffffffffff16905090565b6060600a80546113cd90614da0565b80601f01602080910402602001604051908101604052809291908181526020018280546113f990614da0565b80156114465780601f1061141b57610100808354040283529160200191611446565b820191906000526020600020905b81548152906001019060200180831161142957829003601f168201915b5050505050905090565b600061145a613700565b60005b835181101561164157601060008583815181106114a3577f4e487b7100000000000000000000000000000000000000000000000000000000600052603260045260246000fd5b602002602001015181526020019081526020016000206040518060400160405290816000820160009054906101000a900473ffffffffffffffffffffffffffffffffffffffff1673ffffffffffffffffffffffffffffffffffffffff1673ffffffffffffffffffffffffffffffffffffffff1681526020016001820154815250509150612710600f54836020015161153b9190614c3b565b6115459190614c0a565b82602001516115549190614bb4565b9250600d60009054906101000a900473ffffffffffffffffffffffffffffffffffffffff1673ffffffffffffffffffffffffffffffffffffffff166115d88583815181106115cb577f4e487b7100000000000000000000000000000000000000000000000000000000600052603260045260246000fd5b6020026020010151611177565b73ffffffffffffffffffffffffffffffffffffffff161461162e576040517f08c379a000000000000000000000000000000000000000000000000000000000815260040161162590614795565b60405180910390fd5b808061163990614e03565b91505061145d565b50813414611684576040517f08c379a000000000000000000000000000000000000000000000000000000000815260040161167b90614995565b60405180910390fd5b60005b8351811015611c4d576116d98482815181106116cc577f4e487b7100000000000000000000000000000000000000000000000000000000600052603260045260246000fd5b6020026020010151612d6c565b611718576040517f08c379a000000000000000000000000000000000000000000000000000000000815260040161170f906146d5565b60405180910390fd5b60106000858381518110611755577f4e487b7100000000000000000000000000000000000000000000000000000000600052603260045260246000fd5b602002602001015181526020019081526020016000206040518060400160405290816000820160009054906101000a900473ffffffffffffffffffffffffffffffffffffffff1673ffffffffffffffffffffffffffffffffffffffff1673ffffffffffffffffffffffffffffffffffffffff1681526020016001820154815250509150600060016000868481518110611817577f4e487b7100000000000000000000000000000000000000000000000000000000600052603260045260246000fd5b602002602001015181526020019081526020016000206040518060400160405290816000820160009054906101000a900473ffffffffffffffffffffffffffffffffffffffff1673ffffffffffffffffffffffffffffffffffffffff1673ffffffffffffffffffffffffffffffffffffffff1681526020016000820160149054906101000a900462ffffff1662ffffff1662ffffff168152505090506000806000612710600f5487602001516118cd9190614c3b565b6118d79190614c0a565b9050611927888681518110611915577f4e487b7100000000000000000000000000000000000000000000000000000000600052603260045260246000fd5b60200260200101518760200151612dd8565b809350819450505060008287602001516119419190614c95565b905060008b73ffffffffffffffffffffffffffffffffffffffff16846040516119699061452a565b60006040518083038185875af1925050503d80600081146119a6576040519150601f19603f3d011682016040523d82523d6000602084013e6119ab565b606091505b50509050806119ef576040517f08c379a00000000000000000000000000000000000000000000000000000000081526004016119e690614895565b60405180910390fd5b6000886000015173ffffffffffffffffffffffffffffffffffffffff1683604051611a199061452a565b60006040518083038185875af1925050503d8060008114611a56576040519150601f19603f3d011682016040523d82523d6000602084013e611a5b565b606091505b5050905080611a9f576040517f08c379a0000000000000000000000000000000000000000000000000000000008152600401611a9690614835565b60405180910390fd5b6000600d60009054906101000a900473ffffffffffffffffffffffffffffffffffffffff1673ffffffffffffffffffffffffffffffffffffffff1685604051611ae79061452a565b60006040518083038185875af1925050503d8060008114611b24576040519150601f19603f3d011682016040523d82523d6000602084013e611b29565b606091505b5050905080611b6d576040517f08c379a0000000000000000000000000000000000000000000000000000000008152600401611b6490614935565b60405180910390fd5b7fc07b0f261ae5bc9c19f30e25aad9af37d9487b5f4e06447f1e18047ce25562e6886020015187604051611ba29291906149f5565b60405180910390a1611bf58e8e8e8c81518110611be8577f4e487b7100000000000000000000000000000000000000000000000000000000600052603260045260246000fd5b6020026020010151610ed3565b7fc07b0f261ae5bc9c19f30e25aad9af37d9487b5f4e06447f1e18047ce25562e6886020015187604051611c2a9291906149f5565b60405180910390a150505050505050508080611c4590614e03565b915050611687565b507f818af4c544b28ba5751ea93e544b1d6694c4c5d7d397aac48113902649340a0c848484604051611c81939291906145d6565b60405180910390a15050505050565b606060038054611c9f90614da0565b80601f0160208091040260200160405190810160405280929190818152602001828054611ccb90614da0565b8015611d185780601f10611ced57610100808354040283529160200191611d18565b820191906000526020600020905b815481529060010190602001808311611cfb57829003601f168201915b5050505050905090565b611d34611d2d6125fb565b8383612eb5565b5050565b611d406129b8565b60005b8151811015611e3257611d95828281518110611d88577f4e487b7100000000000000000000000000000000000000000000000000000000600052603260045260246000fd5b6020026020010151612d6c565b611dd4576040517f08c379a0000000000000000000000000000000000000000000000000000000008152600401611dcb90614695565b60405180910390fd5b611e1f8484848481518110611e12577f4e487b7100000000000000000000000000000000000000000000000000000000600052603260045260246000fd5b6020026020010151610ed3565b8080611e2a90614e03565b915050611d43565b507fb347ba4075364fc4a28f09aa270ea3df88cdf4b1b8bab71fd4f0ec55ccdfcbc78282604051611e649291906145a6565b60405180910390a1505050565b60106020528060005260406000206000915090508060000160009054906101000a900473ffffffffffffffffffffffffffffffffffffffff16908060010154905082565b6000611ebf613700565b60005b8351811015611fce5760106000858381518110611f08577f4e487b7100000000000000000000000000000000000000000000000000000000600052603260045260246000fd5b602002602001015181526020019081526020016000206040518060400160405290816000820160009054906101000a900473ffffffffffffffffffffffffffffffffffffffff1673ffffffffffffffffffffffffffffffffffffffff1673ffffffffffffffffffffffffffffffffffffffff1681526020016001820154815250509150612710600f548360200151611fa09190614c3b565b611faa9190614c0a565b8260200151611fb99190614bb4565b92508080611fc690614e03565b915050611ec2565b50813414612011576040517f08c379a0000000000000000000000000000000000000000000000000000000008152600401612008906146b5565b60405180910390fd5b61203e84600d60009054906101000a900473ffffffffffffffffffffffffffffffffffffffff1685613022565b61206b600d60009054906101000a900473ffffffffffffffffffffffffffffffffffffffff163385611450565b50505050565b61208261207c6125fb565b836126bc565b6120c1576040517f08c379a00000000000000000000000000000000000000000000000000000000081526004016120b8906149d5565b60405180910390fd5b6120cd84848484613153565b50505050565b60606120de82612d6c565b61211d576040517f08c379a0000000000000000000000000000000000000000000000000000000008152600401612114906148f5565b60405180910390fd5b60006121276113be565b905060008151116121475760405180602001604052806000815250612175565b80612151846131af565b6009604051602001612165939291906144f9565b6040516020818303038152906040525b915050919050565b6121856129b8565b6121b283600d60009054906101000a900473ffffffffffffffffffffffffffffffffffffffff1683613022565b6121df600d60009054906101000a900473ffffffffffffffffffffffffffffffffffffffff168383613022565b7fb347ba4075364fc4a28f09aa270ea3df88cdf4b1b8bab71fd4f0ec55ccdfcbc783826040516122109291906145a6565b60405180910390a1505050565b6122256129b8565b80600a908051906020019061223b929190613730565b5050565b6000600760008473ffffffffffffffffffffffffffffffffffffffff1673ffffffffffffffffffffffffffffffffffffffff16815260200190815260200160002060008373ffffffffffffffffffffffffffffffffffffffff1673ffffffffffffffffffffffffffffffffffffffff16815260200190815260200160002060009054906101000a900460ff16905092915050565b600080612302600d60009054906101000a900473ffffffffffffffffffffffffffffffffffffffff168461223f565b905080915050919050565b6123156129b8565b600073ffffffffffffffffffffffffffffffffffffffff168173ffffffffffffffffffffffffffffffffffffffff161415612385576040517f08c379a000000000000000000000000000000000000000000000000000000000815260040161237c90614735565b60405180910390fd5b61238e81612ca8565b50565b6123996129b8565b6123a36011612a36565b600e819055506123b36011612a44565b6123bf84600e54612a5a565b60006123cc600e546120d3565b90506123da600e5482612c34565b600b600e549080600181540180825580915050600190039060005260206000200160009091909190915055612412600e54848461335c565b61241a613700565b33816000019073ffffffffffffffffffffffffffffffffffffffff16908173ffffffffffffffffffffffffffffffffffffffff1681525050848160200181815250508060106000600e54815260200190815260200160002060008201518160000160006101000a81548173ffffffffffffffffffffffffffffffffffffffff021916908373ffffffffffffffffffffffffffffffffffffffff16021790555060208201518160010155905050505050505050565b60007f80ac58cd000000000000000000000000000000000000000000000000000000007bffffffffffffffffffffffffffffffffffffffffffffffffffffffff1916827bffffffffffffffffffffffffffffffffffffffffffffffffffffffff1916148061259957507f5b5e139f000000000000000000000000000000000000000000000000000000007bffffffffffffffffffffffffffffffffffffffffffffffffffffffff1916827bffffffffffffffffffffffffffffffffffffffffffffffffffffffff1916145b806125a957506125a882613458565b5b9050919050565b6125b981612d6c565b6125f8576040517f08c379a00000000000000000000000000000000000000000000000000000000081526004016125ef90614955565b60405180910390fd5b50565b600033905090565b816006600083815260200190815260200160002060006101000a81548173ffffffffffffffffffffffffffffffffffffffff021916908373ffffffffffffffffffffffffffffffffffffffff160217905550808273ffffffffffffffffffffffffffffffffffffffff1661267683611177565b73ffffffffffffffffffffffffffffffffffffffff167f8c5be1e5ebec7d5bd14f71427d1e84f3dd0314c0f7b2291e5b200ac8c7c3b92560405160405180910390a45050565b6000806126c883611177565b90508073ffffffffffffffffffffffffffffffffffffffff168473ffffffffffffffffffffffffffffffffffffffff16148061270a5750612709818561223f565b5b8061274857508373ffffffffffffffffffffffffffffffffffffffff166127308461092a565b73ffffffffffffffffffffffffffffffffffffffff16145b91505092915050565b8273ffffffffffffffffffffffffffffffffffffffff1661277182611177565b73ffffffffffffffffffffffffffffffffffffffff16146127c7576040517f08c379a00000000000000000000000000000000000000000000000000000000081526004016127be90614755565b60405180910390fd5b600073ffffffffffffffffffffffffffffffffffffffff168273ffffffffffffffffffffffffffffffffffffffff161415612837576040517f08c379a000000000000000000000000000000000000000000000000000000000815260040161282e906147b5565b60405180910390fd5b6128428383836134d2565b61284d600082612603565b6001600560008573ffffffffffffffffffffffffffffffffffffffff1673ffffffffffffffffffffffffffffffffffffffff168152602001908152602001600020600082825461289d9190614c95565b925050819055506001600560008473ffffffffffffffffffffffffffffffffffffffff1673ffffffffffffffffffffffffffffffffffffffff16815260200190815260200160002060008282546128f49190614bb4565b92505081905550816004600083815260200190815260200160002060006101000a81548173ffffffffffffffffffffffffffffffffffffffff021916908373ffffffffffffffffffffffffffffffffffffffff160217905550808273ffffffffffffffffffffffffffffffffffffffff168473ffffffffffffffffffffffffffffffffffffffff167fddf252ad1be2c89b69c2b068fc378daa952ba7f163c4a11628f55a4df523b3ef60405160405180910390a46129b38383836134d7565b505050565b6129c06125fb565b73ffffffffffffffffffffffffffffffffffffffff166129de611395565b73ffffffffffffffffffffffffffffffffffffffff1614612a34576040517f08c379a0000000000000000000000000000000000000000000000000000000008152600401612a2b906148d5565b60405180910390fd5b565b600081600001549050919050565b6001816000016000828254019250508190555050565b600073ffffffffffffffffffffffffffffffffffffffff168273ffffffffffffffffffffffffffffffffffffffff161415612aca576040517f08c379a0000000000000000000000000000000000000000000000000000000008152600401612ac190614875565b60405180910390fd5b612ad381612d6c565b15612b13576040517f08c379a0000000000000000000000000000000000000000000000000000000008152600401612b0a90614775565b60405180910390fd5b612b1f600083836134d2565b6001600560008473ffffffffffffffffffffffffffffffffffffffff1673ffffffffffffffffffffffffffffffffffffffff1681526020019081526020016000206000828254612b6f9190614bb4565b92505081905550816004600083815260200190815260200160002060006101000a81548173ffffffffffffffffffffffffffffffffffffffff021916908373ffffffffffffffffffffffffffffffffffffffff160217905550808273ffffffffffffffffffffffffffffffffffffffff16600073ffffffffffffffffffffffffffffffffffffffff167fddf252ad1be2c89b69c2b068fc378daa952ba7f163c4a11628f55a4df523b3ef60405160405180910390a4612c30600083836134d7565b5050565b612c3d82612d6c565b612c7c576040517f08c379a0000000000000000000000000000000000000000000000000000000008152600401612c7390614815565b60405180910390fd5b80600860008481526020019081526020016000209080519060200190612ca3929190613730565b505050565b60008060009054906101000a900473ffffffffffffffffffffffffffffffffffffffff169050816000806101000a81548173ffffffffffffffffffffffffffffffffffffffff021916908373ffffffffffffffffffffffffffffffffffffffff1602179055508173ffffffffffffffffffffffffffffffffffffffff168173ffffffffffffffffffffffffffffffffffffffff167f8be0079c531659141344cd1fd0a4f28419497f9722a3daafe3b4186f6b6457e060405160405180910390a35050565b60008073ffffffffffffffffffffffffffffffffffffffff166004600084815260200190815260200160002060009054906101000a900473ffffffffffffffffffffffffffffffffffffffff1673ffffffffffffffffffffffffffffffffffffffff1614159050919050565b6000806000600160008681526020019081526020016000206040518060400160405290816000820160009054906101000a900473ffffffffffffffffffffffffffffffffffffffff1673ffffffffffffffffffffffffffffffffffffffff1673ffffffffffffffffffffffffffffffffffffffff1681526020016000820160149054906101000a900462ffffff1662ffffff1662ffffff168152505090506000816000015190506000612710836020015162ffffff1687612e999190614c3b565b612ea39190614c0a565b90508181945094505050509250929050565b8173ffffffffffffffffffffffffffffffffffffffff168373ffffffffffffffffffffffffffffffffffffffff161415612f24576040517f08c379a0000000000000000000000000000000000000000000000000000000008152600401612f1b906147d5565b60405180910390fd5b80600760008573ffffffffffffffffffffffffffffffffffffffff1673ffffffffffffffffffffffffffffffffffffffff16815260200190815260200160002060008473ffffffffffffffffffffffffffffffffffffffff1673ffffffffffffffffffffffffffffffffffffffff16815260200190815260200160002060006101000a81548160ff0219169083151502179055508173ffffffffffffffffffffffffffffffffffffffff168373ffffffffffffffffffffffffffffffffffffffff167f17307eab39ab6107e8899845ad3d59bd9653f200f220920489ca2b5937696c3183604051613015919061463d565b60405180910390a3505050565b60005b81518110156131145761307782828151811061306a577f4e487b7100000000000000000000000000000000000000000000000000000000600052603260045260246000fd5b6020026020010151612d6c565b6130b6576040517f08c379a00000000000000000000000000000000000000000000000000000000081526004016130ad90614915565b60405180910390fd5b61310184848484815181106130f4577f4e487b7100000000000000000000000000000000000000000000000000000000600052603260045260246000fd5b6020026020010151610ed3565b808061310c90614e03565b915050613025565b507fb347ba4075364fc4a28f09aa270ea3df88cdf4b1b8bab71fd4f0ec55ccdfcbc782826040516131469291906145a6565b60405180910390a1505050565b61315e848484612751565b61316a848484846134dc565b6131a9576040517f08c379a00000000000000000000000000000000000000000000000000000000081526004016131a090614715565b60405180910390fd5b50505050565b606060008214156131f7576040518060400160405280600181526020017f30000000000000000000000000000000000000000000000000000000000000008152509050613357565b600082905060005b6000821461322957808061321290614e03565b915050600a826132229190614c0a565b91506131ff565b60008167ffffffffffffffff81111561326b577f4e487b7100000000000000000000000000000000000000000000000000000000600052604160045260246000fd5b6040519080825280601f01601f19166020018201604052801561329d5781602001600182028036833780820191505090505b5090505b60008514613350576001826132b69190614c95565b9150600a856132c59190614e4c565b60306132d19190614bb4565b60f81b81838151811061330d577f4e487b7100000000000000000000000000000000000000000000000000000000600052603260045260246000fd5b60200101907effffffffffffffffffffffffffffffffffffffffffffffffffffffffffffff1916908160001a905350600a856133499190614c0a565b94506132a1565b8093505050505b919050565b6127108111156133a1576040517f08c379a0000000000000000000000000000000000000000000000000000000008152600401613398906146f5565b60405180910390fd5b60405180604001604052808373ffffffffffffffffffffffffffffffffffffffff1681526020018262ffffff168152506001600085815260200190815260200160002060008201518160000160006101000a81548173ffffffffffffffffffffffffffffffffffffffff021916908373ffffffffffffffffffffffffffffffffffffffff16021790555060208201518160000160146101000a81548162ffffff021916908362ffffff160217905550905050505050565b60007f2a55205a000000000000000000000000000000000000000000000000000000007bffffffffffffffffffffffffffffffffffffffffffffffffffffffff1916827bffffffffffffffffffffffffffffffffffffffffffffffffffffffff191614806134cb57506134ca82613673565b5b9050919050565b505050565b505050565b60006134fd8473ffffffffffffffffffffffffffffffffffffffff166136dd565b15613666578373ffffffffffffffffffffffffffffffffffffffff1663150b7a026135266125fb565b8786866040518563ffffffff1660e01b8152600401613548949392919061455a565b602060405180830381600087803b15801561356257600080fd5b505af192505050801561359357506040513d601f19601f820116820180604052508101906135909190613e64565b60015b613616573d80600081146135c3576040519150601f19603f3d011682016040523d82523d6000602084013e6135c8565b606091505b5060008151141561360e576040517f08c379a000000000000000000000000000000000000000000000000000000000815260040161360590614715565b60405180910390fd5b805181602001fd5b63150b7a0260e01b7bffffffffffffffffffffffffffffffffffffffffffffffffffffffff1916817bffffffffffffffffffffffffffffffffffffffffffffffffffffffff19161491505061366b565b600190505b949350505050565b60007f01ffc9a7000000000000000000000000000000000000000000000000000000007bffffffffffffffffffffffffffffffffffffffffffffffffffffffff1916827bffffffffffffffffffffffffffffffffffffffffffffffffffffffff1916149050919050565b6000808273ffffffffffffffffffffffffffffffffffffffff163b119050919050565b6040518060400160405280600073ffffffffffffffffffffffffffffffffffffffff168152602001600081525090565b82805461373c90614da0565b90600052602060002090601f01602090048101928261375e57600085556137a5565b82601f1061377757805160ff19168380011785556137a5565b828001600101855582156137a5579182015b828111156137a4578251825591602001919060010190613789565b5b5090506137b291906137b6565b5090565b5b808211156137cf5760008160009055506001016137b7565b5090565b60006137e66137e184614a5e565b614a39565b9050808382526020820190508285602086028201111561380557600080fd5b60005b85811015613835578161381b8882613927565b845260208401935060208301925050600181019050613808565b5050509392505050565b600061385261384d84614a8a565b614a39565b9050808382526020820190508285602086028201111561387157600080fd5b60005b858110156138a157816138878882613a23565b845260208401935060208301925050600181019050613874565b5050509392505050565b60006138be6138b984614ab6565b614a39565b9050828152602081018484840111156138d657600080fd5b6138e1848285614d5e565b509392505050565b60006138fc6138f784614ae7565b614a39565b90508281526020810184848401111561391457600080fd5b61391f848285614d5e565b509392505050565b60008135905061393681615568565b92915050565b600082601f83011261394d57600080fd5b813561395d8482602086016137d3565b91505092915050565b600082601f83011261397757600080fd5b813561398784826020860161383f565b91505092915050565b60008135905061399f8161557f565b92915050565b6000813590506139b481615596565b92915050565b6000815190506139c981615596565b92915050565b600082601f8301126139e057600080fd5b81356139f08482602086016138ab565b91505092915050565b600082601f830112613a0a57600080fd5b8135613a1a8482602086016138e9565b91505092915050565b600081359050613a32816155ad565b92915050565b600060208284031215613a4a57600080fd5b6000613a5884828501613927565b91505092915050565b60008060408385031215613a7457600080fd5b6000613a8285828601613927565b9250506020613a9385828601613927565b9150509250929050565b600080600060608486031215613ab257600080fd5b6000613ac086828701613927565b9350506020613ad186828701613927565b925050604084013567ffffffffffffffff811115613aee57600080fd5b613afa86828701613966565b9150509250925092565b600080600060608486031215613b1957600080fd5b6000613b2786828701613927565b9350506020613b3886828701613927565b9250506040613b4986828701613a23565b9150509250925092565b60008060008060808587031215613b6957600080fd5b6000613b7787828801613927565b9450506020613b8887828801613927565b9350506040613b9987828801613a23565b925050606085013567ffffffffffffffff811115613bb657600080fd5b613bc2878288016139cf565b91505092959194509250565b60008060408385031215613be157600080fd5b6000613bef85828601613927565b925050602083013567ffffffffffffffff811115613c0c57600080fd5b613c1885828601613966565b9150509250929050565b600080600060608486031215613c3757600080fd5b6000613c4586828701613927565b935050602084013567ffffffffffffffff811115613c6257600080fd5b613c6e86828701613966565b925050604084013567ffffffffffffffff811115613c8b57600080fd5b613c9786828701613966565b9150509250925092565b60008060408385031215613cb457600080fd5b6000613cc285828601613927565b9250506020613cd385828601613990565b9150509250929050565b60008060408385031215613cf057600080fd5b6000613cfe85828601613927565b9250506020613d0f85828601613a23565b9150509250929050565b60008060008060808587031215613d2f57600080fd5b6000613d3d87828801613927565b9450506020613d4e87828801613a23565b9350506040613d5f87828801613927565b9250506060613d7087828801613a23565b91505092959194509250565b600080600080600060a08688031215613d9457600080fd5b6000613da288828901613927565b9550506020613db388828901613a23565b945050604086013567ffffffffffffffff811115613dd057600080fd5b613ddc8882890161393c565b935050606086013567ffffffffffffffff811115613df957600080fd5b613e0588828901613966565b925050608086013567ffffffffffffffff811115613e2257600080fd5b613e2e88828901613966565b9150509295509295909350565b600060208284031215613e4d57600080fd5b6000613e5b848285016139a5565b91505092915050565b600060208284031215613e7657600080fd5b6000613e84848285016139ba565b91505092915050565b600060208284031215613e9f57600080fd5b600082013567ffffffffffffffff811115613eb957600080fd5b613ec5848285016139f9565b91505092915050565b600060208284031215613ee057600080fd5b6000613eee84828501613a23565b91505092915050565b60008060408385031215613f0a57600080fd5b6000613f1885828601613a23565b9250506020613f2985828601613a23565b9150509250929050565b6000613f3f83836144db565b60208301905092915050565b613f5481614cc9565b82525050565b6000613f6582614b3d565b613f6f8185614b6b565b9350613f7a83614b18565b8060005b83811015613fab578151613f928882613f33565b9750613f9d83614b5e565b925050600181019050613f7e565b5085935050505092915050565b613fc181614cdb565b82525050565b613fd081614ce7565b82525050565b6000613fe182614b48565b613feb8185614b7c565b9350613ffb818560208601614d6d565b61400481614f39565b840191505092915050565b600061401a82614b53565b6140248185614b98565b9350614034818560208601614d6d565b61403d81614f39565b840191505092915050565b600061405382614b53565b61405d8185614ba9565b935061406d818560208601614d6d565b80840191505092915050565b6000815461408681614da0565b6140908186614ba9565b945060018216600081146140ab57600181146140bc576140ef565b60ff198316865281860193506140ef565b6140c585614b28565b60005b838110156140e7578154818901526001820191506020810190506140c8565b838801955050505b50505092915050565b6000614105601883614b98565b915061411082614f4a565b602082019050919050565b6000614128601a83614b98565b915061413382614f73565b602082019050919050565b600061414b601e83614b98565b915061415682614f9c565b602082019050919050565b600061416e601a83614b98565b915061417982614fc5565b602082019050919050565b6000614191603283614b98565b915061419c82614fee565b604082019050919050565b60006141b4602683614b98565b91506141bf8261503d565b604082019050919050565b60006141d7602583614b98565b91506141e28261508c565b604082019050919050565b60006141fa601c83614b98565b9150614205826150db565b602082019050919050565b600061421d602e83614b98565b915061422882615104565b604082019050919050565b6000614240602483614b98565b915061424b82615153565b604082019050919050565b6000614263601983614b98565b915061426e826151a2565b602082019050919050565b6000614286602983614b98565b9150614291826151cb565b604082019050919050565b60006142a9602e83614b98565b91506142b48261521a565b604082019050919050565b60006142cc601d83614b98565b91506142d782615269565b602082019050919050565b60006142ef603e83614b98565b91506142fa82615292565b604082019050919050565b6000614312602083614b98565b915061431d826152e1565b602082019050919050565b6000614335601e83614b98565b91506143408261530a565b602082019050919050565b6000614358601e83614b98565b915061436382615333565b602082019050919050565b600061437b602083614b98565b91506143868261535c565b602082019050919050565b600061439e602f83614b98565b91506143a982615385565b604082019050919050565b60006143c1601983614b98565b91506143cc826153d4565b602082019050919050565b60006143e4601783614b98565b91506143ef826153fd565b602082019050919050565b6000614407601883614b98565b915061441282615426565b602082019050919050565b600061442a602183614b98565b91506144358261544f565b604082019050919050565b600061444d601e83614b98565b91506144588261549e565b602082019050919050565b6000614470602683614b98565b915061447b826154c7565b604082019050919050565b6000614493600083614b8d565b915061449e82615516565b600082019050919050565b60006144b6602e83614b98565b91506144c182615519565b604082019050919050565b6144d581614d4c565b82525050565b6144e481614d42565b82525050565b6144f381614d42565b82525050565b60006145058286614048565b91506145118285614048565b915061451d8284614079565b9150819050949350505050565b600061453582614486565b9150819050919050565b60006020820190506145546000830184613f4b565b92915050565b600060808201905061456f6000830187613f4b565b61457c6020830186613f4b565b61458960408301856144ea565b818103606083015261459b8184613fd6565b905095945050505050565b60006040820190506145bb6000830185613f4b565b81810360208301526145cd8184613f5a565b90509392505050565b60006060820190506145eb6000830186613f4b565b81810360208301526145fd8185613f5a565b905061460c60408301846144ea565b949350505050565b60006040820190506146296000830185613f4b565b61463660208301846144ea565b9392505050565b60006020820190506146526000830184613fb8565b92915050565b600060208201905061466d6000830184613fc7565b92915050565b6000602082019050818103600083015261468d818461400f565b905092915050565b600060208201905081810360008301526146ae816140f8565b9050919050565b600060208201905081810360008301526146ce8161411b565b9050919050565b600060208201905081810360008301526146ee8161413e565b9050919050565b6000602082019050818103600083015261470e81614161565b9050919050565b6000602082019050818103600083015261472e81614184565b9050919050565b6000602082019050818103600083015261474e816141a7565b9050919050565b6000602082019050818103600083015261476e816141ca565b9050919050565b6000602082019050818103600083015261478e816141ed565b9050919050565b600060208201905081810360008301526147ae81614210565b9050919050565b600060208201905081810360008301526147ce81614233565b9050919050565b600060208201905081810360008301526147ee81614256565b9050919050565b6000602082019050818103600083015261480e81614279565b9050919050565b6000602082019050818103600083015261482e8161429c565b9050919050565b6000602082019050818103600083015261484e816142bf565b9050919050565b6000602082019050818103600083015261486e816142e2565b9050919050565b6000602082019050818103600083015261488e81614305565b9050919050565b600060208201905081810360008301526148ae81614328565b9050919050565b600060208201905081810360008301526148ce8161434b565b9050919050565b600060208201905081810360008301526148ee8161436e565b9050919050565b6000602082019050818103600083015261490e81614391565b9050919050565b6000602082019050818103600083015261492e816143b4565b9050919050565b6000602082019050818103600083015261494e816143d7565b9050919050565b6000602082019050818103600083015261496e816143fa565b9050919050565b6000602082019050818103600083015261498e8161441d565b9050919050565b600060208201905081810360008301526149ae81614440565b9050919050565b600060208201905081810360008301526149ce81614463565b9050919050565b600060208201905081810360008301526149ee816144a9565b9050919050565b6000604082019050614a0a60008301856144cc565b614a1760208301846144ea565b9392505050565b6000602082019050614a3360008301846144ea565b92915050565b6000614a43614a54565b9050614a4f8282614dd2565b919050565b6000604051905090565b600067ffffffffffffffff821115614a7957614a78614f0a565b5b602082029050602081019050919050565b600067ffffffffffffffff821115614aa557614aa4614f0a565b5b602082029050602081019050919050565b600067ffffffffffffffff821115614ad157614ad0614f0a565b5b614ada82614f39565b9050602081019050919050565b600067ffffffffffffffff821115614b0257614b01614f0a565b5b614b0b82614f39565b9050602081019050919050565b6000819050602082019050919050565b60008190508160005260206000209050919050565b600081519050919050565b600081519050919050565b600081519050919050565b6000602082019050919050565b600082825260208201905092915050565b600082825260208201905092915050565b600081905092915050565b600082825260208201905092915050565b600081905092915050565b6000614bbf82614d42565b9150614bca83614d42565b9250827fffffffffffffffffffffffffffffffffffffffffffffffffffffffffffffffff03821115614bff57614bfe614e7d565b5b828201905092915050565b6000614c1582614d42565b9150614c2083614d42565b925082614c3057614c2f614eac565b5b828204905092915050565b6000614c4682614d42565b9150614c5183614d42565b9250817fffffffffffffffffffffffffffffffffffffffffffffffffffffffffffffffff0483118215151615614c8a57614c89614e7d565b5b828202905092915050565b6000614ca082614d42565b9150614cab83614d42565b925082821015614cbe57614cbd614e7d565b5b828203905092915050565b6000614cd482614d13565b9050919050565b60008115159050919050565b60007fffffffff0000000000000000000000000000000000000000000000000000000082169050919050565b600073ffffffffffffffffffffffffffffffffffffffff82169050919050565b600062ffffff82169050919050565b6000819050919050565b6000614d5782614d33565b9050919050565b82818337600083830152505050565b60005b83811015614d8b578082015181840152602081019050614d70565b83811115614d9a576000848401525b50505050565b60006002820490506001821680614db857607f821691505b60208210811415614dcc57614dcb614edb565b5b50919050565b614ddb82614f39565b810181811067ffffffffffffffff82111715614dfa57614df9614f0a565b5b80604052505050565b6000614e0e82614d42565b91507fffffffffffffffffffffffffffffffffffffffffffffffffffffffffffffffff821415614e4157614e40614e7d565b5b600182019050919050565b6000614e5782614d42565b9150614e6283614d42565b925082614e7257614e71614eac565b5b828206905092915050565b7f4e487b7100000000000000000000000000000000000000000000000000000000600052601160045260246000fd5b7f4e487b7100000000000000000000000000000000000000000000000000000000600052601260045260246000fd5b7f4e487b7100000000000000000000000000000000000000000000000000000000600052602260045260246000fd5b7f4e487b7100000000000000000000000000000000000000000000000000000000600052604160045260246000fd5b6000601f19601f8301169050919050565b7f4b495031373a206e6f6e6578697374656e7420746f6b656e0000000000000000600082015250565b7f4d79546f6b656e3a206e6f7420656e6f756768206d6f6e657932000000000000600082015250565b7f416e64547265654d6574613a206e6f6e6578697374656e7420746f6b656e0000600082015250565b7f45524332393831526f79616c746965733a20546f6f2068696768000000000000600082015250565b7f4552433732313a207472616e7366657220746f206e6f6e20455243373231526560008201527f63656976657220696d706c656d656e7465720000000000000000000000000000602082015250565b7f4f776e61626c653a206e6577206f776e657220697320746865207a65726f206160008201527f6464726573730000000000000000000000000000000000000000000000000000602082015250565b7f4552433732313a207472616e736665722066726f6d20696e636f72726563742060008201527f6f776e6572000000000000000000000000000000000000000000000000000000602082015250565b7f4552433732313a20746f6b656e20616c7265616479206d696e74656400000000600082015250565b7f416e64547265654d6574613a205468697320697320616e204e4654207468617460008201527f20686173206265656e20736f6c64000000000000000000000000000000000000602082015250565b7f4552433732313a207472616e7366657220746f20746865207a65726f2061646460008201527f7265737300000000000000000000000000000000000000000000000000000000602082015250565b7f4552433732313a20617070726f766520746f2063616c6c657200000000000000600082015250565b7f4552433732313a2061646472657373207a65726f206973206e6f74206120766160008201527f6c6964206f776e65720000000000000000000000000000000000000000000000602082015250565b7f45524337323155524953746f726167653a2055524920736574206f66206e6f6e60008201527f6578697374656e7420746f6b656e000000000000000000000000000000000000602082015250565b7f4554482073616c655072696365207472616e73666572206661696c6564000000600082015250565b7f4552433732313a20617070726f76652063616c6c6572206973206e6f7420746f60008201527f6b656e206f776e6572206e6f7220617070726f76656420666f7220616c6c0000602082015250565b7f4552433732313a206d696e7420746f20746865207a65726f2061646472657373600082015250565b7f45544820726f79616c7479466565207472616e73666572206661696c65640000600082015250565b7f4552433732313a20417272617973206c656e677468206d69736d617463680000600082015250565b7f4f776e61626c653a2063616c6c6572206973206e6f7420746865206f776e6572600082015250565b7f4552433732314d657461646174613a2055524920717565727920666f72206e6f60008201527f6e6578697374656e7420746f6b656e0000000000000000000000000000000000602082015250565b7f4552433732313a206e6f6e6578697374656e7420746f6b656e00000000000000600082015250565b7f45544820666565207472616e73666572206661696c6564000000000000000000600082015250565b7f4552433732313a20696e76616c696420746f6b656e2049440000000000000000600082015250565b7f4552433732313a20617070726f76616c20746f2063757272656e74206f776e6560008201527f7200000000000000000000000000000000000000000000000000000000000000602082015250565b7f416e64547265654d6574613a206e6f7420656e6f756768206d6f6e6579310000600082015250565b7f4f6e6c7920746865206f776e65722063616e207472616e73666572207468697360008201527f20746f6b656e0000000000000000000000000000000000000000000000000000602082015250565b50565b7f4552433732313a2063616c6c6572206973206e6f7420746f6b656e206f776e6560008201527f72206e6f7220617070726f766564000000000000000000000000000000000000602082015250565b61557181614cc9565b811461557c57600080fd5b50565b61558881614cdb565b811461559357600080fd5b50565b61559f81614ce7565b81146155aa57600080fd5b50565b6155b681614d42565b81146155c157600080fd5b5056fea2646970667358221220dc7e1be03b2d2e2b25e6b21be8f2c05bf4646a4cdffed82beffdb555fc73136364736f6c63430008040033",
  "immutableReferences": {},
  "source": "// SPDX-License-Identifier: MIT\npragma solidity ^0.8.4;\n\nimport \"@openzeppelin/contracts/token/ERC721/ERC721.sol\";\nimport \"@openzeppelin/contracts/access/Ownable.sol\";\nimport \"@openzeppelin/contracts/utils/Counters.sol\";\nimport \"@openzeppelin/contracts/token/ERC721/utils/ERC721Holder.sol\";\nimport \"@openzeppelin/contracts/token/ERC721/extensions/ERC721URIStorage.sol\";\nimport \"../EIP2981-implementation-main/contracts/ERC2981PerTokenRoyalties.sol\";\nimport \"../EIP2981-implementation-main/contracts/mocks/ERC1155WithRoyalties.sol\";\n\n\ncontract MyToken is Ownable, ERC2981PerTokenRoyalties,ERC721URIStorage, ERC721Holder {\n    using Counters for Counters.Counter;\n    string public fileExtention = \".json\";\n    using Strings for uint256;\n    string private tokenURL;\n    uint256[] private tokenIds;\n    address[] private royaltyFrom;\n    address private compeny;\n    uint256 tokenId;\n    uint256 public allFee; // 10% == 10, 20% == 5 \n\n    struct SallerInfo{\n        address owner;\n        uint256 price;\n    }\n\n    mapping(uint256 => SallerInfo) public sallerOwner;\n\n    Counters.Counter private _tokenIdCounter;\n\n    event NftSale(address to, uint256[] tokenIds);\n    event KlayNftSale(address to, uint256 tokenIds, uint256 price);\n    event KlayBatchNftSale(address to, uint256[] tokenIds, uint256 totalPrice);\n    event RoyaltValues(uint256 royaltyFee, uint256 royaltyPrice);\n\n    constructor() ERC721(\"MyToken\", \"MTK\") {\n        tokenIds.push(0);\n        compeny = msg.sender;\n        allFee = 1000;\n        setApprovalForAll(address(this),true);\n    }\n\n    modifier isNftOwner(\n        uint256[] memory _tokenIds,\n        address _from\n    ) \n    {\n        for (uint i = 0; i < _tokenIds.length; i++) {\n            require(\n                ownerOf(_tokenIds[i]) == _from,\n                \"Only the owner can transfer this token\"\n            );\n        }\n        _;\n    }\n\n    function supportsInterface(bytes4 interfaceId) public view virtual override(ERC721, ERC2981Base) returns (bool) {\n        return super.supportsInterface(interfaceId);\n    }\n\n    function setTokenURI(string memory _batchUri) public onlyOwner{\n        tokenURL = _batchUri;\n    }\n\n    function setBatchUri() public view returns(string memory){\n        return tokenURL;\n    }\n\n    // Check Writer Royalty\n    function royalty(uint256 tokenid, uint256 price) private view returns(address to,uint256 ro){\n        RoyaltyInfo memory royalties = _royalties[tokenid];\n        address receiver = royalties.recipient;\n        uint256 royaltyAmount = (price * royalties.amount) / 10000;\n        return (receiver,royaltyAmount);\n    }\n\n    function safeMint(address to) public onlyOwner {\n        tokenId = _tokenIdCounter.current();\n        _tokenIdCounter.increment();\n        _mint(to, tokenId);\n        string memory tokenURIs = tokenURI(tokenId);\n        _setTokenURI(tokenId, tokenURIs);\n        \n    }\n\n    function ETHRoyaltySafeMint(address to, uint256 price, address royaltyRecipients, uint256 royaltyValues) public onlyOwner {\n        tokenId = _tokenIdCounter.current();\n        _tokenIdCounter.increment();\n        _mint(to, tokenId);\n        string memory tokenURIs = tokenURI(tokenId);\n        _setTokenURI(tokenId, tokenURIs);\n        tokenIds.push(tokenId);\n        _setTokenRoyalty\n        (\n            tokenId,\n            royaltyRecipients,\n            royaltyValues\n        );\n        SallerInfo memory saller;\n        saller.owner = msg.sender;\n        saller.price = price;\n        sallerOwner[tokenId] = saller;\n    }\n\n      function tokenURI(uint256 _tokenId) public view virtual override returns (string memory) {\n        require(_exists(_tokenId), \"ERC721Metadata: URI query for nonexistent token\");\n        string memory baseURI = setBatchUri();\n        return bytes(baseURI).length > 0 ? string(abi.encodePacked(baseURI, _tokenId.toString(), fileExtention)) : \"\";\n    }\n\n    function batchMint(address to, uint amount) public onlyOwner{\n        for (uint i = 0; i < amount; i++) {\n            safeMint(to);\n        }\n    }\n\n    function changePrice(\n        address _to,\n        uint256[] memory _tokenIds,\n        uint256[] memory _rePrices\n    )\n    isNftOwner(_tokenIds,_to)\n    public\n    {\n        for (uint i = 0; i < _rePrices.length; i++) {\n            SallerInfo storage saller = sallerOwner[_tokenIds[i]];\n            saller.price = _rePrices[i];\n            saller.owner = _to;\n            safeTransferFrom(msg.sender, compeny, _tokenIds[i]);\n        }\n    }\n\n    function batchTransferFrom(address from, address to, uint256[] memory ids) private {\n        for (uint i = 0; i < ids.length; i++){\n            require(_exists(ids[i]), \"ERC721: nonexistent token\");\n            safeTransferFrom(from,to,ids[i]);\n        }\n        emit NftSale(to, ids);\n    }\n\n    function ownerBatchTransferFrom(address from, address to, uint256[] memory ids) public onlyOwner {\n        for (uint i = 0; i < ids.length; i++){\n            require(_exists(ids[i]), \"KIP17: nonexistent token\");\n            safeTransferFrom(from,to,ids[i]);\n        }\n        emit NftSale(to, ids);\n    }\n\n    function tradeBatchTransferFrom(address _from, address _to, uint256[] memory _tokenIds) public onlyOwner{\n        batchTransferFrom(_from, compeny, _tokenIds);\n        batchTransferFrom(compeny, _to, _tokenIds);\n        emit NftSale(_from, _tokenIds);\n    }\n\n    function ETHBatchMint(address to, uint amount, address[] memory royaltyRecipients, uint256[] memory royaltyValues, uint256[] memory price) public onlyOwner{\n        \n        require(price.length == amount , \"ERC721: Arrays length mismatch\");\n\n        require(amount == royaltyRecipients.length &&\n                amount == royaltyValues.length,\n                'ERC721: Arrays length mismatch');\n        \n        for (uint i = 0; i < amount; i++) {\n            ETHRoyaltySafeMint(to,price[i],royaltyRecipients[i],royaltyValues[i]);\n        }\n\n    }\n\n    function ETHBatchTransferFrom(address from, address to, uint256[] memory ids) public payable {\n        uint256 checkPrice;\n        SallerInfo memory saller;\n        \n        for(uint256 j; j<ids.length; j++){\n            saller = sallerOwner[ids[j]];\n            checkPrice = saller.price + (saller.price * allFee / 10000);\n            require(ownerOf(ids[j]) == compeny,\"AndTreeMeta: This is an NFT that has been sold\");\n        }\n\n        require(msg.value == checkPrice, \"AndTreeMeta: not enough money1\");\n        \n        for (uint i = 0; i < ids.length; i++){\n\n            require(_exists(ids[i]), \"AndTreeMeta: nonexistent token\");\n            saller = sallerOwner[ids[i]];\n            RoyaltyInfo memory royalties = _royalties[ids[i]];\n            address writerFrom;\n            uint256 price; \n            uint256 fee = saller.price * allFee / 10000;\n            (writerFrom,price) = royalty(ids[i],saller.price);\n            uint256 salePrices = saller.price - price;\n\n            // Writer\n            (bool Writercheck ,) = payable(from).call{value : price}(\"\");\n            require(Writercheck,\"ETH royaltyFee transfer failed\");\n            // saller\n            (bool sallerCheck ,) = payable(saller.owner).call{value : salePrices}(\"\");\n            require(sallerCheck,\"ETH salePrice transfer failed\");\n            // compeny\n            (bool compenyCheck ,) = payable(compeny).call{value : fee}(\"\");\n            require(compenyCheck,\"ETH fee transfer failed\");\n            emit RoyaltValues(royalties.amount, price);\n\n            safeTransferFrom(from,to,ids[i]);\n            emit RoyaltValues(royalties.amount, price);\n        }\n        emit KlayBatchNftSale(to,ids,checkPrice);\n    }\n\n    function ETHTradeBatchTransferFrom(address _from, uint256[] memory _tokenIds) public payable{\n        uint256 checkPrice;\n        SallerInfo memory saller;\n        \n        for(uint256 j; j<_tokenIds.length; j++){\n            saller = sallerOwner[_tokenIds[j]];\n            checkPrice = saller.price + (saller.price * allFee / 10000);\n        }\n\n        require(msg.value == checkPrice, \"MyToken: not enough money2\");\n        \n        batchTransferFrom(_from, compeny, _tokenIds);\n        ETHBatchTransferFrom(compeny, msg.sender, _tokenIds);\n    }\n\n    function getToken() public view returns(uint256){\n        return tokenIds.length - 1;\n    }\n\n    function totalSupply() public view returns(uint256){\n        uint256 max = tokenIds[0];\n        for(uint256 i=1; i<tokenIds.length; i++){\n                if(tokenIds[i] > max)\n                    max = tokenIds[i];\n        }\n        return max;\n    }\n\n    function checkApproval(address operator) public view returns(bool){\n        bool check = isApprovedForAll(compeny,operator);\n        return check;\n\n    }\n\n    function setFee(uint256 fee) public onlyOwner {\n        allFee = fee;\n    }\n}",
  "sourcePath": "/Users/minmac/Documents/work/solidity/contracts/createNft.sol",
  "compiler": {
    "name": "solc",
    "version": "0.8.4+commit.c7e474f2.Emscripten.clang"
  },
  "schemaVersion": "3.4.8",
  "updatedAt": "2022-07-07T09:50:47.499Z",
  "devdoc": {
    "kind": "dev",
    "methods": {
      "approve(address,uint256)": {
        "details": "See {IERC721-approve}."
      },
      "balanceOf(address)": {
        "details": "See {IERC721-balanceOf}."
      },
      "getApproved(uint256)": {
        "details": "See {IERC721-getApproved}."
      },
      "isApprovedForAll(address,address)": {
        "details": "See {IERC721-isApprovedForAll}."
      },
      "name()": {
        "details": "See {IERC721Metadata-name}."
      },
      "onERC721Received(address,address,uint256,bytes)": {
        "details": "See {IERC721Receiver-onERC721Received}. Always returns `IERC721Receiver.onERC721Received.selector`."
      },
      "owner()": {
        "details": "Returns the address of the current owner."
      },
      "ownerOf(uint256)": {
        "details": "See {IERC721-ownerOf}."
      },
      "renounceOwnership()": {
        "details": "Leaves the contract without owner. It will not be possible to call `onlyOwner` functions anymore. Can only be called by the current owner. NOTE: Renouncing ownership will leave the contract without an owner, thereby removing any functionality that is only available to the owner."
      },
      "royaltyInfo(uint256,uint256)": {
        "params": {
          "_tokenId": "- the NFT asset queried for royalty information",
          "_value": "- the sale price of the NFT asset specified by _tokenId"
        },
        "returns": {
          "receiver": "- address of who should be sent the royalty payment",
          "royaltyAmount": "- the royalty payment amount for value sale price"
        }
      },
      "safeTransferFrom(address,address,uint256)": {
        "details": "See {IERC721-safeTransferFrom}."
      },
      "safeTransferFrom(address,address,uint256,bytes)": {
        "details": "See {IERC721-safeTransferFrom}."
      },
      "setApprovalForAll(address,bool)": {
        "details": "See {IERC721-setApprovalForAll}."
      },
      "symbol()": {
        "details": "See {IERC721Metadata-symbol}."
      },
      "transferFrom(address,address,uint256)": {
        "details": "See {IERC721-transferFrom}."
      },
      "transferOwnership(address)": {
        "details": "Transfers ownership of the contract to a new account (`newOwner`). Can only be called by the current owner."
      }
    },
    "version": 1
  },
  "userdoc": {
    "kind": "user",
    "methods": {},
    "version": 1
  }
}