{
  "contractName": "MyToken",
  "abi": [
    {
      "inputs": [],
      "stateMutability": "nonpayable",
      "type": "constructor"
    },
    {
      "anonymous": false,
      "inputs": [
        {
          "indexed": true,
          "internalType": "address",
          "name": "owner",
          "type": "address"
        },
        {
          "indexed": true,
          "internalType": "address",
          "name": "approved",
          "type": "address"
        },
        {
          "indexed": true,
          "internalType": "uint256",
          "name": "tokenId",
          "type": "uint256"
        }
      ],
      "name": "Approval",
      "type": "event"
    },
    {
      "anonymous": false,
      "inputs": [
        {
          "indexed": true,
          "internalType": "address",
          "name": "owner",
          "type": "address"
        },
        {
          "indexed": true,
          "internalType": "address",
          "name": "operator",
          "type": "address"
        },
        {
          "indexed": false,
          "internalType": "bool",
          "name": "approved",
          "type": "bool"
        }
      ],
      "name": "ApprovalForAll",
      "type": "event"
    },
    {
      "anonymous": false,
      "inputs": [
        {
          "indexed": false,
          "internalType": "address",
          "name": "to",
          "type": "address"
        },
        {
          "indexed": false,
          "internalType": "uint256[]",
          "name": "tokenIds",
          "type": "uint256[]"
        },
        {
          "indexed": false,
          "internalType": "uint256",
          "name": "totalPrice",
          "type": "uint256"
        }
      ],
      "name": "KlayBatchNftSale",
      "type": "event"
    },
    {
      "anonymous": false,
      "inputs": [
        {
          "indexed": false,
          "internalType": "address",
          "name": "to",
          "type": "address"
        },
        {
          "indexed": false,
          "internalType": "uint256",
          "name": "tokenIds",
          "type": "uint256"
        },
        {
          "indexed": false,
          "internalType": "uint256",
          "name": "price",
          "type": "uint256"
        }
      ],
      "name": "KlayNftSale",
      "type": "event"
    },
    {
      "anonymous": false,
      "inputs": [
        {
          "indexed": false,
          "internalType": "address",
          "name": "to",
          "type": "address"
        },
        {
          "indexed": false,
          "internalType": "uint256[]",
          "name": "tokenIds",
          "type": "uint256[]"
        }
      ],
      "name": "NftSale",
      "type": "event"
    },
    {
      "anonymous": false,
      "inputs": [
        {
          "indexed": true,
          "internalType": "address",
          "name": "previousOwner",
          "type": "address"
        },
        {
          "indexed": true,
          "internalType": "address",
          "name": "newOwner",
          "type": "address"
        }
      ],
      "name": "OwnershipTransferred",
      "type": "event"
    },
    {
      "anonymous": false,
      "inputs": [
        {
          "indexed": false,
          "internalType": "uint256",
          "name": "royaltyFee",
          "type": "uint256"
        },
        {
          "indexed": false,
          "internalType": "uint256",
          "name": "royaltyPrice",
          "type": "uint256"
        }
      ],
      "name": "RoyaltValues",
      "type": "event"
    },
    {
      "anonymous": false,
      "inputs": [
        {
          "indexed": true,
          "internalType": "address",
          "name": "from",
          "type": "address"
        },
        {
          "indexed": true,
          "internalType": "address",
          "name": "to",
          "type": "address"
        },
        {
          "indexed": true,
          "internalType": "uint256",
          "name": "tokenId",
          "type": "uint256"
        }
      ],
      "name": "Transfer",
      "type": "event"
    },
    {
      "inputs": [],
      "name": "allFee",
      "outputs": [
        {
          "internalType": "uint256",
          "name": "",
          "type": "uint256"
        }
      ],
      "stateMutability": "view",
      "type": "function",
      "constant": true
    },
    {
      "inputs": [
        {
          "internalType": "address",
          "name": "to",
          "type": "address"
        },
        {
          "internalType": "uint256",
          "name": "tokenId",
          "type": "uint256"
        }
      ],
      "name": "approve",
      "outputs": [],
      "stateMutability": "nonpayable",
      "type": "function"
    },
    {
      "inputs": [
        {
          "internalType": "address",
          "name": "owner",
          "type": "address"
        }
      ],
      "name": "balanceOf",
      "outputs": [
        {
          "internalType": "uint256",
          "name": "",
          "type": "uint256"
        }
      ],
      "stateMutability": "view",
      "type": "function",
      "constant": true
    },
    {
      "inputs": [],
      "name": "fileExtention",
      "outputs": [
        {
          "internalType": "string",
          "name": "",
          "type": "string"
        }
      ],
      "stateMutability": "view",
      "type": "function",
      "constant": true
    },
    {
      "inputs": [
        {
          "internalType": "uint256",
          "name": "tokenId",
          "type": "uint256"
        }
      ],
      "name": "getApproved",
      "outputs": [
        {
          "internalType": "address",
          "name": "",
          "type": "address"
        }
      ],
      "stateMutability": "view",
      "type": "function",
      "constant": true
    },
    {
      "inputs": [
        {
          "internalType": "address",
          "name": "owner",
          "type": "address"
        },
        {
          "internalType": "address",
          "name": "operator",
          "type": "address"
        }
      ],
      "name": "isApprovedForAll",
      "outputs": [
        {
          "internalType": "bool",
          "name": "",
          "type": "bool"
        }
      ],
      "stateMutability": "view",
      "type": "function",
      "constant": true
    },
    {
      "inputs": [],
      "name": "name",
      "outputs": [
        {
          "internalType": "string",
          "name": "",
          "type": "string"
        }
      ],
      "stateMutability": "view",
      "type": "function",
      "constant": true
    },
    {
      "inputs": [
        {
          "internalType": "address",
          "name": "",
          "type": "address"
        },
        {
          "internalType": "address",
          "name": "",
          "type": "address"
        },
        {
          "internalType": "uint256",
          "name": "",
          "type": "uint256"
        },
        {
          "internalType": "bytes",
          "name": "",
          "type": "bytes"
        }
      ],
      "name": "onERC721Received",
      "outputs": [
        {
          "internalType": "bytes4",
          "name": "",
          "type": "bytes4"
        }
      ],
      "stateMutability": "nonpayable",
      "type": "function"
    },
    {
      "inputs": [],
      "name": "owner",
      "outputs": [
        {
          "internalType": "address",
          "name": "",
          "type": "address"
        }
      ],
      "stateMutability": "view",
      "type": "function",
      "constant": true
    },
    {
      "inputs": [
        {
          "internalType": "uint256",
          "name": "tokenId",
          "type": "uint256"
        }
      ],
      "name": "ownerOf",
      "outputs": [
        {
          "internalType": "address",
          "name": "",
          "type": "address"
        }
      ],
      "stateMutability": "view",
      "type": "function",
      "constant": true
    },
    {
      "inputs": [],
      "name": "renounceOwnership",
      "outputs": [],
      "stateMutability": "nonpayable",
      "type": "function"
    },
    {
      "inputs": [
        {
          "internalType": "uint256",
          "name": "tokenId",
          "type": "uint256"
        },
        {
          "internalType": "uint256",
          "name": "value",
          "type": "uint256"
        }
      ],
      "name": "royaltyInfo",
      "outputs": [
        {
          "internalType": "address",
          "name": "receiver",
          "type": "address"
        },
        {
          "internalType": "uint256",
          "name": "royaltyAmount",
          "type": "uint256"
        }
      ],
      "stateMutability": "view",
      "type": "function",
      "constant": true
    },
    {
      "inputs": [
        {
          "internalType": "address",
          "name": "from",
          "type": "address"
        },
        {
          "internalType": "address",
          "name": "to",
          "type": "address"
        },
        {
          "internalType": "uint256",
          "name": "tokenId",
          "type": "uint256"
        }
      ],
      "name": "safeTransferFrom",
      "outputs": [],
      "stateMutability": "nonpayable",
      "type": "function"
    },
    {
      "inputs": [
        {
          "internalType": "address",
          "name": "from",
          "type": "address"
        },
        {
          "internalType": "address",
          "name": "to",
          "type": "address"
        },
        {
          "internalType": "uint256",
          "name": "tokenId",
          "type": "uint256"
        },
        {
          "internalType": "bytes",
          "name": "data",
          "type": "bytes"
        }
      ],
      "name": "safeTransferFrom",
      "outputs": [],
      "stateMutability": "nonpayable",
      "type": "function"
    },
    {
      "inputs": [
        {
          "internalType": "uint256",
          "name": "",
          "type": "uint256"
        }
      ],
      "name": "sallerOwner",
      "outputs": [
        {
          "internalType": "address",
          "name": "owner",
          "type": "address"
        },
        {
          "internalType": "uint256",
          "name": "price",
          "type": "uint256"
        }
      ],
      "stateMutability": "view",
      "type": "function",
      "constant": true
    },
    {
      "inputs": [
        {
          "internalType": "address",
          "name": "operator",
          "type": "address"
        },
        {
          "internalType": "bool",
          "name": "approved",
          "type": "bool"
        }
      ],
      "name": "setApprovalForAll",
      "outputs": [],
      "stateMutability": "nonpayable",
      "type": "function"
    },
    {
      "inputs": [],
      "name": "symbol",
      "outputs": [
        {
          "internalType": "string",
          "name": "",
          "type": "string"
        }
      ],
      "stateMutability": "view",
      "type": "function",
      "constant": true
    },
    {
      "inputs": [
        {
          "internalType": "address",
          "name": "from",
          "type": "address"
        },
        {
          "internalType": "address",
          "name": "to",
          "type": "address"
        },
        {
          "internalType": "uint256",
          "name": "tokenId",
          "type": "uint256"
        }
      ],
      "name": "transferFrom",
      "outputs": [],
      "stateMutability": "nonpayable",
      "type": "function"
    },
    {
      "inputs": [
        {
          "internalType": "address",
          "name": "newOwner",
          "type": "address"
        }
      ],
      "name": "transferOwnership",
      "outputs": [],
      "stateMutability": "nonpayable",
      "type": "function"
    },
    {
      "inputs": [
        {
          "internalType": "bytes4",
          "name": "interfaceId",
          "type": "bytes4"
        }
      ],
      "name": "supportsInterface",
      "outputs": [
        {
          "internalType": "bool",
          "name": "",
          "type": "bool"
        }
      ],
      "stateMutability": "view",
      "type": "function",
      "constant": true
    },
    {
      "inputs": [
        {
          "internalType": "string",
          "name": "_batchUri",
          "type": "string"
        }
      ],
      "name": "setTokenURI",
      "outputs": [],
      "stateMutability": "nonpayable",
      "type": "function"
    },
    {
      "inputs": [],
      "name": "setBatchUri",
      "outputs": [
        {
          "internalType": "string",
          "name": "",
          "type": "string"
        }
      ],
      "stateMutability": "view",
      "type": "function",
      "constant": true
    },
    {
      "inputs": [
        {
          "internalType": "address",
          "name": "to",
          "type": "address"
        }
      ],
      "name": "safeMint",
      "outputs": [],
      "stateMutability": "nonpayable",
      "type": "function"
    },
    {
      "inputs": [
        {
          "internalType": "address",
          "name": "to",
          "type": "address"
        },
        {
          "internalType": "uint256",
          "name": "price",
          "type": "uint256"
        },
        {
          "internalType": "address",
          "name": "royaltyRecipients",
          "type": "address"
        },
        {
          "internalType": "uint256",
          "name": "royaltyValues",
          "type": "uint256"
        }
      ],
      "name": "ETHRoyaltySafeMint",
      "outputs": [],
      "stateMutability": "nonpayable",
      "type": "function"
    },
    {
      "inputs": [
        {
          "internalType": "uint256",
          "name": "_tokenId",
          "type": "uint256"
        }
      ],
      "name": "tokenURI",
      "outputs": [
        {
          "internalType": "string",
          "name": "",
          "type": "string"
        }
      ],
      "stateMutability": "view",
      "type": "function",
      "constant": true
    },
    {
      "inputs": [
        {
          "internalType": "address",
          "name": "to",
          "type": "address"
        },
        {
          "internalType": "uint256",
          "name": "amount",
          "type": "uint256"
        }
      ],
      "name": "batchMint",
      "outputs": [],
      "stateMutability": "nonpayable",
      "type": "function"
    },
    {
      "inputs": [
        {
          "internalType": "address",
          "name": "_to",
          "type": "address"
        },
        {
          "internalType": "uint256[]",
          "name": "_tokenIds",
          "type": "uint256[]"
        },
        {
          "internalType": "uint256[]",
          "name": "_rePrices",
          "type": "uint256[]"
        }
      ],
      "name": "changePrice",
      "outputs": [],
      "stateMutability": "nonpayable",
      "type": "function"
    },
    {
      "inputs": [
        {
          "internalType": "address",
          "name": "from",
          "type": "address"
        },
        {
          "internalType": "address",
          "name": "to",
          "type": "address"
        },
        {
          "internalType": "uint256[]",
          "name": "ids",
          "type": "uint256[]"
        }
      ],
      "name": "ownerBatchTransferFrom",
      "outputs": [],
      "stateMutability": "nonpayable",
      "type": "function"
    },
    {
      "inputs": [
        {
          "internalType": "address",
          "name": "_from",
          "type": "address"
        },
        {
          "internalType": "address",
          "name": "_to",
          "type": "address"
        },
        {
          "internalType": "uint256[]",
          "name": "_tokenIds",
          "type": "uint256[]"
        }
      ],
      "name": "tradeBatchTransferFrom",
      "outputs": [],
      "stateMutability": "nonpayable",
      "type": "function"
    },
    {
      "inputs": [
        {
          "internalType": "address",
          "name": "to",
          "type": "address"
        },
        {
          "internalType": "uint256",
          "name": "amount",
          "type": "uint256"
        },
        {
          "internalType": "address[]",
          "name": "royaltyRecipients",
          "type": "address[]"
        },
        {
          "internalType": "uint256[]",
          "name": "royaltyValues",
          "type": "uint256[]"
        },
        {
          "internalType": "uint256[]",
          "name": "price",
          "type": "uint256[]"
        }
      ],
      "name": "ETHBatchMint",
      "outputs": [],
      "stateMutability": "nonpayable",
      "type": "function"
    },
    {
      "inputs": [
        {
          "internalType": "address",
          "name": "from",
          "type": "address"
        },
        {
          "internalType": "address",
          "name": "to",
          "type": "address"
        },
        {
          "internalType": "uint256[]",
          "name": "ids",
          "type": "uint256[]"
        }
      ],
      "name": "ETHBatchTransferFrom",
      "outputs": [],
      "stateMutability": "payable",
      "type": "function",
      "payable": true
    },
    {
      "inputs": [],
      "name": "getToken",
      "outputs": [
        {
          "internalType": "uint256",
          "name": "",
          "type": "uint256"
        }
      ],
      "stateMutability": "view",
      "type": "function",
      "constant": true
    },
    {
      "inputs": [],
      "name": "totalSupply",
      "outputs": [
        {
          "internalType": "uint256",
          "name": "",
          "type": "uint256"
        }
      ],
      "stateMutability": "view",
      "type": "function",
      "constant": true
    },
    {
      "inputs": [
        {
          "internalType": "address",
          "name": "operator",
          "type": "address"
        }
      ],
      "name": "checkApproval",
      "outputs": [
        {
          "internalType": "bool",
          "name": "",
          "type": "bool"
        }
      ],
      "stateMutability": "view",
      "type": "function",
      "constant": true
    },
    {
      "inputs": [
        {
          "internalType": "uint256",
          "name": "fee",
          "type": "uint256"
        }
      ],
      "name": "setFee",
      "outputs": [],
      "stateMutability": "nonpayable",
      "type": "function"
    }
  ],
  "bytecode": "0x60806040526040518060400160405280600581526020017f2e6a736f6e000000000000000000000000000000000000000000000000000000815250600990805190602001906200005192919062000411565b503480156200005f57600080fd5b506040518060400160405280600781526020017f4d79546f6b656e000000000000000000000000000000000000000000000000008152506040518060400160405280600381526020017f4d544b0000000000000000000000000000000000000000000000000000000000815250620000ec620000e0620001ad60201b60201c565b620001b560201b60201c565b81600290805190602001906200010492919062000411565b5080600390805190602001906200011d92919062000411565b505050600b6000908060018154018082558091505060019003906000526020600020016000909190919091505533600d60006101000a81548173ffffffffffffffffffffffffffffffffffffffff021916908373ffffffffffffffffffffffffffffffffffffffff1602179055506103e8600f81905550620001a73060016200027960201b60201c565b620005e3565b600033905090565b60008060009054906101000a900473ffffffffffffffffffffffffffffffffffffffff169050816000806101000a81548173ffffffffffffffffffffffffffffffffffffffff021916908373ffffffffffffffffffffffffffffffffffffffff1602179055508173ffffffffffffffffffffffffffffffffffffffff168173ffffffffffffffffffffffffffffffffffffffff167f8be0079c531659141344cd1fd0a4f28419497f9722a3daafe3b4186f6b6457e060405160405180910390a35050565b6200029b6200028d620001ad60201b60201c565b83836200029f60201b60201c565b5050565b8173ffffffffffffffffffffffffffffffffffffffff168373ffffffffffffffffffffffffffffffffffffffff16141562000311576040517f08c379a0000000000000000000000000000000000000000000000000000000008152600401620003089062000516565b60405180910390fd5b80600760008573ffffffffffffffffffffffffffffffffffffffff1673ffffffffffffffffffffffffffffffffffffffff16815260200190815260200160002060008473ffffffffffffffffffffffffffffffffffffffff1673ffffffffffffffffffffffffffffffffffffffff16815260200190815260200160002060006101000a81548160ff0219169083151502179055508173ffffffffffffffffffffffffffffffffffffffff168373ffffffffffffffffffffffffffffffffffffffff167f17307eab39ab6107e8899845ad3d59bd9653f200f220920489ca2b5937696c3183604051620004049190620004f9565b60405180910390a3505050565b8280546200041f9062000555565b90600052602060002090601f0160209004810192826200044357600085556200048f565b82601f106200045e57805160ff19168380011785556200048f565b828001600101855582156200048f579182015b828111156200048e57825182559160200191906001019062000471565b5b5090506200049e9190620004a2565b5090565b5b80821115620004bd576000816000905550600101620004a3565b5090565b620004cc8162000549565b82525050565b6000620004e160198362000538565b9150620004ee82620005ba565b602082019050919050565b6000602082019050620005106000830184620004c1565b92915050565b600060208201905081810360008301526200053181620004d2565b9050919050565b600082825260208201905092915050565b60008115159050919050565b600060028204905060018216806200056e57607f821691505b602082108114156200058557620005846200058b565b5b50919050565b7f4e487b7100000000000000000000000000000000000000000000000000000000600052602260045260246000fd5b7f4552433732313a20617070726f766520746f2063616c6c657200000000000000600082015250565b61535780620005f36000396000f3fe6080604052600436106102045760003560e01c806370a0823111610118578063a5fed13b116100a0578063e0df5b6f1161006f578063e0df5b6f1461076a578063e985e9c514610793578063ec29e26c146107d0578063f2fde38b1461080d578063f83b7a221461083657610204565b8063a5fed13b1461069d578063b88d4fde146106db578063c87b56dd14610704578063da5b58001461074157610204565b8063901a7967116100e7578063901a7967146105d9578063916bcca11461060457806395d89b4114610620578063a22cb4651461064b578063a5f77aec1461067457610204565b806370a082311461052f578063715018a61461056c5780638d716b22146105835780638da5cb5b146105ae57610204565b806325e5481e1161019b57806342842e0e1161016a57806342842e0e1461044e57806343508b05146104775780635f5e2c03146104a05780636352211e146104c957806369fe0e2d1461050657610204565b806325e5481e146103935780632a55205a146103bc578063379f7207146103fa57806340d097c31461042557610204565b8063150b7a02116101d7578063150b7a02146102d757806318160ddd1461031457806321df0da71461033f57806323b872dd1461036a57610204565b806301ffc9a71461020957806306fdde0314610246578063081812fc14610271578063095ea7b3146102ae575b600080fd5b34801561021557600080fd5b50610230600480360381019061022b9190613c04565b61085f565b60405161023d91906143e3565b60405180910390f35b34801561025257600080fd5b5061025b610871565b6040516102689190614419565b60405180910390f35b34801561027d57600080fd5b5061029860048036038101906102939190613c97565b610903565b6040516102a591906142e5565b60405180910390f35b3480156102ba57600080fd5b506102d560048036038101906102d09190613aa6565b610949565b005b3480156102e357600080fd5b506102fe60048036038101906102f99190613970565b610a61565b60405161030b91906143fe565b60405180910390f35b34801561032057600080fd5b50610329610a75565b60405161033691906147a4565b60405180910390f35b34801561034b57600080fd5b50610354610b83565b60405161036191906147a4565b60405180910390f35b34801561037657600080fd5b50610391600480360381019061038c9190613921565b610b9c565b005b34801561039f57600080fd5b506103ba60048036038101906103b59190613b45565b610bfc565b005b3480156103c857600080fd5b506103e360048036038101906103de9190613cc0565b610d88565b6040516103f19291906143ba565b60405180910390f35b34801561040657600080fd5b5061040f610e59565b60405161041c91906147a4565b60405180910390f35b34801561043157600080fd5b5061044c60048036038101906104479190613855565b610e5f565b005b34801561045a57600080fd5b5061047560048036038101906104709190613921565b610eac565b005b34801561048357600080fd5b5061049e60048036038101906104999190613aa6565b610ecc565b005b3480156104ac57600080fd5b506104c760048036038101906104c291906139eb565b610f00565b005b3480156104d557600080fd5b506104f060048036038101906104eb9190613c97565b611150565b6040516104fd91906142e5565b60405180910390f35b34801561051257600080fd5b5061052d60048036038101906105289190613c97565b611202565b005b34801561053b57600080fd5b5061055660048036038101906105519190613855565b611214565b60405161056391906147a4565b60405180910390f35b34801561057857600080fd5b506105816112cc565b005b34801561058f57600080fd5b506105986112e0565b6040516105a59190614419565b60405180910390f35b3480156105ba57600080fd5b506105c361136e565b6040516105d091906142e5565b60405180910390f35b3480156105e557600080fd5b506105ee611397565b6040516105fb9190614419565b60405180910390f35b61061e600480360381019061061991906138ba565b611429565b005b34801561062c57600080fd5b50610635611c69565b6040516106429190614419565b60405180910390f35b34801561065757600080fd5b50610672600480360381019061066d9190613a6a565b611cfb565b005b34801561068057600080fd5b5061069b600480360381019061069691906138ba565b611d11565b005b3480156106a957600080fd5b506106c460048036038101906106bf9190613c97565b611e4a565b6040516106d29291906143ba565b60405180910390f35b3480156106e757600080fd5b5061070260048036038101906106fd9190613970565b611e8e565b005b34801561071057600080fd5b5061072b60048036038101906107269190613c97565b611ef0565b6040516107389190614419565b60405180910390f35b34801561074d57600080fd5b50610768600480360381019061076391906138ba565b611f9a565b005b34801561077657600080fd5b50610791600480360381019061078c9190613c56565b61203a565b005b34801561079f57600080fd5b506107ba60048036038101906107b5919061387e565b61205c565b6040516107c791906143e3565b60405180910390f35b3480156107dc57600080fd5b506107f760048036038101906107f29190613855565b6120f0565b60405161080491906143e3565b60405180910390f35b34801561081957600080fd5b50610834600480360381019061082f9190613855565b61212a565b005b34801561084257600080fd5b5061085d60048036038101906108589190613ae2565b6121ae565b005b600061086a826122eb565b9050919050565b60606002805461088090614b26565b80601f01602080910402602001604051908101604052809291908181526020018280546108ac90614b26565b80156108f95780601f106108ce576101008083540402835291602001916108f9565b820191906000526020600020905b8154815290600101906020018083116108dc57829003601f168201915b5050505050905090565b600061090e826123cd565b6006600083815260200190815260200160002060009054906101000a900473ffffffffffffffffffffffffffffffffffffffff169050919050565b600061095482611150565b90508073ffffffffffffffffffffffffffffffffffffffff168373ffffffffffffffffffffffffffffffffffffffff1614156109c5576040517f08c379a00000000000000000000000000000000000000000000000000000000081526004016109bc906146fb565b60405180910390fd5b8073ffffffffffffffffffffffffffffffffffffffff166109e4612418565b73ffffffffffffffffffffffffffffffffffffffff161480610a135750610a1281610a0d612418565b61205c565b5b610a52576040517f08c379a0000000000000000000000000000000000000000000000000000000008152600401610a49906145db565b60405180910390fd5b610a5c8383612420565b505050565b600063150b7a0260e01b9050949350505050565b600080600b600081548110610ab3577f4e487b7100000000000000000000000000000000000000000000000000000000600052603260045260246000fd5b906000526020600020015490506000600190505b600b80549050811015610b7b5781600b8281548110610b0f577f4e487b7100000000000000000000000000000000000000000000000000000000600052603260045260246000fd5b90600052602060002001541115610b6857600b8181548110610b5a577f4e487b7100000000000000000000000000000000000000000000000000000000600052603260045260246000fd5b906000526020600020015491505b8080610b7390614b89565b915050610ac7565b508091505090565b60006001600b80549050610b979190614a1b565b905090565b610bad610ba7612418565b826124d9565b610bec576040517f08c379a0000000000000000000000000000000000000000000000000000000008152600401610be39061475b565b60405180910390fd5b610bf783838361256e565b505050565b610c046127d5565b83815114610c47576040517f08c379a0000000000000000000000000000000000000000000000000000000008152600401610c3e9061463b565b60405180910390fd5b825184148015610c575750815184145b610c96576040517f08c379a0000000000000000000000000000000000000000000000000000000008152600401610c8d9061463b565b60405180910390fd5b60005b84811015610d8057610d6d86838381518110610cde577f4e487b7100000000000000000000000000000000000000000000000000000000600052603260045260246000fd5b6020026020010151868481518110610d1f577f4e487b7100000000000000000000000000000000000000000000000000000000600052603260045260246000fd5b6020026020010151868581518110610d60577f4e487b7100000000000000000000000000000000000000000000000000000000600052603260045260246000fd5b60200260200101516121ae565b8080610d7890614b89565b915050610c99565b505050505050565b6000806000600160008681526020019081526020016000206040518060400160405290816000820160009054906101000a900473ffffffffffffffffffffffffffffffffffffffff1673ffffffffffffffffffffffffffffffffffffffff1673ffffffffffffffffffffffffffffffffffffffff1681526020016000820160149054906101000a900462ffffff1662ffffff1662ffffff1681525050905080600001519250612710816020015162ffffff1685610e4591906149c1565b610e4f9190614990565b9150509250929050565b600f5481565b610e676127d5565b610e716011612853565b600e81905550610e816011612861565b610e8d81600e54612877565b6000610e9a600e54611ef0565b9050610ea8600e5482612a51565b5050565b610ec783838360405180602001604052806000815250611e8e565b505050565b610ed46127d5565b60005b81811015610efb57610ee883610e5f565b8080610ef390614b89565b915050610ed7565b505050565b818360005b8251811015610fd7578173ffffffffffffffffffffffffffffffffffffffff16610f6e848381518110610f61577f4e487b7100000000000000000000000000000000000000000000000000000000600052603260045260246000fd5b6020026020010151611150565b73ffffffffffffffffffffffffffffffffffffffff1614610fc4576040517f08c379a0000000000000000000000000000000000000000000000000000000008152600401610fbb9061473b565b60405180910390fd5b8080610fcf90614b89565b915050610f05565b5060005b835181101561114857600060106000878481518110611023577f4e487b7100000000000000000000000000000000000000000000000000000000600052603260045260246000fd5b602002602001015181526020019081526020016000209050848281518110611074577f4e487b7100000000000000000000000000000000000000000000000000000000600052603260045260246000fd5b60200260200101518160010181905550868160000160006101000a81548173ffffffffffffffffffffffffffffffffffffffff021916908373ffffffffffffffffffffffffffffffffffffffff16021790555061113433600d60009054906101000a900473ffffffffffffffffffffffffffffffffffffffff16888581518110611127577f4e487b7100000000000000000000000000000000000000000000000000000000600052603260045260246000fd5b6020026020010151610eac565b50808061114090614b89565b915050610fdb565b505050505050565b6000806004600084815260200190815260200160002060009054906101000a900473ffffffffffffffffffffffffffffffffffffffff169050600073ffffffffffffffffffffffffffffffffffffffff168173ffffffffffffffffffffffffffffffffffffffff1614156111f9576040517f08c379a00000000000000000000000000000000000000000000000000000000081526004016111f0906146db565b60405180910390fd5b80915050919050565b61120a6127d5565b80600f8190555050565b60008073ffffffffffffffffffffffffffffffffffffffff168273ffffffffffffffffffffffffffffffffffffffff161415611285576040517f08c379a000000000000000000000000000000000000000000000000000000000815260040161127c9061457b565b60405180910390fd5b600560008373ffffffffffffffffffffffffffffffffffffffff1673ffffffffffffffffffffffffffffffffffffffff168152602001908152602001600020549050919050565b6112d46127d5565b6112de6000612ac5565b565b600980546112ed90614b26565b80601f016020809104026020016040519081016040528092919081815260200182805461131990614b26565b80156113665780601f1061133b57610100808354040283529160200191611366565b820191906000526020600020905b81548152906001019060200180831161134957829003601f168201915b505050505081565b60008060009054906101000a900473ffffffffffffffffffffffffffffffffffffffff16905090565b6060600a80546113a690614b26565b80601f01602080910402602001604051908101604052809291908181526020018280546113d290614b26565b801561141f5780601f106113f45761010080835404028352916020019161141f565b820191906000526020600020905b81548152906001019060200180831161140257829003601f168201915b5050505050905090565b600061143361351d565b60005b835181101561161a576010600085838151811061147c577f4e487b7100000000000000000000000000000000000000000000000000000000600052603260045260246000fd5b602002602001015181526020019081526020016000206040518060400160405290816000820160009054906101000a900473ffffffffffffffffffffffffffffffffffffffff1673ffffffffffffffffffffffffffffffffffffffff1673ffffffffffffffffffffffffffffffffffffffff1681526020016001820154815250509150612710600f54836020015161151491906149c1565b61151e9190614990565b826020015161152d919061493a565b9250600d60009054906101000a900473ffffffffffffffffffffffffffffffffffffffff1673ffffffffffffffffffffffffffffffffffffffff166115b18583815181106115a4577f4e487b7100000000000000000000000000000000000000000000000000000000600052603260045260246000fd5b6020026020010151611150565b73ffffffffffffffffffffffffffffffffffffffff1614611607576040517f08c379a00000000000000000000000000000000000000000000000000000000081526004016115fe9061451b565b60405180910390fd5b808061161290614b89565b915050611436565b5081341461165d576040517f08c379a00000000000000000000000000000000000000000000000000000000081526004016116549061471b565b60405180910390fd5b60005b8351811015611c26576116b28482815181106116a5577f4e487b7100000000000000000000000000000000000000000000000000000000600052603260045260246000fd5b6020026020010151612b89565b6116f1576040517f08c379a00000000000000000000000000000000000000000000000000000000081526004016116e89061445b565b60405180910390fd5b6010600085838151811061172e577f4e487b7100000000000000000000000000000000000000000000000000000000600052603260045260246000fd5b602002602001015181526020019081526020016000206040518060400160405290816000820160009054906101000a900473ffffffffffffffffffffffffffffffffffffffff1673ffffffffffffffffffffffffffffffffffffffff1673ffffffffffffffffffffffffffffffffffffffff16815260200160018201548152505091506000600160008684815181106117f0577f4e487b7100000000000000000000000000000000000000000000000000000000600052603260045260246000fd5b602002602001015181526020019081526020016000206040518060400160405290816000820160009054906101000a900473ffffffffffffffffffffffffffffffffffffffff1673ffffffffffffffffffffffffffffffffffffffff1673ffffffffffffffffffffffffffffffffffffffff1681526020016000820160149054906101000a900462ffffff1662ffffff1662ffffff168152505090506000806000612710600f5487602001516118a691906149c1565b6118b09190614990565b90506119008886815181106118ee577f4e487b7100000000000000000000000000000000000000000000000000000000600052603260045260246000fd5b60200260200101518760200151612bf5565b8093508194505050600082876020015161191a9190614a1b565b905060008b73ffffffffffffffffffffffffffffffffffffffff1684604051611942906142d0565b60006040518083038185875af1925050503d806000811461197f576040519150601f19603f3d011682016040523d82523d6000602084013e611984565b606091505b50509050806119c8576040517f08c379a00000000000000000000000000000000000000000000000000000000081526004016119bf9061461b565b60405180910390fd5b6000886000015173ffffffffffffffffffffffffffffffffffffffff16836040516119f2906142d0565b60006040518083038185875af1925050503d8060008114611a2f576040519150601f19603f3d011682016040523d82523d6000602084013e611a34565b606091505b5050905080611a78576040517f08c379a0000000000000000000000000000000000000000000000000000000008152600401611a6f906145bb565b60405180910390fd5b6000600d60009054906101000a900473ffffffffffffffffffffffffffffffffffffffff1673ffffffffffffffffffffffffffffffffffffffff1685604051611ac0906142d0565b60006040518083038185875af1925050503d8060008114611afd576040519150601f19603f3d011682016040523d82523d6000602084013e611b02565b606091505b5050905080611b46576040517f08c379a0000000000000000000000000000000000000000000000000000000008152600401611b3d906146bb565b60405180910390fd5b7fc07b0f261ae5bc9c19f30e25aad9af37d9487b5f4e06447f1e18047ce25562e6886020015187604051611b7b92919061477b565b60405180910390a1611bce8e8e8e8c81518110611bc1577f4e487b7100000000000000000000000000000000000000000000000000000000600052603260045260246000fd5b6020026020010151610eac565b7fc07b0f261ae5bc9c19f30e25aad9af37d9487b5f4e06447f1e18047ce25562e6886020015187604051611c0392919061477b565b60405180910390a150505050505050508080611c1e90614b89565b915050611660565b507f818af4c544b28ba5751ea93e544b1d6694c4c5d7d397aac48113902649340a0c848484604051611c5a9392919061437c565b60405180910390a15050505050565b606060038054611c7890614b26565b80601f0160208091040260200160405190810160405280929190818152602001828054611ca490614b26565b8015611cf15780601f10611cc657610100808354040283529160200191611cf1565b820191906000526020600020905b815481529060010190602001808311611cd457829003601f168201915b5050505050905090565b611d0d611d06612418565b8383612cd2565b5050565b611d196127d5565b60005b8151811015611e0b57611d6e828281518110611d61577f4e487b7100000000000000000000000000000000000000000000000000000000600052603260045260246000fd5b6020026020010151612b89565b611dad576040517f08c379a0000000000000000000000000000000000000000000000000000000008152600401611da49061443b565b60405180910390fd5b611df88484848481518110611deb577f4e487b7100000000000000000000000000000000000000000000000000000000600052603260045260246000fd5b6020026020010151610eac565b8080611e0390614b89565b915050611d1c565b507fb347ba4075364fc4a28f09aa270ea3df88cdf4b1b8bab71fd4f0ec55ccdfcbc78282604051611e3d92919061434c565b60405180910390a1505050565b60106020528060005260406000206000915090508060000160009054906101000a900473ffffffffffffffffffffffffffffffffffffffff16908060010154905082565b611e9f611e99612418565b836124d9565b611ede576040517f08c379a0000000000000000000000000000000000000000000000000000000008152600401611ed59061475b565b60405180910390fd5b611eea84848484612e3f565b50505050565b6060611efb82612b89565b611f3a576040517f08c379a0000000000000000000000000000000000000000000000000000000008152600401611f319061467b565b60405180910390fd5b6000611f44611397565b90506000815111611f645760405180602001604052806000815250611f92565b80611f6e84612e9b565b6009604051602001611f829392919061429f565b6040516020818303038152906040525b915050919050565b611fa26127d5565b611fcf83600d60009054906101000a900473ffffffffffffffffffffffffffffffffffffffff1683613048565b611ffc600d60009054906101000a900473ffffffffffffffffffffffffffffffffffffffff168383613048565b7fb347ba4075364fc4a28f09aa270ea3df88cdf4b1b8bab71fd4f0ec55ccdfcbc7838260405161202d92919061434c565b60405180910390a1505050565b6120426127d5565b80600a908051906020019061205892919061354d565b5050565b6000600760008473ffffffffffffffffffffffffffffffffffffffff1673ffffffffffffffffffffffffffffffffffffffff16815260200190815260200160002060008373ffffffffffffffffffffffffffffffffffffffff1673ffffffffffffffffffffffffffffffffffffffff16815260200190815260200160002060009054906101000a900460ff16905092915050565b60008061211f600d60009054906101000a900473ffffffffffffffffffffffffffffffffffffffff168461205c565b905080915050919050565b6121326127d5565b600073ffffffffffffffffffffffffffffffffffffffff168173ffffffffffffffffffffffffffffffffffffffff1614156121a2576040517f08c379a0000000000000000000000000000000000000000000000000000000008152600401612199906144bb565b60405180910390fd5b6121ab81612ac5565b50565b6121b66127d5565b6121c06011612853565b600e819055506121d06011612861565b6121dc84600e54612877565b60006121e9600e54611ef0565b90506121f7600e5482612a51565b600b600e54908060018154018082558091505060019003906000526020600020016000909190919091505561222f600e548484613179565b61223761351d565b33816000019073ffffffffffffffffffffffffffffffffffffffff16908173ffffffffffffffffffffffffffffffffffffffff1681525050848160200181815250508060106000600e54815260200190815260200160002060008201518160000160006101000a81548173ffffffffffffffffffffffffffffffffffffffff021916908373ffffffffffffffffffffffffffffffffffffffff16021790555060208201518160010155905050505050505050565b60007f80ac58cd000000000000000000000000000000000000000000000000000000007bffffffffffffffffffffffffffffffffffffffffffffffffffffffff1916827bffffffffffffffffffffffffffffffffffffffffffffffffffffffff191614806123b657507f5b5e139f000000000000000000000000000000000000000000000000000000007bffffffffffffffffffffffffffffffffffffffffffffffffffffffff1916827bffffffffffffffffffffffffffffffffffffffffffffffffffffffff1916145b806123c657506123c582613275565b5b9050919050565b6123d681612b89565b612415576040517f08c379a000000000000000000000000000000000000000000000000000000000815260040161240c906146db565b60405180910390fd5b50565b600033905090565b816006600083815260200190815260200160002060006101000a81548173ffffffffffffffffffffffffffffffffffffffff021916908373ffffffffffffffffffffffffffffffffffffffff160217905550808273ffffffffffffffffffffffffffffffffffffffff1661249383611150565b73ffffffffffffffffffffffffffffffffffffffff167f8c5be1e5ebec7d5bd14f71427d1e84f3dd0314c0f7b2291e5b200ac8c7c3b92560405160405180910390a45050565b6000806124e583611150565b90508073ffffffffffffffffffffffffffffffffffffffff168473ffffffffffffffffffffffffffffffffffffffff1614806125275750612526818561205c565b5b8061256557508373ffffffffffffffffffffffffffffffffffffffff1661254d84610903565b73ffffffffffffffffffffffffffffffffffffffff16145b91505092915050565b8273ffffffffffffffffffffffffffffffffffffffff1661258e82611150565b73ffffffffffffffffffffffffffffffffffffffff16146125e4576040517f08c379a00000000000000000000000000000000000000000000000000000000081526004016125db906144db565b60405180910390fd5b600073ffffffffffffffffffffffffffffffffffffffff168273ffffffffffffffffffffffffffffffffffffffff161415612654576040517f08c379a000000000000000000000000000000000000000000000000000000000815260040161264b9061453b565b60405180910390fd5b61265f8383836132ef565b61266a600082612420565b6001600560008573ffffffffffffffffffffffffffffffffffffffff1673ffffffffffffffffffffffffffffffffffffffff16815260200190815260200160002060008282546126ba9190614a1b565b925050819055506001600560008473ffffffffffffffffffffffffffffffffffffffff1673ffffffffffffffffffffffffffffffffffffffff1681526020019081526020016000206000828254612711919061493a565b92505081905550816004600083815260200190815260200160002060006101000a81548173ffffffffffffffffffffffffffffffffffffffff021916908373ffffffffffffffffffffffffffffffffffffffff160217905550808273ffffffffffffffffffffffffffffffffffffffff168473ffffffffffffffffffffffffffffffffffffffff167fddf252ad1be2c89b69c2b068fc378daa952ba7f163c4a11628f55a4df523b3ef60405160405180910390a46127d08383836132f4565b505050565b6127dd612418565b73ffffffffffffffffffffffffffffffffffffffff166127fb61136e565b73ffffffffffffffffffffffffffffffffffffffff1614612851576040517f08c379a00000000000000000000000000000000000000000000000000000000081526004016128489061465b565b60405180910390fd5b565b600081600001549050919050565b6001816000016000828254019250508190555050565b600073ffffffffffffffffffffffffffffffffffffffff168273ffffffffffffffffffffffffffffffffffffffff1614156128e7576040517f08c379a00000000000000000000000000000000000000000000000000000000081526004016128de906145fb565b60405180910390fd5b6128f081612b89565b15612930576040517f08c379a0000000000000000000000000000000000000000000000000000000008152600401612927906144fb565b60405180910390fd5b61293c600083836132ef565b6001600560008473ffffffffffffffffffffffffffffffffffffffff1673ffffffffffffffffffffffffffffffffffffffff168152602001908152602001600020600082825461298c919061493a565b92505081905550816004600083815260200190815260200160002060006101000a81548173ffffffffffffffffffffffffffffffffffffffff021916908373ffffffffffffffffffffffffffffffffffffffff160217905550808273ffffffffffffffffffffffffffffffffffffffff16600073ffffffffffffffffffffffffffffffffffffffff167fddf252ad1be2c89b69c2b068fc378daa952ba7f163c4a11628f55a4df523b3ef60405160405180910390a4612a4d600083836132f4565b5050565b612a5a82612b89565b612a99576040517f08c379a0000000000000000000000000000000000000000000000000000000008152600401612a909061459b565b60405180910390fd5b80600860008481526020019081526020016000209080519060200190612ac092919061354d565b505050565b60008060009054906101000a900473ffffffffffffffffffffffffffffffffffffffff169050816000806101000a81548173ffffffffffffffffffffffffffffffffffffffff021916908373ffffffffffffffffffffffffffffffffffffffff1602179055508173ffffffffffffffffffffffffffffffffffffffff168173ffffffffffffffffffffffffffffffffffffffff167f8be0079c531659141344cd1fd0a4f28419497f9722a3daafe3b4186f6b6457e060405160405180910390a35050565b60008073ffffffffffffffffffffffffffffffffffffffff166004600084815260200190815260200160002060009054906101000a900473ffffffffffffffffffffffffffffffffffffffff1673ffffffffffffffffffffffffffffffffffffffff1614159050919050565b6000806000600160008681526020019081526020016000206040518060400160405290816000820160009054906101000a900473ffffffffffffffffffffffffffffffffffffffff1673ffffffffffffffffffffffffffffffffffffffff1673ffffffffffffffffffffffffffffffffffffffff1681526020016000820160149054906101000a900462ffffff1662ffffff1662ffffff168152505090506000816000015190506000612710836020015162ffffff1687612cb691906149c1565b612cc09190614990565b90508181945094505050509250929050565b8173ffffffffffffffffffffffffffffffffffffffff168373ffffffffffffffffffffffffffffffffffffffff161415612d41576040517f08c379a0000000000000000000000000000000000000000000000000000000008152600401612d389061455b565b60405180910390fd5b80600760008573ffffffffffffffffffffffffffffffffffffffff1673ffffffffffffffffffffffffffffffffffffffff16815260200190815260200160002060008473ffffffffffffffffffffffffffffffffffffffff1673ffffffffffffffffffffffffffffffffffffffff16815260200190815260200160002060006101000a81548160ff0219169083151502179055508173ffffffffffffffffffffffffffffffffffffffff168373ffffffffffffffffffffffffffffffffffffffff167f17307eab39ab6107e8899845ad3d59bd9653f200f220920489ca2b5937696c3183604051612e3291906143e3565b60405180910390a3505050565b612e4a84848461256e565b612e56848484846132f9565b612e95576040517f08c379a0000000000000000000000000000000000000000000000000000000008152600401612e8c9061449b565b60405180910390fd5b50505050565b60606000821415612ee3576040518060400160405280600181526020017f30000000000000000000000000000000000000000000000000000000000000008152509050613043565b600082905060005b60008214612f15578080612efe90614b89565b915050600a82612f0e9190614990565b9150612eeb565b60008167ffffffffffffffff811115612f57577f4e487b7100000000000000000000000000000000000000000000000000000000600052604160045260246000fd5b6040519080825280601f01601f191660200182016040528015612f895781602001600182028036833780820191505090505b5090505b6000851461303c57600182612fa29190614a1b565b9150600a85612fb19190614bd2565b6030612fbd919061493a565b60f81b818381518110612ff9577f4e487b7100000000000000000000000000000000000000000000000000000000600052603260045260246000fd5b60200101907effffffffffffffffffffffffffffffffffffffffffffffffffffffffffffff1916908160001a905350600a856130359190614990565b9450612f8d565b8093505050505b919050565b60005b815181101561313a5761309d828281518110613090577f4e487b7100000000000000000000000000000000000000000000000000000000600052603260045260246000fd5b6020026020010151612b89565b6130dc576040517f08c379a00000000000000000000000000000000000000000000000000000000081526004016130d39061469b565b60405180910390fd5b613127848484848151811061311a577f4e487b7100000000000000000000000000000000000000000000000000000000600052603260045260246000fd5b6020026020010151610eac565b808061313290614b89565b91505061304b565b507fb347ba4075364fc4a28f09aa270ea3df88cdf4b1b8bab71fd4f0ec55ccdfcbc7828260405161316c92919061434c565b60405180910390a1505050565b6127108111156131be576040517f08c379a00000000000000000000000000000000000000000000000000000000081526004016131b59061447b565b60405180910390fd5b60405180604001604052808373ffffffffffffffffffffffffffffffffffffffff1681526020018262ffffff168152506001600085815260200190815260200160002060008201518160000160006101000a81548173ffffffffffffffffffffffffffffffffffffffff021916908373ffffffffffffffffffffffffffffffffffffffff16021790555060208201518160000160146101000a81548162ffffff021916908362ffffff160217905550905050505050565b60007f2a55205a000000000000000000000000000000000000000000000000000000007bffffffffffffffffffffffffffffffffffffffffffffffffffffffff1916827bffffffffffffffffffffffffffffffffffffffffffffffffffffffff191614806132e857506132e782613490565b5b9050919050565b505050565b505050565b600061331a8473ffffffffffffffffffffffffffffffffffffffff166134fa565b15613483578373ffffffffffffffffffffffffffffffffffffffff1663150b7a02613343612418565b8786866040518563ffffffff1660e01b81526004016133659493929190614300565b602060405180830381600087803b15801561337f57600080fd5b505af19250505080156133b057506040513d601f19601f820116820180604052508101906133ad9190613c2d565b60015b613433573d80600081146133e0576040519150601f19603f3d011682016040523d82523d6000602084013e6133e5565b606091505b5060008151141561342b576040517f08c379a00000000000000000000000000000000000000000000000000000000081526004016134229061449b565b60405180910390fd5b805181602001fd5b63150b7a0260e01b7bffffffffffffffffffffffffffffffffffffffffffffffffffffffff1916817bffffffffffffffffffffffffffffffffffffffffffffffffffffffff191614915050613488565b600190505b949350505050565b60007f01ffc9a7000000000000000000000000000000000000000000000000000000007bffffffffffffffffffffffffffffffffffffffffffffffffffffffff1916827bffffffffffffffffffffffffffffffffffffffffffffffffffffffff1916149050919050565b6000808273ffffffffffffffffffffffffffffffffffffffff163b119050919050565b6040518060400160405280600073ffffffffffffffffffffffffffffffffffffffff168152602001600081525090565b82805461355990614b26565b90600052602060002090601f01602090048101928261357b57600085556135c2565b82601f1061359457805160ff19168380011785556135c2565b828001600101855582156135c2579182015b828111156135c15782518255916020019190600101906135a6565b5b5090506135cf91906135d3565b5090565b5b808211156135ec5760008160009055506001016135d4565b5090565b60006136036135fe846147e4565b6147bf565b9050808382526020820190508285602086028201111561362257600080fd5b60005b8581101561365257816136388882613744565b845260208401935060208301925050600181019050613625565b5050509392505050565b600061366f61366a84614810565b6147bf565b9050808382526020820190508285602086028201111561368e57600080fd5b60005b858110156136be57816136a48882613840565b845260208401935060208301925050600181019050613691565b5050509392505050565b60006136db6136d68461483c565b6147bf565b9050828152602081018484840111156136f357600080fd5b6136fe848285614ae4565b509392505050565b60006137196137148461486d565b6147bf565b90508281526020810184848401111561373157600080fd5b61373c848285614ae4565b509392505050565b600081359050613753816152c5565b92915050565b600082601f83011261376a57600080fd5b813561377a8482602086016135f0565b91505092915050565b600082601f83011261379457600080fd5b81356137a484826020860161365c565b91505092915050565b6000813590506137bc816152dc565b92915050565b6000813590506137d1816152f3565b92915050565b6000815190506137e6816152f3565b92915050565b600082601f8301126137fd57600080fd5b813561380d8482602086016136c8565b91505092915050565b600082601f83011261382757600080fd5b8135613837848260208601613706565b91505092915050565b60008135905061384f8161530a565b92915050565b60006020828403121561386757600080fd5b600061387584828501613744565b91505092915050565b6000806040838503121561389157600080fd5b600061389f85828601613744565b92505060206138b085828601613744565b9150509250929050565b6000806000606084860312156138cf57600080fd5b60006138dd86828701613744565b93505060206138ee86828701613744565b925050604084013567ffffffffffffffff81111561390b57600080fd5b61391786828701613783565b9150509250925092565b60008060006060848603121561393657600080fd5b600061394486828701613744565b935050602061395586828701613744565b925050604061396686828701613840565b9150509250925092565b6000806000806080858703121561398657600080fd5b600061399487828801613744565b94505060206139a587828801613744565b93505060406139b687828801613840565b925050606085013567ffffffffffffffff8111156139d357600080fd5b6139df878288016137ec565b91505092959194509250565b600080600060608486031215613a0057600080fd5b6000613a0e86828701613744565b935050602084013567ffffffffffffffff811115613a2b57600080fd5b613a3786828701613783565b925050604084013567ffffffffffffffff811115613a5457600080fd5b613a6086828701613783565b9150509250925092565b60008060408385031215613a7d57600080fd5b6000613a8b85828601613744565b9250506020613a9c858286016137ad565b9150509250929050565b60008060408385031215613ab957600080fd5b6000613ac785828601613744565b9250506020613ad885828601613840565b9150509250929050565b60008060008060808587031215613af857600080fd5b6000613b0687828801613744565b9450506020613b1787828801613840565b9350506040613b2887828801613744565b9250506060613b3987828801613840565b91505092959194509250565b600080600080600060a08688031215613b5d57600080fd5b6000613b6b88828901613744565b9550506020613b7c88828901613840565b945050604086013567ffffffffffffffff811115613b9957600080fd5b613ba588828901613759565b935050606086013567ffffffffffffffff811115613bc257600080fd5b613bce88828901613783565b925050608086013567ffffffffffffffff811115613beb57600080fd5b613bf788828901613783565b9150509295509295909350565b600060208284031215613c1657600080fd5b6000613c24848285016137c2565b91505092915050565b600060208284031215613c3f57600080fd5b6000613c4d848285016137d7565b91505092915050565b600060208284031215613c6857600080fd5b600082013567ffffffffffffffff811115613c8257600080fd5b613c8e84828501613816565b91505092915050565b600060208284031215613ca957600080fd5b6000613cb784828501613840565b91505092915050565b60008060408385031215613cd357600080fd5b6000613ce185828601613840565b9250506020613cf285828601613840565b9150509250929050565b6000613d088383614281565b60208301905092915050565b613d1d81614a4f565b82525050565b6000613d2e826148c3565b613d3881856148f1565b9350613d438361489e565b8060005b83811015613d74578151613d5b8882613cfc565b9750613d66836148e4565b925050600181019050613d47565b5085935050505092915050565b613d8a81614a61565b82525050565b613d9981614a6d565b82525050565b6000613daa826148ce565b613db48185614902565b9350613dc4818560208601614af3565b613dcd81614cbf565b840191505092915050565b6000613de3826148d9565b613ded818561491e565b9350613dfd818560208601614af3565b613e0681614cbf565b840191505092915050565b6000613e1c826148d9565b613e26818561492f565b9350613e36818560208601614af3565b80840191505092915050565b60008154613e4f81614b26565b613e59818661492f565b94506001821660008114613e745760018114613e8557613eb8565b60ff19831686528186019350613eb8565b613e8e856148ae565b60005b83811015613eb057815481890152600182019150602081019050613e91565b838801955050505b50505092915050565b6000613ece60188361491e565b9150613ed982614cd0565b602082019050919050565b6000613ef1601e8361491e565b9150613efc82614cf9565b602082019050919050565b6000613f14601a8361491e565b9150613f1f82614d22565b602082019050919050565b6000613f3760328361491e565b9150613f4282614d4b565b604082019050919050565b6000613f5a60268361491e565b9150613f6582614d9a565b604082019050919050565b6000613f7d60258361491e565b9150613f8882614de9565b604082019050919050565b6000613fa0601c8361491e565b9150613fab82614e38565b602082019050919050565b6000613fc3602e8361491e565b9150613fce82614e61565b604082019050919050565b6000613fe660248361491e565b9150613ff182614eb0565b604082019050919050565b600061400960198361491e565b915061401482614eff565b602082019050919050565b600061402c60298361491e565b915061403782614f28565b604082019050919050565b600061404f602e8361491e565b915061405a82614f77565b604082019050919050565b6000614072601d8361491e565b915061407d82614fc6565b602082019050919050565b6000614095603e8361491e565b91506140a082614fef565b604082019050919050565b60006140b860208361491e565b91506140c38261503e565b602082019050919050565b60006140db601e8361491e565b91506140e682615067565b602082019050919050565b60006140fe601e8361491e565b915061410982615090565b602082019050919050565b600061412160208361491e565b915061412c826150b9565b602082019050919050565b6000614144602f8361491e565b915061414f826150e2565b604082019050919050565b600061416760198361491e565b915061417282615131565b602082019050919050565b600061418a60178361491e565b91506141958261515a565b602082019050919050565b60006141ad60188361491e565b91506141b882615183565b602082019050919050565b60006141d060218361491e565b91506141db826151ac565b604082019050919050565b60006141f3601e8361491e565b91506141fe826151fb565b602082019050919050565b600061421660268361491e565b915061422182615224565b604082019050919050565b6000614239600083614913565b915061424482615273565b600082019050919050565b600061425c602e8361491e565b915061426782615276565b604082019050919050565b61427b81614ad2565b82525050565b61428a81614ac8565b82525050565b61429981614ac8565b82525050565b60006142ab8286613e11565b91506142b78285613e11565b91506142c38284613e42565b9150819050949350505050565b60006142db8261422c565b9150819050919050565b60006020820190506142fa6000830184613d14565b92915050565b60006080820190506143156000830187613d14565b6143226020830186613d14565b61432f6040830185614290565b81810360608301526143418184613d9f565b905095945050505050565b60006040820190506143616000830185613d14565b81810360208301526143738184613d23565b90509392505050565b60006060820190506143916000830186613d14565b81810360208301526143a38185613d23565b90506143b26040830184614290565b949350505050565b60006040820190506143cf6000830185613d14565b6143dc6020830184614290565b9392505050565b60006020820190506143f86000830184613d81565b92915050565b60006020820190506144136000830184613d90565b92915050565b600060208201905081810360008301526144338184613dd8565b905092915050565b6000602082019050818103600083015261445481613ec1565b9050919050565b6000602082019050818103600083015261447481613ee4565b9050919050565b6000602082019050818103600083015261449481613f07565b9050919050565b600060208201905081810360008301526144b481613f2a565b9050919050565b600060208201905081810360008301526144d481613f4d565b9050919050565b600060208201905081810360008301526144f481613f70565b9050919050565b6000602082019050818103600083015261451481613f93565b9050919050565b6000602082019050818103600083015261453481613fb6565b9050919050565b6000602082019050818103600083015261455481613fd9565b9050919050565b6000602082019050818103600083015261457481613ffc565b9050919050565b600060208201905081810360008301526145948161401f565b9050919050565b600060208201905081810360008301526145b481614042565b9050919050565b600060208201905081810360008301526145d481614065565b9050919050565b600060208201905081810360008301526145f481614088565b9050919050565b60006020820190508181036000830152614614816140ab565b9050919050565b60006020820190508181036000830152614634816140ce565b9050919050565b60006020820190508181036000830152614654816140f1565b9050919050565b6000602082019050818103600083015261467481614114565b9050919050565b6000602082019050818103600083015261469481614137565b9050919050565b600060208201905081810360008301526146b48161415a565b9050919050565b600060208201905081810360008301526146d48161417d565b9050919050565b600060208201905081810360008301526146f4816141a0565b9050919050565b60006020820190508181036000830152614714816141c3565b9050919050565b60006020820190508181036000830152614734816141e6565b9050919050565b6000602082019050818103600083015261475481614209565b9050919050565b600060208201905081810360008301526147748161424f565b9050919050565b60006040820190506147906000830185614272565b61479d6020830184614290565b9392505050565b60006020820190506147b96000830184614290565b92915050565b60006147c96147da565b90506147d58282614b58565b919050565b6000604051905090565b600067ffffffffffffffff8211156147ff576147fe614c90565b5b602082029050602081019050919050565b600067ffffffffffffffff82111561482b5761482a614c90565b5b602082029050602081019050919050565b600067ffffffffffffffff82111561485757614856614c90565b5b61486082614cbf565b9050602081019050919050565b600067ffffffffffffffff82111561488857614887614c90565b5b61489182614cbf565b9050602081019050919050565b6000819050602082019050919050565b60008190508160005260206000209050919050565b600081519050919050565b600081519050919050565b600081519050919050565b6000602082019050919050565b600082825260208201905092915050565b600082825260208201905092915050565b600081905092915050565b600082825260208201905092915050565b600081905092915050565b600061494582614ac8565b915061495083614ac8565b9250827fffffffffffffffffffffffffffffffffffffffffffffffffffffffffffffffff0382111561498557614984614c03565b5b828201905092915050565b600061499b82614ac8565b91506149a683614ac8565b9250826149b6576149b5614c32565b5b828204905092915050565b60006149cc82614ac8565b91506149d783614ac8565b9250817fffffffffffffffffffffffffffffffffffffffffffffffffffffffffffffffff0483118215151615614a1057614a0f614c03565b5b828202905092915050565b6000614a2682614ac8565b9150614a3183614ac8565b925082821015614a4457614a43614c03565b5b828203905092915050565b6000614a5a82614a99565b9050919050565b60008115159050919050565b60007fffffffff0000000000000000000000000000000000000000000000000000000082169050919050565b600073ffffffffffffffffffffffffffffffffffffffff82169050919050565b600062ffffff82169050919050565b6000819050919050565b6000614add82614ab9565b9050919050565b82818337600083830152505050565b60005b83811015614b11578082015181840152602081019050614af6565b83811115614b20576000848401525b50505050565b60006002820490506001821680614b3e57607f821691505b60208210811415614b5257614b51614c61565b5b50919050565b614b6182614cbf565b810181811067ffffffffffffffff82111715614b8057614b7f614c90565b5b80604052505050565b6000614b9482614ac8565b91507fffffffffffffffffffffffffffffffffffffffffffffffffffffffffffffffff821415614bc757614bc6614c03565b5b600182019050919050565b6000614bdd82614ac8565b9150614be883614ac8565b925082614bf857614bf7614c32565b5b828206905092915050565b7f4e487b7100000000000000000000000000000000000000000000000000000000600052601160045260246000fd5b7f4e487b7100000000000000000000000000000000000000000000000000000000600052601260045260246000fd5b7f4e487b7100000000000000000000000000000000000000000000000000000000600052602260045260246000fd5b7f4e487b7100000000000000000000000000000000000000000000000000000000600052604160045260246000fd5b6000601f19601f8301169050919050565b7f4b495031373a206e6f6e6578697374656e7420746f6b656e0000000000000000600082015250565b7f416e64547265654d6574613a206e6f6e6578697374656e7420746f6b656e0000600082015250565b7f45524332393831526f79616c746965733a20546f6f2068696768000000000000600082015250565b7f4552433732313a207472616e7366657220746f206e6f6e20455243373231526560008201527f63656976657220696d706c656d656e7465720000000000000000000000000000602082015250565b7f4f776e61626c653a206e6577206f776e657220697320746865207a65726f206160008201527f6464726573730000000000000000000000000000000000000000000000000000602082015250565b7f4552433732313a207472616e736665722066726f6d20696e636f72726563742060008201527f6f776e6572000000000000000000000000000000000000000000000000000000602082015250565b7f4552433732313a20746f6b656e20616c7265616479206d696e74656400000000600082015250565b7f416e64547265654d6574613a205468697320697320616e204e4654207468617460008201527f20686173206265656e20736f6c64000000000000000000000000000000000000602082015250565b7f4552433732313a207472616e7366657220746f20746865207a65726f2061646460008201527f7265737300000000000000000000000000000000000000000000000000000000602082015250565b7f4552433732313a20617070726f766520746f2063616c6c657200000000000000600082015250565b7f4552433732313a2061646472657373207a65726f206973206e6f74206120766160008201527f6c6964206f776e65720000000000000000000000000000000000000000000000602082015250565b7f45524337323155524953746f726167653a2055524920736574206f66206e6f6e60008201527f6578697374656e7420746f6b656e000000000000000000000000000000000000602082015250565b7f4554482073616c655072696365207472616e73666572206661696c6564000000600082015250565b7f4552433732313a20617070726f76652063616c6c6572206973206e6f7420746f60008201527f6b656e206f776e6572206e6f7220617070726f76656420666f7220616c6c0000602082015250565b7f4552433732313a206d696e7420746f20746865207a65726f2061646472657373600082015250565b7f45544820726f79616c7479466565207472616e73666572206661696c65640000600082015250565b7f4552433732313a20417272617973206c656e677468206d69736d617463680000600082015250565b7f4f776e61626c653a2063616c6c6572206973206e6f7420746865206f776e6572600082015250565b7f4552433732314d657461646174613a2055524920717565727920666f72206e6f60008201527f6e6578697374656e7420746f6b656e0000000000000000000000000000000000602082015250565b7f4552433732313a206e6f6e6578697374656e7420746f6b656e00000000000000600082015250565b7f45544820666565207472616e73666572206661696c6564000000000000000000600082015250565b7f4552433732313a20696e76616c696420746f6b656e2049440000000000000000600082015250565b7f4552433732313a20617070726f76616c20746f2063757272656e74206f776e6560008201527f7200000000000000000000000000000000000000000000000000000000000000602082015250565b7f416e64547265654d6574613a206e6f7420656e6f756768206d6f6e6579310000600082015250565b7f4f6e6c7920746865206f776e65722063616e207472616e73666572207468697360008201527f20746f6b656e0000000000000000000000000000000000000000000000000000602082015250565b50565b7f4552433732313a2063616c6c6572206973206e6f7420746f6b656e206f776e6560008201527f72206e6f7220617070726f766564000000000000000000000000000000000000602082015250565b6152ce81614a4f565b81146152d957600080fd5b50565b6152e581614a61565b81146152f057600080fd5b50565b6152fc81614a6d565b811461530757600080fd5b50565b61531381614ac8565b811461531e57600080fd5b5056fea264697066735822122061105dea46e78a31eca5eb82d6876af0daccb239feffb0a0f4160604d4da940264736f6c63430008040033",
  "immutableReferences": {},
  "source": "// SPDX-License-Identifier: MIT\npragma solidity ^0.8.4;\n\nimport \"@openzeppelin/contracts/token/ERC721/ERC721.sol\";\nimport \"@openzeppelin/contracts/access/Ownable.sol\";\nimport \"@openzeppelin/contracts/utils/Counters.sol\";\nimport \"@openzeppelin/contracts/token/ERC721/utils/ERC721Holder.sol\";\nimport \"@openzeppelin/contracts/token/ERC721/extensions/ERC721URIStorage.sol\";\nimport \"../EIP2981-implementation-main/contracts/ERC2981PerTokenRoyalties.sol\";\nimport \"../EIP2981-implementation-main/contracts/mocks/ERC1155WithRoyalties.sol\";\n\n\ncontract MyToken is Ownable, ERC2981PerTokenRoyalties,ERC721URIStorage, ERC721Holder {\n    using Counters for Counters.Counter;\n    string public fileExtention = \".json\";\n    using Strings for uint256;\n    string private tokenURL;\n    uint256[] private tokenIds;\n    address[] private royaltyFrom;\n    address private compeny;\n    uint256 tokenId;\n    uint256 public allFee; // 10% == 10, 20% == 5 \n\n    struct SallerInfo{\n        address owner;\n        uint256 price;\n    }\n\n    mapping(uint256 => SallerInfo) public sallerOwner;\n\n    Counters.Counter private _tokenIdCounter;\n\n    event NftSale(address to, uint256[] tokenIds);\n    event KlayNftSale(address to, uint256 tokenIds, uint256 price);\n    event KlayBatchNftSale(address to, uint256[] tokenIds, uint256 totalPrice);\n    event RoyaltValues(uint256 royaltyFee, uint256 royaltyPrice);\n\n    constructor() ERC721(\"MyToken\", \"MTK\") {\n        tokenIds.push(0);\n        compeny = msg.sender;\n        allFee = 1000;\n        setApprovalForAll(address(this),true);\n    }\n\n    modifier isNftOwner(\n        uint256[] memory _tokenIds,\n        address _from\n    ) \n    {\n        for (uint i = 0; i < _tokenIds.length; i++) {\n            require(\n                ownerOf(_tokenIds[i]) == _from,\n                \"Only the owner can transfer this token\"\n            );\n        }\n        _;\n    }\n\n    function supportsInterface(bytes4 interfaceId) public view virtual override(ERC721, ERC2981Base) returns (bool) {\n        return super.supportsInterface(interfaceId);\n    }\n\n    function setTokenURI(string memory _batchUri) public onlyOwner{\n        tokenURL = _batchUri;\n    }\n\n    function setBatchUri() public view returns(string memory){\n        return tokenURL;\n    }\n\n    // Check Writer Royalty\n    function royalty(uint256 tokenid, uint256 price) private view returns(address to,uint256 ro){\n        RoyaltyInfo memory royalties = _royalties[tokenid];\n        address receiver = royalties.recipient;\n        uint256 royaltyAmount = (price * royalties.amount) / 10000;\n        return (receiver,royaltyAmount);\n    }\n\n    function safeMint(address to) public onlyOwner {\n        tokenId = _tokenIdCounter.current();\n        _tokenIdCounter.increment();\n        _mint(to, tokenId);\n        string memory tokenURIs = tokenURI(tokenId);\n        _setTokenURI(tokenId, tokenURIs);\n        \n    }\n\n    function ETHRoyaltySafeMint(address to, uint256 price, address royaltyRecipients, uint256 royaltyValues) public onlyOwner {\n        tokenId = _tokenIdCounter.current();\n        _tokenIdCounter.increment();\n        _mint(to, tokenId);\n        string memory tokenURIs = tokenURI(tokenId);\n        _setTokenURI(tokenId, tokenURIs);\n        tokenIds.push(tokenId);\n        _setTokenRoyalty\n        (\n            tokenId,\n            royaltyRecipients,\n            royaltyValues\n        );\n        SallerInfo memory saller;\n        saller.owner = msg.sender;\n        saller.price = price;\n        sallerOwner[tokenId] = saller;\n    }\n\n      function tokenURI(uint256 _tokenId) public view virtual override returns (string memory) {\n        require(_exists(_tokenId), \"ERC721Metadata: URI query for nonexistent token\");\n        string memory baseURI = setBatchUri();\n        return bytes(baseURI).length > 0 ? string(abi.encodePacked(baseURI, _tokenId.toString(), fileExtention)) : \"\";\n    }\n\n    function batchMint(address to, uint amount) public onlyOwner{\n        for (uint i = 0; i < amount; i++) {\n            safeMint(to);\n        }\n    }\n\n    function changePrice(\n        address _to,\n        uint256[] memory _tokenIds,\n        uint256[] memory _rePrices\n    )\n    isNftOwner(_tokenIds,_to)\n    public\n    {\n        for (uint i = 0; i < _rePrices.length; i++) {\n            SallerInfo storage saller = sallerOwner[_tokenIds[i]];\n            saller.price = _rePrices[i];\n            saller.owner = _to;\n            safeTransferFrom(msg.sender, compeny, _tokenIds[i]);\n        }\n    }\n\n    function batchTransferFrom(address from, address to, uint256[] memory ids) private {\n        for (uint i = 0; i < ids.length; i++){\n            require(_exists(ids[i]), \"ERC721: nonexistent token\");\n            safeTransferFrom(from,to,ids[i]);\n        }\n        emit NftSale(to, ids);\n    }\n\n    function ownerBatchTransferFrom(address from, address to, uint256[] memory ids) public onlyOwner {\n        for (uint i = 0; i < ids.length; i++){\n            require(_exists(ids[i]), \"KIP17: nonexistent token\");\n            safeTransferFrom(from,to,ids[i]);\n        }\n        emit NftSale(to, ids);\n    }\n\n    function tradeBatchTransferFrom(address _from, address _to, uint256[] memory _tokenIds) public onlyOwner{\n        batchTransferFrom(_from, compeny, _tokenIds);\n        batchTransferFrom(compeny, _to, _tokenIds);\n        emit NftSale(_from, _tokenIds);\n    }\n\n    function ETHBatchMint(address to, uint amount, address[] memory royaltyRecipients, uint256[] memory royaltyValues, uint256[] memory price) public onlyOwner{\n        \n        require(price.length == amount , \"ERC721: Arrays length mismatch\");\n\n        require(amount == royaltyRecipients.length &&\n                amount == royaltyValues.length,\n                'ERC721: Arrays length mismatch');\n        \n        for (uint i = 0; i < amount; i++) {\n            ETHRoyaltySafeMint(to,price[i],royaltyRecipients[i],royaltyValues[i]);\n        }\n\n    }\n\n    function ETHBatchTransferFrom(address from, address to, uint256[] memory ids) public payable {\n        uint256 checkPrice;\n        SallerInfo memory saller;\n        \n        for(uint256 j; j<ids.length; j++){\n            saller = sallerOwner[ids[j]];\n            checkPrice = saller.price + (saller.price * allFee / 10000);\n            require(ownerOf(ids[j]) == compeny,\"AndTreeMeta: This is an NFT that has been sold\");\n        }\n\n        require(msg.value == checkPrice, \"AndTreeMeta: not enough money1\");\n        \n        for (uint i = 0; i < ids.length; i++){\n\n            require(_exists(ids[i]), \"AndTreeMeta: nonexistent token\");\n            saller = sallerOwner[ids[i]];\n            RoyaltyInfo memory royalties = _royalties[ids[i]];\n            address writerFrom;\n            uint256 price; \n            uint256 fee = saller.price * allFee / 10000;\n            (writerFrom,price) = royalty(ids[i],saller.price);\n            uint256 salePrices = saller.price - price;\n\n            // Writer\n            (bool Writercheck ,) = payable(from).call{value : price}(\"\");\n            require(Writercheck,\"ETH royaltyFee transfer failed\");\n            // saller\n            (bool sallerCheck ,) = payable(saller.owner).call{value : salePrices}(\"\");\n            require(sallerCheck,\"ETH salePrice transfer failed\");\n            // compeny\n            (bool compenyCheck ,) = payable(compeny).call{value : fee}(\"\");\n            require(compenyCheck,\"ETH fee transfer failed\");\n            emit RoyaltValues(royalties.amount, price);\n\n            safeTransferFrom(from,to,ids[i]);\n            emit RoyaltValues(royalties.amount, price);\n        }\n        emit KlayBatchNftSale(to,ids,checkPrice);\n    }\n\n    // function ETHTradeBatchTransferFrom(address _from, uint256[] memory _tokenIds) public payable{\n    //     uint256 checkPrice;\n    //     SallerInfo memory saller;\n        \n    //     for(uint256 j; j<_tokenIds.length; j++){\n    //         saller = sallerOwner[_tokenIds[j]];\n    //         checkPrice = saller.price + (saller.price * allFee / 10000);\n    //     }\n\n    //     require(msg.value == checkPrice, \"MyToken: not enough money2\");\n        \n    //     batchTransferFrom(_from, compeny, _tokenIds);\n    //     ETHBatchTransferFrom(compeny, msg.sender, _tokenIds);\n    // }\n\n    function getToken() public view returns(uint256){\n        return tokenIds.length - 1;\n    }\n\n    function totalSupply() public view returns(uint256){\n        uint256 max = tokenIds[0];\n        for(uint256 i=1; i<tokenIds.length; i++){\n                if(tokenIds[i] > max)\n                    max = tokenIds[i];\n        }\n        return max;\n    }\n\n    function checkApproval(address operator) public view returns(bool){\n        bool check = isApprovedForAll(compeny,operator);\n        return check;\n\n    }\n\n    function setFee(uint256 fee) public onlyOwner {\n        allFee = fee;\n    }\n}",
  "sourcePath": "/Users/minmac/Documents/work/solidity/contracts/createNft.sol",
  "compiler": {
    "name": "solc",
    "version": "0.8.4+commit.c7e474f2.Emscripten.clang"
  },
  "schemaVersion": "3.4.8",
  "updatedAt": "2022-07-07T08:22:50.986Z",
  "networkType": "ethereum",
  "devdoc": {
    "kind": "dev",
    "methods": {
      "approve(address,uint256)": {
        "details": "See {IERC721-approve}."
      },
      "balanceOf(address)": {
        "details": "See {IERC721-balanceOf}."
      },
      "getApproved(uint256)": {
        "details": "See {IERC721-getApproved}."
      },
      "isApprovedForAll(address,address)": {
        "details": "See {IERC721-isApprovedForAll}."
      },
      "name()": {
        "details": "See {IERC721Metadata-name}."
      },
      "onERC721Received(address,address,uint256,bytes)": {
        "details": "See {IERC721Receiver-onERC721Received}. Always returns `IERC721Receiver.onERC721Received.selector`."
      },
      "owner()": {
        "details": "Returns the address of the current owner."
      },
      "ownerOf(uint256)": {
        "details": "See {IERC721-ownerOf}."
      },
      "renounceOwnership()": {
        "details": "Leaves the contract without owner. It will not be possible to call `onlyOwner` functions anymore. Can only be called by the current owner. NOTE: Renouncing ownership will leave the contract without an owner, thereby removing any functionality that is only available to the owner."
      },
      "royaltyInfo(uint256,uint256)": {
        "params": {
          "_tokenId": "- the NFT asset queried for royalty information",
          "_value": "- the sale price of the NFT asset specified by _tokenId"
        },
        "returns": {
          "receiver": "- address of who should be sent the royalty payment",
          "royaltyAmount": "- the royalty payment amount for value sale price"
        }
      },
      "safeTransferFrom(address,address,uint256)": {
        "details": "See {IERC721-safeTransferFrom}."
      },
      "safeTransferFrom(address,address,uint256,bytes)": {
        "details": "See {IERC721-safeTransferFrom}."
      },
      "setApprovalForAll(address,bool)": {
        "details": "See {IERC721-setApprovalForAll}."
      },
      "symbol()": {
        "details": "See {IERC721Metadata-symbol}."
      },
      "transferFrom(address,address,uint256)": {
        "details": "See {IERC721-transferFrom}."
      },
      "transferOwnership(address)": {
        "details": "Transfers ownership of the contract to a new account (`newOwner`). Can only be called by the current owner."
      }
    },
    "version": 1
  },
  "userdoc": {
    "kind": "user",
    "methods": {},
    "version": 1
  }
}